:040000009031772A9A
:1000080070082000A3007108A2007208A1008031C6
:10001800911EE7288030F0008030003A7002031DFE
:100028001828F93021002F020318E728BA2770088A
:100038002600A1008930F1002030F20021002F08AD
:10004800710786000030723D870070088100AF2874
:10005800260021084F3A031D352801302000EF0003
:100068004F2826002108453A031D3E28023020006B
:10007800EF004F2826002108523A031D4728063072
:100088002000EF004F28260021083E3A031D4F2884
:1000980001302100AD00D528260021084B3A031D68
:1000A800582801302100A1002000EF01D5282600A2
:1000B8002108523A031D642803302000EF00662807
:1000C8002000EF01D52826002108523A031D702888
:1000D80004302000EF0072282000EF01D528260008
:1000E80021084F3A031D7C2805302000EF007E28A8
:1000F8002000EF01D52826002108523A031D872841
:1001080001302100A0002000EF01D5282600210899
:10011800493A031D932807302000EF009528200056
:10012800EF01D528260021084E3A031D9F280830E4
:100138002000EF00A1282000EF01D5282600210883
:10014800473A031DAA2801302000E2002000EF01F1
:10015800D528EF01D52820006F08003A03192C286C
:100168006F08013A031950286F08023A03195B28EF
:100178006F08033A031967286F08043A03197328AC
:100188006F08053A03197F286F08063A03198A2869
:100198006F08073A031996286F08083A0319A22826
:1001A800AD2821002F0AF0007008AF008930F00058
:1001B8002030F1002F08700786000030713D87005D
:1001C80081012000911220002308F0002208F1008C
:0601D8002108F2000900FD
:1001DE007408F8027508031C750FF9027608031CE3
:1001EE00760FFA027708031C770FFB02F30D073028
:1001FE00FC00730DF80DF90DFA0DFB0D7408731C50
:10020E001629F8027508031C750FF9027608031CEF
:10021E00760FFA027708031C770FFB022329F807E3
:10022E0075080318750FF90776080318760FFA0785
:10023E0077080318770FFB07F30DFC0B0029720DDF
:10024E00F80DF90DFA0DFB0D7408731C3C29F8021C
:10025E007508031C750FF9027608031C760FFA0257
:10026E007708031C770FFB024929F8077508031856
:10027E00750FF90776080318760FFA077708031833
:10028E00770FFB07F20D0730FC00720DF80DF90D1C
:10029E00FA0DFB0D7408721C6229F8027508031C16
:1002AE00750FF9027608031C760FFA027708031C05
:1002BE00770FFB026F29F80775080318750FF907FA
:1002CE0076080318760FFA0777080318770FFB07DF
:1002DE00F20DFC0B4C29710DF80DF90DFA0DFB0DFD
:1002EE007408721C8829F8027508031C750FF90230
:1002FE007608031C760FFA027708031C770FFB02B1
:10030E009529F80775080318750FF907760803186D
:10031E00760FFA0777080318770FFB07F10D0730F2
:10032E00FC00710DF80DF90DFA0DFB0D7408711C22
:10033E00AE29F8027508031C750FF9027608031C26
:10034E00760FFA027708031C770FFB02BB29F8071A
:10035E0075080318750FF90776080318760FFA0754
:10036E0077080318770FFB07F10DFC0B9829700D1A
:10037E00F80DF90DFA0DFB0D7408711CD429F80255
:10038E007508031C750FF9027608031C760FFA0226
:10039E007708031C770FFB02E129F807750803188D
:1003AE00750FF90776080318760FFA077708031802
:1003BE00770FFB07F00D0730FC00700DF80DF90DEF
:1003CE00FA0DFB0D7408701CFA29F8027508031C4F
:1003DE00750FF9027608031C760FFA027708031CD4
:1003EE00770FFB02072AF80775080318750FF90730
:1003FE0076080318760FFA0777080318770FFB07AE
:10040E00F00DFC0BE42970181A2A7408F807750809
:10041E000318750FF90776080318760FFA07770891
:08042E000318770FFB0708001B
:1004360023009E18202A00001B2A260020082300DD
:040446009A00080010
:10044A00FB09FA09F909F809F80A0319F90A03195B
:08045A00FA0A0319FB0A08006D
:100462002600A003A0032008003C03183D2AA00395
:10047200000000000000342A00000000000000001C
:04048200000008006E
:100486002000F801F9011030FC00710DF80DF90D8E
:100496007408F8027508031C750FF90203185A2A26
:1004A6007408F80775080318750FF9070310F00D9F
:0804B600F10DFC0B482A0800BF
:1004BE0023001908F1009D1C662A1D121D167108D5
:0404CE00F000080032
:0C04D20000302000911A0130F0000800FA
:0C04DE00003023009E180130F0000800E0
:0C04EA0000302000911A0130F0000800E2
:0C04F600003023009E180130F0000800C8
:1005020023001908F1009D1C882A1D121D1671086E
:04051200F0000800ED
:1005160001302500E100210056082500E0062100F3
:1005260057088400580885005608003A03199E2A81
:1005360054088004A02A5508800553082600A00008
:1005460031222500E009250061080319C52A610842
:100556006005F000031DB32A210054088004B62A62
:100566002100550880052500E1350230210053029F
:100576002600A0003122000000000000000000005C
:100586000000A62A21005608003A0319CD2A55086C
:100596008005CF2A5408800453082600A000312283
:0205A60008004B
:1005A8002500E401053064020318E42A64086207A0
:1005B80086000030633D870020308100E40AD62A97
:1005C8006408620786000030633D87008101E40308
:1005D80064086207E5000030633DE6000A30F40075
:1005E800F5016008F0006108F10043227808F00086
:1005F8007908F1003030F0072500650886006608A4
:100608008700700881000A30F400F5016008F000E6
:100618006108F100432270082500E0007108E1003C
:1006280000307106031D1A2B00307006031D1D2BA8
:080638001F2BE403EC2A08006B
:10064000250060082100C400250061082100C500C4
:10065000250062082100C600250063082100C700AC
:10066000250064082100CE00250065082100CF0088
:10067000250066082100D000250067082100D10070
:10068000250068082100CA00250069082100CB0068
:1006900025006A082100CC0025006B082100CD0050
:1006A00025006C082100C00025006D082100C10054
:1006B00025006E082100C20025006F082100C3003C
:0206C000080030
:1006C20023009E1690309D002000911E6C2B23006B
:0806D2001908F000652B080077
:1006DA007408003A031D862B7508003A031D862B01
:1006EA007608003A031D862B7708003A031D862BED
:1006FA00FF30F000FF30F100FF30F2007F30F300EE
:10070A001E2C2000FC01F71BFC0AFD01FB01FA016B
:10071A00F901F80173087204710470040319192CA1
:10072A0073087706A000A01BFD09F71FA72BF40981
:10073A00F509F609F709F40A0319F50A0319F60A7D
:10074A000319F70AF31FB42BF009F109F209F309A7
:10075A00F00A0319F10A0319F20A0319F30A7308D2
:10076A007704A000A01BD52BEF20FC1BF22BFD1F4A
:10077A00192CF009F109F209F309F00A0319F10A2F
:10078A000319F20A0319F30AF809F909FA09FB0924
:10079A00F80A0319F90A0319FA0A0319FB0A192CA8
:1007AA00F71FEC2BF31BE62B7308FB007208FA0009
:1007BA007108F9007008F800F301F201F101F00183
:1007CA00BC2BF301F201F101F001F00A0034F30944
:1007DA00F209F109F009FC17B92BF80A0319F90A09
:1007EA000319FA0A0319FB0A74087802031DBC2BC1
:1007FA0075087902031DBC2B76087A02031DBC2BEF
:10080A0077087B02031DBC2BFB01FA01F901F801F1
:10081A00F00A0319F10A0319F20A0319F30AF31F7A
:10082A00BC2BA0012016FF34A0017C1C1D2C252204
:04083A00003E080074
:10083E0020002230FC00F801F901FA01FB01FC0353
:10084E000319542C0310FB0CFA0CF90CF80CF30CD6
:10085E00F20CF10CF00C031C262CFC030319462C95
:10086E007408F80775080318750FF907760803184A
:10087E00760FFA0777080318770FFB072A2C7408F0
:10088E00F80775080318750FF90776080318760F21
:0C089E00FA0777080318770FFB07080023
:1008AA002500E20160088400610885000008F00064
:1008BA007008031D7B2C6430620203187B2C6008CD
:1008CA008400610885000008F0007008031D7A2C76
:1008DA00E20A0530FB000F30FC00F130FD00FD0B91
:1008EA00742CFC0B742CFB0B742C572C60088400A2
:1008FA006108850000080319842CF001862C013058
:04090A00F0000800F1
:10090E002500E30160088400610885000008E2000C
:10091E006208003A0319A22C62082600A0001B22CE
:10092E002500E30A6308600784000030613D8500FE
:08093E000008E2008F2C080004
:0E0946000030F0007D30F100F201F3010800F6
:0E09540055303C008F00AA308F000F100800B5
:1009620081302500E0000230E1000030E20000307A
:10097200E300FF30E400FF30E500FF30E600FF3027
:10098200E7007530E8000230E9000030EA0000308C
:10099200EB007B30EC000230ED000030EE00003066
:0809A200EF002023612308008F
:1009AA00250049082100D70025004A082100D8005F
:1009BA0025004B08F0000130F20070080319E82CFA
:1009CA00F235FF3EE32C72082100D2007209C900F9
:1009DA0025004C08F1000130F00071080319F82CC9
:1009EA00F035FF3EF32C70082100D400F00970089E
:1009FA00D500803025004907840000304A3D850033
:100A0A0072088004700880052100D601250051086B
:100A1A000319112D2100D6092100803084025608BD
:100A2A00003A03191B2D550880051D2D5408800412
:100A3A00A324E830F4000330F500F601F7011F247F
:100A4A0070082500DC007108DD007208DE007308FA
:100A5A00DF005C08D2005D08D3005E08D4005F089E
:100A6A00D5004D08F0004E08F1004F08F20050087A
:100A7A00F300F035F10DF20DF30DF035F10DF20D35
:100A8A00F30D0A30F400F501F601F7011F2470088E
:100A9A002500D6007108D7007208D8007308D9005B
:100AAA007008F4007108F5007208F6007308F70080
:100ABA005C08F0005D08F1005E08F2005F08F300D0
:100ACA006D2370082500DA007108DB007108F40054
:100ADA00F501740875040319752D0230F000CB2D49
:100AEA005A082100D30025005608F4005708F500DB
:100AFA005808F6005908F7005208F0005308F100A8
:100B0A005408F2005508F3006D237808F0007908BC
:100B1A00F1007A08F2007B08F30070082500D20081
:100B2A007108D3007208D4007308D5005608F5007E
:100B3A005708F6005808F7005908F800F837F70C74
:100B4A00F60CF50C80307806F400803073067402D7
:100B5A00031DB92D72087702031DB92D710876029B
:100B6A00031DB92D700875020318BD2D2100D30A83
:100B7A0021005308F100F1367108C80007307102EC
:0E0B8A000318CA2D0130F000CB2DF001080039
:100B98002500CB01CC014908F3004A08F4004908B4
:100BA800F5004A08F60073088400740885000008F8
:100BB800203A031DE42D4B084C04031DE42DF52DAC
:100BC8000130CB000030CC00730884007408850025
:100BD800750886007608870000088100F50A031961
:100BE800F60A7308F1007408F200F30A0319F40A0C
:100BF80071088400720885000008003A031DD72D8B
:0A0C08004908F0004A08F100080056
:100C120025004908F4004A08F500740884007508A4
:100C2200850000080319192EF40A0319F50A0E2E7D
:100C32007408F2007508F300F40A0319F50A4B0868
:100C4200F0004C08F100CB0A0319CC0A70088400AA
:100C52007108850072088600730887000008810009
:100C6200720884007308850000080319392E192EB2
:0A0C72004908F0004A08F1000800EC
:0E0C7C0055303C008F00AA308F000F14080086
:100C8A002000FB01FA01F9018030F800F10CF00CA8
:100C9A00031C582E7408F90775080318750FFA070C
:100CAA000318FB0A0310F01F602E7408FA07750870
:100CBA000318750FFB07FB0CFA0CF90CF80C031C54
:100CCA004B2E7B08F3007A08F2007908F1007808C5
:040CDA00F00008001E
:0A0CDE0071088A0070088200080007
:100CE80025004908F4004A08F500740884007508CE
:100CF800850000080319842EF40A0319F50A792ED1
:100D08004D084E040319AC2E7408F2007508F30060
:100D1800F40A0319F50A4B08F0004C08F100CB0A55
:100D28000319CC0A700884007108850072088600CF
:100D38007308870000088100720884007308850022
:100D480000080319AC2E0130CD020030CE3B842EB2
:100D580000304E06031DB22E00304D06031DB92E7D
:100D6800740886007508870081014908F0004A0860
:040D7800F10008007E
:100D7C002500CF01D0014908D1004A08D2008030AB
:100D8C004A06F00080307002031DCE2E003049025E
:100D9C000318DC2E0130CF000030D0004908003C95
:100DAC00D1004A08031C013ED201D2025108E000D6
:100DBC005208E1004B08E2004C08E300D422063054
:100DCC00CD000030CE004E08003C031DEF2E4D0828
:100DDC00003C03180A2F4D084B0786004E084C3D6B
:100DEC00870001304D02F00000304E3BF1007008DE
:100DFC004B07840071084C3D8500000881000130D0
:100E0C00CD020030CE3BE92E4B0886004C08870003
:100E1C00203081004F0850040319302FCD01CE0132
:100E2C004D084B0784004E084C3D85000008203AC5
:100E3C00031D242FCD0A0319CE0A162F0130CD0223
:100E4C000030CE3B4D084B0786004E084C3D8700CA
:060E5C002D3081000800AA
:100E62002100AF0125004B0886004C088700810154
:100E72004908E0004A08E10087244B08E0004C08DA
:100E8200E100552470080319492F0130F0004A2F60
:040E9200F001080063
:100E96002500490884004A0885000008F100710809
:100EA600003A0319622F490884004A0885000008A1
:100EB600E0008B222500C90A0319CA0A4B2F080035
:100EC60025004908F4004A08F5007408F200750880
:100ED600F300F40A0319F50A4B08F0004C08F10078
:100EE600CB0A0319CC0A70088400710885007208C1
:100EF6008600730887000008810072088400730862
:100F0600850000080319882F682F4908F0004A0851
:040F1600F1000800DE
:100F1A00D2302500C9009730CA00A130CB0000307A
:100F2A00CC003127700803199D2F0130F0009E2F45
:040F3A00F0010800BA
:100F3E00F1302500C9009830CA00A130CB00003036
:100F4E00CC00312770080319AF2F0130F000B02FFD
:040F5E00F001080096
:100F620012001E00F003031DB12FF103031DB12F68
:020F7200080075
:0E0F740021004408F0004508F1006F26080037
:100F8200DE302500C9009730CA00A130CB00003006
:100F9200CC00312770080319D12F0130F000D42F73
:080FA2002000E501F001080048
:100FAA00E9302500C9009730CA00A130CB000030D3
:100FBA00CC00312770080319E52F0130F000E92F22
:0A0FCA0001302000E500F0010800EE
:10100000200063082500C900200064082500CA00EC
:10101000A130CB000230CC008031BE268831A13017
:10102000C9000230CA008031CC258831A930C900FE
:101030000230CA00A430CB000030CC0080316327DE
:101040008831A930C9000230CA00B030CB0000306E
:10105000CC001430CD000030CE00803174268831B1
:10106000A930C9000230CA00A230CB000030CC0049
:10107000803109268831A930C9000230CA00AD305C
:10108000CB000030CC008031312788317008031943
:101090004C280130F000BD282100A1012000660885
:1010A000313A031DA02855302500E0009830E100BA
:1010B000803187248831E030E0009830E1008031D1
:1010C000872488313C30E0000030E1008031872403
:1010D0008831B630E0009830E100803187248831D3
:1010E0003030E0000030E100803187248831BD30AD
:1010F000E0009830E1008031872488312430E0001E
:101100000030E100803187248831D230E00098300F
:10111000E100803187248831A130E0000230E10015
:101120008031872488310D302600A00080311B22B9
:1011300088311A302600A00080311B228831AE2869
:10114000D2302500E0008F30E100803187248831E3
:101150001A302600A00080311B228831A1302500E2
:10116000E0000030E1008031552488317008031917
:0C117000BC280230F000BD28F00108008F
:10117C002500A501A6019E30C9009830CA00A130F7
:10118C00CB000030CC008031312788317008031936
:10119C00D2280130F000EE29A101A2012508260475
:1011AC00031D4C290B3021002F02F100F2010030FD
:1011BC00F23B803025002206F0008030720670026F
:1011CC00031DEA287108210203184C298930F0000C
:1011DC002030F1002108700784002208713D850041
:1011EC000008F1007108433A031D4829013021071A
:1011FC00F2000030223DF3008930F0002030F10085
:10120C007208700784007308713D85000008F100B6
:10121C007108533A031D482902302107F2000030AF
:10122C00223DF3008930F0002030F1007208700785
:10123C0084007308713D85000008F1007108513A73
:10124C00031D482903302107F2000030223DF30032
:10125C008930F0002030F1007208700784007308A8
:10126C00713D85000008F10071083A3A031D4829C8
:10127C0005302107A3000030223DA4000130A50059
:10128C000030A600A10A0319A20AD42825082604B6
:10129C00031D53290230F000EE29A101A201803078
:1012AC002206F00080307002031D5E2903302102FB
:1012BC000318942921082307F2002208243DF30087
:1012CC008930F0002030F100720870078400730838
:1012DC00713D85000008F10071082C3A031994291E
:1012EC005D30210786000030223D8700210823074E
:1012FC00F2002208243DF3008930F0002030F10088
:10130C007208700784007308713D85000008F000B6
:10131C0070088100A10A0319A20A55295D30210722
:10132C0086000030223D8700810101302107F0004A
:10133C000030223DF1007008A3077108A43DA10103
:10134C00A20180302206F00080307002031DB0290B
:10135C00033021020318E62921082307F200220892
:10136C00243DF3008930F0002030F1007208700742
:10137C0084007308713D85000008F10071080D3A76
:10138C000319E6295830210786000030223D8700DA
:10139C0021082307F2002208243DF3008930F000D5
:1013AC002030F1007208700784007308713D8500CD
:1013BC000008F00070088100A10A0319A20AA729ED
:1013CC005830210786000030223D87008101F00152
:0213DC00080007
:1013DE00A2302500C9009730CA0080314B278831D2
:1013EE0021000C1122000C1121000E14F5302500E5
:1013FE00C9008F30CA00A130CB000030CC00803144
:10140E0031278831700803190F2A0130F000622A43
:10141E00DA30C9009630CA0080314B278831E63069
:10142E00C9009830CA00A130CB000030CC0080310A
:10143E003127883170080319272A0230F000622AFA
:10144E006230C9009730CA0080314B27883138305E
:10145E00C9009730CA00A130CB000030CC008031DB
:10146E0031278831700803193F2A0330F000622AB1
:10147E00EA30C9008730CA0080314B2788310B30E3
:10148E00C9009830CA00A130CB000030CC008031AA
:10149E003127883170080319572A0430F000622A68
:1014AE000A30C9009730CA0080314B27883101308D
:0814BE002000E500F001080028
:1014C6002500AE01A701A801A101A2010730210054
:1014D6002F02F100F2010030F23B80302500220697
:1014E600F000803072067002031D7B2A710821020B
:1014F6000318212B00302806031D832A00302706F7
:10150600031D212B8930F0002030F10021087007DF
:1015160084002208713D85000008F1007108433AF5
:10152600031D1D2B01302107F2000030223DF30080
:101536008930F0002030F1007208700784007308CB
:10154600713D85000008F1007108473A031D1D2B07
:1015560002302107F2000030223DF3008930F0000E
:101566002030F1007208700784007308713D850011
:101576000008F10071084E3A031D1D2B03302107A8
:10158600F2000030223DF3008930F0002030F100F7
:101596007208700784007308713D85000008F10029
:1015A6007108533A031D1D2B04302107F200003049
:1015B600223DF3008930F0002030F10072087007F8
:1015C60084007308713D85000008F1007108493AEE
:1015D600031D1D2B05302107F2000030223DF300CC
:1015E6008930F0002030F10072087007840073081B
:1015F600713D85000008F10071084E3A031D1D2B50
:1016060006302107F2000030223DF3008930F00059
:101616002030F1007208700784007308713D850060
:101626000008F1007108463A031D1D2B0130A70082
:101636000030A800A10A0319A20A692A0030280668
:10164600031D272B00302706031D2C2B0130F0002D
:10165600E62CA701A8012108A3002208A4008030D7
:101666002406F00080307002031D3D2B21002F0858
:101676002500230203185F2B00302806031D452B87
:1016860000302706031D5F2B8930F0002030F10063
:101696002308700784002408713D85000008F100C6
:1016A60071080D3A031D5B2B0130A7000030A8001E
:1016B600A30A0319A40A322B00302806031D652B42
:1016C60000302706031D6A2B0130F000E62C01309E
:1016D600A1020030A23B210821002F022500AB0009
:1016E6008930A9002030AA002108A9072208AA3DAE
:1016F6000830A1000030A2000130A3000030A40091
:1017060080302206F00080307002031D8C2B2B08DF
:1017160021020318BB2B8030F000803024067002B3
:10172600031D972B2308093C031CBB2B2108290703
:10173600840022082A3D850000082C3A031DA72BA9
:10174600A30A0319A40AB72B00302406031DAD2BE8
:1017560002302306031DB72B21082907840022081F
:101766002A3D85000008AE00A10A0319A20A832BB0
:101776002E08313A031DE42C0130AC00AD012000E7
:10178600E301E40108302500A1000030A200013089
:10179600A3000030A40080302206F00080307002E2
:1017A600031DD72B2B0821020318E22C8030F000F2
:1017B600803024067002031DE22B2308093C031C1B
:1017C600E22C21082907840022082A3D850000080A
:1017D6002C3A031DF62BA30A0319A40AA501A60198
:1017E6000130AC00DD2C00302406031DFC2B01303B
:1017F6002306031D082C21082907840022082A3DF8
:10180600850000082100AE00DD2C003025002406EE
:10181600031D0F2C02302306031D1B2C210829074C
:10182600840022082A3D850000082000E600DD2C01
:10183600003025002406031D222C03302306031D39
:101846005A2C21082907840022082A3D85003030B9
:101856000002031C4D2C21082907840022082A3D7A
:1018660085000008393C031C4D2C2D08003A031D49
:101876004D2C3C30250786000030263D8700210888
:101886002907840022082A3D850000088100A50A50
:101896000319A60A21082907840022082A3D850083
:1018A60000082E3A031D592C0130AD00DD2C003006
:1018B6002406031D602C04302306031D742C3030CF
:1018C600250786000030263D870021082907840069
:1018D60022082A3D850000088100A50A0319A60AE8
:1018E600DD2C00302406031D7A2C05302306031D4B
:1018F6008E2C2430250786000030263D87002108DF
:101906002907840022082A3D850000088100A50ACF
:101916000319A60ADD2C00302406031D942C06307C
:101926002306031DDD2C21082907840022082A3DF1
:10193600850030300002031CD12C210829078400C1
:1019460022082A3D85000008393C031CD12C2C08AE
:101956000319D12C20006308F0006408F1000A3056
:10196600F4000030F5008031452688317008E30028
:101976007108E400250021082907840022082A3D71
:10198600850030300002F200F3010030F33B7208AC
:1019960070072000E3007308713DE400250021086C
:1019A6002907840022082A3D850000082E3A031DD7
:1019B600DD2CAC012500A10A0319A20ACE2BF001E9
:0819C600E62C0130F0000800DE
:1019CE002500A501A6014130C9009830CA00A130FA
:1019DE00CB000030CC0080313127883170080319DC
:1019EE00FB2C0130F000162EA101A20125082604C1
:1019FE00031D8B2D0D3021002F02F100F20100305E
:101A0E00F23B803025002206F00080307206700214
:101A1E00031D132D7108210203188B2D8930F00040
:101A2E002030F1002108700784002208713D8500E6
:101A3E000008F1007108433A031D872D013021077C
:101A4E00F2000030223DF3008930F0002030F1002A
:101A5E007208700784007308713D85000008F1005C
:101A6E0071084D3A031D872D02302107F200003018
:101A7E00223DF3008930F0002030F100720870072B
:101A8E0084007308713D85000008F1007108543A16
:101A9E00031D872D03302107F2000030223DF30095
:101AAE008930F0002030F10072087007840073084E
:101ABE00713D85000008F1007108453A031D872D20
:101ACE0004302107F2000030223DF3008930F0008F
:101ADE002030F1007208700784007308713D850094
:101AEE000008F10071083A3A031D872D06302107D0
:101AFE00A3000030223DA4000130A5000030A60056
:101B0E00A10A0319A20AFD2C25082604031D922DF5
:101B1E000230F000162E80302406F0008030700265
:101B2E00031D9D2D21002F08250023020318B32D20
:101B3E008930F0002030F10023087007840024085B
:101B4E00713D85000008F10071082C3A0319B32D80
:101B5E00A30A0319A40A922D063021002F02F100C8
:101B6E00F2010030F23B80307206F000803025002A
:101B7E0024067002031DC52D230871020318CA2DF9
:101B8E000230F000162EA30A0319A40AA101A20125
:101B9E0080302206F00080307002031DD82D0530F3
:101BAE00210203180E2E21082307F2002208243DDD
:101BBE00F3008930F0002030F100720870078400C5
:101BCE007308713D85000008F10071080D3A031984
:101BDE000E2E5030210786000030223D870021084E
:101BEE002307F2002208243DF3008930F000203054
:101BFE00F1007208700784007308713D85000008BB
:101C0E00F00070088100A10A0319A20ACF2D5030EE
:101C1E00210786000030223D87008101F001080077
:101C2E002500A501A601AE30C9009830CA00A1302A
:101C3E00CB000030CC008031312788317008031979
:101C4E002B2E0130F0006B2FA101A20125082604D6
:101C5E00031DA52E0E3021002F02F100F2010030DF
:101C6E00F23B803025002206F000803072067002B2
:101C7E00031D432E710821020318A52E8930F00092
:101C8E002030F1002108700784002208713D850084
:101C9E000008F1007108433A031DA12E01302107FF
:101CAE00F2000030223DF3008930F0002030F100C8
:101CBE007208700784007308713D85000008F100FA
:101CCE007108423A031DA12E02302107F2000030A6
:101CDE00223DF3008930F0002030F10072087007C9
:101CEE0084007308713D85000008F1007108433AC5
:101CFE00031DA12E03302107F2000030223DF30018
:101D0E008930F0002030F1007208700784007308EB
:101D1E00713D85000008F10071083A3A031DA12EAD
:101D2E0005302107A3000030223DA4000130A5009C
:101D3E000030A600A10A0319A20A2D2E250826049A
:101D4E00031DAC2E0230F0006B2F80302406F00005
:101D5E0080307002031DB72E21002F0825002302AC
:101D6E000318CD2E8930F0002030F10023087007C3
:101D7E0084002408713D85000008F10071082C3A9A
:101D8E000319CD2EA30A0319A40AAC2E0730210085
:101D9E002F02F100F2010030F23B80307206F000AB
:101DAE008030250024067002031DDF2E23087102E9
:101DBE000318E42E0330F0006B2FA30A0319A40AB4
:101DCE0080302406F00080307002031DF22E2100B8
:101DDE002F08250023020318082F8930F000203029
:101DEE00F1002308700784002408713D8500000867
:101DFE00F10071082C3A0319082FA30A0319A40A3B
:101E0E00E72E053021002F02F100F2010030F23BE7
:101E1E0080307206F0008030250024067002031D0B
:101E2E001A2F2308710203181F2F0430F0006B2F96
:101E3E00A30A0319A40AA101A20180302206F00010
:101E4E0080307002031D2D2F043021020318632FE2
:101E5E0021082307F2002208243DF3008930F00008
:101E6E002030F1007208700784007308713D850000
:101E7E000008F10071080D3A0319632F673021072E
:101E8E0086000030223D870021082307F200220839
:101E9E00243DF3008930F0002030F1007208700705
:101EAE0084007308713D85000008F0007008810001
:101EBE00A10A0319A20A242F6730210786000030D9
:0A1ECE00223D87008101F0010800A9
:101ED8001F30210097008B13FF308C00FF308E00DD
:101EE80022008C018E0123008C018E0122009113A7
:101EF800931321008E1220008E1221000E12200052
:101F08000E1221008E140E118031AA24883132005D
:101F1800951211303C00A40014303D00A20080311D
:101F28003E26883123009F1540309B0003309C00DB
:101F38001E158031B12488310530FB000F30FC00BC
:101F4800F130FD00FD0BA62FFC0BA62FFB0BA62FD7
:101F580021009116200091120C302500C900003094
:101F6800CA000530CB000430CC008030CD002530CD
:101F7800CE00CF01D001D1018031D5248831053080
:101F8800FB000F30FC00F130FD00FD0BC92FFC0BEE
:0C1F9800C92FFB0BC92F0B178B1708007B
:102000002000FB01FA01F901F801A001730DF80DA0
:102010007408F8027508031C750FF9027608031C92
:10202000760FFA027708031C770FFB020001031CEE
:102030000130A002F30D0730FC00730DF80DF90D0F
:10204000FA0DFB0DA00D7408731C3828F8027508F2
:10205000031C750FF9027608031C760FFA02770845
:10206000031C770FFB020001031C0130A00249286A
:10207000F80775080318750FF90776080318760F27
:10208000FA0777080318770FFB07000103180130E0
:10209000A007F30DFC0B1D28720DF80DF90DFA0DBC
:1020A000FB0DA00D7408731C6728F8027508031C4B
:1020B000750FF9027608031C760FFA027708031CE5
:1020C000770FFB020001031C0130A0027828F807FB
:1020D00075080318750FF90776080318760FFA07C5
:1020E00077080318770FFB07000103180130A007DA
:1020F000F20D0730FC00720DF80DF90DFA0DFB0D15
:10210000A00D7408721C9628F8027508031C750F40
:10211000F9027608031C760FFA027708031C770F82
:10212000FB020001031C0130A002A728F807750874
:102130000318750FF90776080318760FFA07770862
:102140000318770FFB07000103180130A007F20DF9
:10215000FC0B7B28710DF80DF90DFA0DFB0DA00D90
:102160007408721CC528F8027508031C750FF90263
:102170007608031C760FFA027708031C770FFB0220
:102180000001031C0130A002D628F80775080318C7
:10219000750FF90776080318760FFA077708031802
:1021A000770FFB07000103180130A007F10D07307E
:1021B000FC00710DF80DF90DFA0DFB0DA00D740862
:1021C000711CF428F8027508031C750FF9027608D3
:1021D000031C760FFA027708031C770FFB0200013D
:1021E000031C0130A0020529F80775080318750FB4
:1021F000F90776080318760FFA0777080318770FA0
:10220000FB07000103180130A007F10DFC0BD928D2
:10221000700DF80DF90DFA0DFB0DA00D7408711C71
:102220002329F8027508031C750FF9027608031CB0
:10223000760FFA027708031C770FFB020001031CDC
:102240000130A0023429F80775080318750FF90743
:1022500076080318760FFA0777080318770FFB073D
:10226000000103180130A007F00D0730FC00700DCD
:10227000F80DF90DFA0DFB0DA00D7408701C522914
:10228000F8027508031C750FF9027608031C760F17
:10229000FA027708031C770FFB020001031C0130D0
:1022A000A0026329F80775080318750FF907760867
:1022B0000318760FFA0777080318770FFB0700015A
:1022C00003180130A007F00DFC0B37297018762990
:1022D0007408F80775080318750FF90776080318CE
:0E22E000760FFA0777080318770FFB07080040
:1022EE0068302500C9009830CA00A130CB000030FC
:1022FE00CC008031312790317008031989290130C3
:10230E00F000762AA301A401A101A2010030240647
:10231E00031D932900302306031D122A8030220646
:10232E00F00080307002031DA02921002F08250027
:10233E0021020318122A8930F0002030F100210802
:10234E00700784002208713D85000008F1007108B5
:10235E002B3A031D0E2A01302107F2000030223DD8
:10236E00F3008930F0002030F1007208700784000D
:10237E007308713D85000008F1007108433A031D92
:10238E000E2A02302107F2000030223DF300893080
:10239E00F0002030F1007208700784007308713D60
:1023AE0085000008F10071084C3A031D0E2A033017
:1023BE002107F2000030223DF3008930F00020307A
:1023CE00F1007208700784007308713D85000008E3
:1023DE00F1007108433A031D0E2A04302107F20062
:1023EE000030223DF3008930F0002030F1007208F9
:1023FE00700784007308713D85000008F1007108B4
:10240E00433A031D0E2A0130A3000030A400A10A96
:10241E000319A20A8D290130A1020030A23B210826
:10242E0021002F022500A9008930A7002030A80026
:10243E002108A7072208A83D0730A1000030A200FE
:10244E000130A3000030A40080302206F00080305E
:10245E007002031D342A290821020318752A8030C0
:10246E00F000803024067002031D3F2A2308063C2C
:10247E00031C752A2108270784002208283D8500A1
:10248E0000082C3A031D512AA30A0319A40AA50118
:10249E00A601712A00302406031D572A0630230692
:1024AE00031D712AB030250786000030263D8700B7
:1024BE002108270784002208283D85000008810096
:1024CE00A50A0319A60AB030250786000030263D5E
:1024DE0087008101A10A0319A20A2B2AF001080024
:1024EE009831042190312400EC01ED01EE01EF0151
:1024FE002500A00188316C27903120000E167A300D
:10250E00FB00C130FC008130FD00FD0B8C2AFC0B62
:10251E008C2AFB0B8C2A000000006F302500C900AE
:10252E009730CA0080314B279031E430C9008F308C
:10253E00CA0080314B2790319830C9009630CA00BE
:10254E0080314B27903120008E1664008831EF21A8
:10255E00903170082500A00020080319C42A3730D6
:10256E00C9009830CA0080314B2790318831EF2155
:10257E00903170082500A000B32A20008E1264004E
:10258E000E1220006400620803194F2B0E164B30FA
:10259E002500C9009830CA0080314B279031163083
:1025AE00C9009830CA0080314B27903177217008CE
:1025BE00A00020080319F52A8C30C9009830CA00F3
:1025CE0080314B2790318930C9009730CA00803155
:1025DE004B27903177217008A000E02A6400B030BC
:1025EE00C9000030CA0080314B279031F430C90049
:1025FE009730CA0080314B27903180319F27903120
:10260E007008A00020080319202B5F30C9009830F5
:10261E00CA0080314B2790312130C9009830CA0052
:10262E0080314B27903180319F2790317008A00068
:10263E00092B64002C30C9009830CA0080314B271A
:10264E00903188310020903170082500A0002008BC
:10265E000319462B8330C9009830CA0080314B27AE
:10266E0090310030C9009830CA0080314B2790312C
:10267E0088310020903170082500A0002E2B0D30DF
:10268E00E00080318B22903164002000E2010E12B6
:10269E001430F400F501F601F70124006C08F00087
:1026AE006D08F1006E08F2006F08F3000020780844
:1026BE00F0007908F1007A08F2007B08F300003090
:1026CE00F4007306031D752B74087206031D752B1B
:1026DE0074087106031D752B7008003A031DAB2B91
:1026EE007C302500C9009730CA0080314B279031CD
:1026FE0080318D2790317008A0007008031D9D2B2E
:10270E00C630C9009730CA0080314B2790318831CE
:10271E0063229031700803199C2BEA302500C90002
:10272E009630CA0080314B279031A52B2500713091
:10273E00C9009830CA0080314B27903125000D30EA
:10274E00E00080318B2290311430F400F501F60157
:10275E00F70124006C08F0006D08F1006E08F2001D
:10276E006F08F30000207808F0007908F1007A086D
:10277E00F2007B08F3000030F4007306031DD12B2A
:10278E0074087206031DD12B74087106031DD12B1C
:10279E007008003A031DEF2BBA302500C9009730A0
:1027AE00CA0080314B2790318831BE20903170089D
:1027BE00A00070080319EA2BD930C9009830CA005E
:1027CE0080314B2790310D30E00080318B229031DB
:1027DE001430F400F501F601F70124006C08F00046
:1027EE006D08F1006E08F2006F08F3000020780803
:1027FE00F0007908F1007A08F2007B08F30000304F
:10280E00F4007306031D152C74087206031D152C97
:10281E0074087106031D152C7008003A031D332C25
:10282E00AE302500C9009730CA0080314B27903159
:10283E008831E72490317008A000700803192E2CFF
:10284E00C430C9009830CA0080314B2790310D300A
:10285E00E00080318B2290311430F400F501F60146
:10286E00F70124006C08F0006D08F1006E08F2000C
:10287E006F08F30000207808F0007908F1007A085C
:10288E00F2007B08F3000030F4007306031D592C90
:10289E0074087206031D592C74087106031D592CF9
:1028AE007008003A031D772C96302500C90097302A
:1028BE00CA0080314B27903188311726903170082D
:1028CE00A00070080319722CCB30C9009830CA00D2
:1028DE0080314B2790310D30E00080318B229031CA
:1028EE0020006608313A031DF12C65080319B62C39
:1028FE008030133AF000803064067002031D892C7C
:10290E006308883C0318B62C29302500C90097307F
:10291E00CA0080314B2790318031C1279031700829
:10292E002500A00020080319B12C9530C90098305D
:10293E00CA0080314B2790311A30C9009730CA0037
:10294E0080314B2790318031C1279031700825009E
:10295E00A000992C0D30E00080318B2290312000A8
:10296E006508031DF12C80306406F0008030113AAA
:10297E007002031DC42C943063020318F12C5430E2
:10298E002500C9009730CA0080314B279031803125
:10299E00D527903170082500A00020080319EC2CD3
:1029AE007A30C9009830CA0080314B2790314630BA
:1029BE00C9009730CA0080314B2790318031D5271E
:1029CE00903170082500A000D42C0D30E00080312D
:1029DE008B2290311430F400F501F601F70124003A
:1029EE006C08F0006D08F1006E08F2006F08F3003D
:1029FE0000207808F0007908F1007A08F2007B08D0
:102A0E00F3000030F4007306031D172D74087206D0
:102A1E00031D172D74087106031D172D7008003A3B
:102A2E00031D1C2D20008E161E2D20008E1201302F
:102A3E002400EC070030ED3DEE3DEF3D0530FB0090
:102A4E000F30FC00F130FD00FD0B2B2DFC0B2B2D60
:102A5E00FB0B2B2D1430F400F501F601F7016C0879
:102A6E00F0006D08F1006E08F2006F08F300002010
:102A7E007808F0007908F1007A08F2007B08F3007C
:102A8E000030F4007306031D562D74087206031DE4
:102A9E00562D74087106031D562D7008003A031D3D
:102AAE00492EA6302500C9009830CA0080314B2728
:102ABE00903120006608313A031DF12D6308250080
:102ACE00C900200064082500CA006430CB00023023
:102ADE00CC008031BE2690316430C9000230CA006D
:102AEE008031CC2590312400E3013C30840000304D
:102AFE008500630884070318850A0008003A031945
:102B0E00C82D6308043A0319952D6308063A031974
:102B1E00952D6308083A0319952D9B2D2E3025000F
:102B2E00E00080318B22903124006308083A031DA7
:102B3E00A62D20302500E00080318B22903124001C
:102B4E0063080A3A0319B02D63080C3A0319B02D25
:102B5E00B62D3A302500E00080318B2290313C308A
:102B6E008400003085002400630884070318850A5A
:102B7E0000082500E00080318B2290312400E30A0A
:102B8E007C2D2C302500E00080318B2290313030AE
:102B9E002500C9000030CA0080314B2790312C30FF
:102BAE00E00080318B22903124302500C9000030A6
:102BBE00CA0080314B2790312C30E00080318B22BF
:102BCE00903164302500C9000230CA0080314B2795
:102BDE009031F92D2500FF30C9009830CA008031A0
:102BEE004B279031200065080319062EFB30250077
:102BFE00C9009830CA0080314B2790310E2E250027
:102C0E00EC30C9009830CA0080314B2790312C30FF
:102C1E00E00080318B2290315D302500C9000030FC
:102C2E00CA0080314B2790312C30E00080318B224E
:102C3E00903158302500C9000030CA0080314B2732
:102C4E0090312C30E00080318B22903150302500B5
:102C5E00C9000030CA0080314B2790312C30E00083
:102C6E0080318B22903167302500C9000030CA00B8
:102C7E0080314B279031F630C9009830CA00803130
:082C8E004B279031C82A4A2EA1
:103208004C308400963085004C30F0000130F100DD
:1032180024308600003087008031B1279831FA3099
:103228008400963085001030F0000130F100A030A5
:0E3238008600003087008031B12798310800F1
:100FD4000D340A342034203420342B344334473441
:100FE4004E3453345034573452343D343134203435
:060FF4004F344B340034C1
:101FA4004E346F342034763461346C3469346434A0
:101FB40020346634693478342034793465347434A4
:041FC4000D340034A4
:101FC8000D340A3444346134743461342034663452
:101FD8006F3472346D34613474343A340D340A34E5
:021FE8000034C3
:101FEA00413454342B344334463455344E343D341E
:061FFA0031340D34003407
:102C9800303400340034003400340034003400345C
:082CA800003400340034003454
:102CB0003034003400340034003400340034003444
:082CC00000340034003400343C
:102CC800303400340034003400340034003400342C
:102CD800003400340034003400340034003400344C
:082CE800003400340034003414
:102CF0002D343134003400340034003400340034D6
:0A2D00002D34313400340034003467
:0A2D0A002D3431340034003400345D
:022D1400003489
:042D16000034003451
:022D1A00003483
:022D1C00303451
:102D1E002D343134003400340034003400340034A7
:022D2E0000346F
:102D300044344134543441343A34543469346D3475
:102D400065342C344C34613474342C344C346F344A
:102D50006E342C3441346C34743428346D3429345A
:102D60002C34473453344D345F3473347434613409
:102D7000743465342C3452345334533449342C3441
:102D80004234453452342C34543465346D34703408
:102D90002834433429342C3456345F34423461347B
:102DA000743428346D34563429340D340A340D34D7
:042DB0000A340034AD
:102DB4000D340A342034203420342B344334463444
:102DC40055344E343D34313420344F344B34003494
:102DD4002034423455344634463445345234203455
:102DE40049344E34563441344C3449344434003438
:022DF4000034A9
:022DF6000034A7
:042DF8000D34003462
:102DFC00413454342B3443344D34473453343D3400
:022E0C00003490
:022E0E0000348E
:022E100030345C
:022E120000348A
:102E14002034203420342B3443344D344734463466
:102E24003D34313420344F344B340D340A340034BF
:102E34000D340A34673473346D345F3470346F3452
:0E2E44007734653472346F346634663400348B
:102E52000D340A34673473346D345F3470346F3434
:0E2E62007734653472346F346634663400346D
:102E7000413454342B34433447344E345334503477
:0C2E8000573452343D3431340D340034EA
:102E8C000D340A34673473346D345F3470346F34FA
:0C2E9C007734653472346F346E340034C7
:102EA8000D340A34673473346D345F3470346F34DE
:0C2EB8007734653472346F346E340034AB
:102EC4000D340A342034203420344134543445340D
:0A2ED400303420344F344B34003406
:102EDE000D340A3450344F34573445345234203480
:0A2EEE004F344E340D340A34003422
:102EF8006734653474345F346734703473345F34E2
:0A2F08006434613474346134003421
:102F12000D340A346734653474345F346E34753476
:0A2F22006D346234653472340034FB
:102F2C000D340A3472346534613464345F3476346D
:082F3C00623461347434003486
:102F440066346F346E3461345F3469346E3469349A
:082F54007434283429340034E0
:102F5C000D340A3472346534613464345F3474343F
:082F6C0065346D34703400344B
:102F74000D340A3472346534613464345F34723429
:082F8400733473346934003426
:102F8C000D340A346734703473345F347034613404
:082F9C00723473346534003413
:102FA400413454342B34433447344E345334493449
:082FB4004E3446340D340034A4
:102FBC00413454342B344334463455344E343D343C
:062FCC0030340D34003426
:102FD200413454342B344334463455344E343D3426
:062FE20031340D3400340F
:102FE8000D340A3465346E3464345F3463346134C8
:062FF8006C346C3400345F
:103000000D340A34733465346E3464345F3473348D
:063010006D34733400343E
:10301600413454342B3443344D34473446343D34F0
:0630260031340D340034CA
:10302C006734653474345F346E3475346D346234A3
:06303C006534723400341B
:103042000D340A3465346E3464345F34633461346D
:063052006C346C34003404
:103058000D340A34733465346E3464345F34733435
:063068006D3473340034E6
:10306E00543449344D3445344F34553454340D347E
:04307E000A340034DC
:10308200413454342B3443344D34543445343F3476
:043092000D340034C5
:10309600523449344E34473449344E3447340D346F
:0430A6000A340034B4
:1030AA004C3461347334743420346634693478347B
:0430BA000D3400349D
:1030BE002034543449344D3445344F34553454341B
:0230CE000034CC
:1030D000413454342B3443344C34433443340D346E
:0230E0000034BA
:1030E2002034543449344D3445344F3455345434F7
:0230F2000034A8
:1030F4002034543449344D3445344F3455345434E5
:02310400003495
:103106002034543449344D3445344F3455345434D2
:02311600003483
:103118002034543449344D3445344F3455345434C0
:02312800003471
:10312A002034543449344D3445344F3455345434AE
:02313A0000345F
:10313C00413454342B344334533451340D3400342F
:10314C000D340A3444344134543441343A34003468
:10315C00413454342B344334423443340D3400342E
:0E316C000D344C34413454343A3420340034A1
:0E317A000D344C344F344E343A34203400348B
:0E31880020344534523452344F345234003423
:0E31960020344534523452344F345234003415
:0E31A4000D3441344C3454343A342034003469
:0E31B20020344534523452344F3452340034F9
:0C31C0005534543443343A342034003485
:0C31CC0041345434453430340D340034A8
:0A31D8002C344F34463446340034E2
:0A31E2004134543448340D340034F5
:0A31EC000D340A340D340A340034A7
:0831F6002C344F344E34003438
:0831FE002C342C342C34003475
:020000040001F9
:08000E0004292E3A030003004F
:00000001FF
