:04000000983100280B
:1000080070084001A3007108A2007208A1008031A5
:100018004E018F1EC7288030F0008030003A7002F1
:10002800031D1928F930410120020318C72842018D
:100038001908F2008430F0002030F1004101200856
:10004800700786000030713D870072088100932890
:1000580072084F3A031D33280130A100472872085F
:10006800453A031D3A280230A10047287208523A3F
:10007800031D41280630A100472872083E3A031D97
:1000880047280130AF00B82872084B3A031D4F28A3
:1000980001304001CA004101A101B8287208523A52
:1000A800031D59280330A1005A28A101B828720855
:1000B800523A031D62280430A1006328A101B82820
:1000C80072084F3A031D6B280530A1006C28A10166
:1000D800B8287208523A031D73280130A200A10102
:1000E800B8287208493A031D7C280730A1007D28EA
:1000F800A101B82872084E3A031D85280830A100CE
:100108008628A101B8287208473A031D8E280130B5
:100118004001D7004101A101B828A101B828210850
:10012800003A03192C282108013A03194828210804
:10013800023A031952282108033A03195B282108B7
:10014800043A031964282108053A03196D2821087F
:10015800063A031975282108073A03197E28210849
:10016800083A031987289128200AF0007008A0008F
:100178008430F0002030F10020087007860000303D
:10018800713D8700810140012308F0002208F10039
:060198002108F20009003D
:10019E0042019E18D4280000CF28460129084201AA
:0401AE009A000800AB
:1001B20054019E18DE280000D9284601290854015E
:0401C2009A00080097
:0A01C60046012808A900CF20080018
:0A01D00046012808A900CF2008000E
:0A01DA0046012808A900D9200800FA
:0A01E40046012808A900D9200800F0
:0A01EE0071088A0070088200080002
:0E01F80055307D018F00AA308F000F140800D3
:0E02060055307D018F00AA308F000F100800C8
:1002140046012408053C031814291030240203184D
:10022400142919292408153C031C19291B29F00138
:10023400ED2A2508003A031D9629270803192329C6
:1002440003216029460126087E0190009129460178
:1002540026087E0191009129460126087E0192001C
:100264009129460126087E0193009129460126081A
:100274007E0194009129460126087E01950091296A
:10028400460126087E01A0009129460126087E0128
:10029400A1009129460126087E01A2009129460168
:1002A40026087E01A3009129460126087E01A400A8
:1002B4009129460126087E01A500912946012408BA
:1002C400003A031924292408013A03192929240886
:1002D400023A03192E292408033A0319332924085E
:1002E400043A031938292408053A03193D29240836
:1002F400103A031942292408113A031947292408FA
:10030400123A03194C292408133A031951292408D1
:10031400143A031956292408153A03195B2946018E
:10032400270803199629FC2046012508013A031DD4
:100334005A2A270803199F290321042A460124085D
:100344007D019000552A460124087D019100552A1B
:10035400460124087D019200552A460124087D01A6
:100364009300552A460124087D019C00552A460124
:1003740024087D01A100552A460124087D01A2001C
:10038400552A460124087D01B100552A4601240856
:100394007D01BB00552A460124087D01BC00552A75
:1003A400460124087D01BD00552A460124087D012B
:1003B400BE00552A460124087D01C300552A460182
:1003C40024087D01C500552A460124087D01C60084
:1003D400552A460124087D01C700552A46012408F0
:1003E4007D01CB00552A460124087D01CC00552A05
:1003F400460124087D01CD00552A460124087D01CB
:10040400CE00552A46012608003A0319A0292608D9
:10041400013A0319A5292608023A0319AA2926082C
:10042400033A0319AF292608043A0319B429260804
:10043400053A0319B9292608063A0319BE292608DC
:10044400073A0319C3292608083A0319C8292608B4
:10045400093A0319CD2926080A3A0319D22926088C
:100464000B3A0319D72926080C3A0319DC29260864
:100474000D3A0319E12926080E3A0319E62926083C
:100484000F3A0319EB292608103A0319F029260814
:10049400113A0319F5292608123A0319FA292608EC
:1004A400133A0319FF294601270803195A2AFC2085
:1004B400BE2A46012518612A40011210632A400110
:1004C4001214EB2A460125186A2A400192106C2A5C
:1004D40040019214EB2A46012518732A4001121197
:1004E400752A40011215EB2A460125187C2A400181
:1004F40012127E2A40011216EB2A46012518852A7B
:1005040040019212872A40019216EB2A46012518CF
:100514008E2A40011410902A40011414EB2A46013B
:100524002518972A40019410992A40019414EB2A23
:1005340046012518A02A40011411A22A40011415CD
:10054400EB2A46012518A92A40019411AB2A40013F
:100554009415EB2A46012518B22A40011412B42A34
:1005640040011416EB2A46012518BB2A40019412B7
:10057400BD2A40019416EB2A46012408003A0319C7
:100584005B2A2408013A0319642A2408023A03194D
:100594006D2A2408043A0319762A2408053A031913
:1005A4007F2A2408103A0319882A2408113A0319C7
:1005B400912A2408123A03199A2A2408133A03198F
:1005C400A32A2408143A0319AC2A2408153A031957
:0805D400B52AFF30F000080019
:1005DC004101490886004A08870046012408810029
:1005EC00413141014708F0004808F100F7200800AC
:1005FC007408F8027508031C750FF9027608031CC1
:10060C00760FFA027708031C770FFB02F30D073005
:10061C00FC00730DF80DF90DFA0DFB0D7408731C2D
:10062C00252BF8027508031C750FF9027608031CBC
:10063C00760FFA027708031C770FFB02322BF807B0
:10064C0075080318750FF90776080318760FFA0763
:10065C0077080318770FFB07F30DFC0B0F2B720DAC
:10066C00F80DF90DFA0DFB0D7408731C4B2BF802E9
:10067C007508031C750FF9027608031C760FFA0235
:10068C007708031C770FFB02582BF8077508031823
:10069C00750FF90776080318760FFA077708031811
:1006AC00770FFB07F20D0730FC00720DF80DF90DFA
:1006BC00FA0DFB0D7408721C712BF8027508031CE3
:1006CC00750FF9027608031C760FFA027708031CE3
:1006DC00770FFB027E2BF80775080318750FF907C7
:1006EC0076080318760FFA0777080318770FFB07BD
:1006FC00F20DFC0B5B2B710DF80DF90DFA0DFB0DCA
:10070C007408721C972BF8027508031C750FF902FC
:10071C007608031C760FFA027708031C770FFB028E
:10072C00A42BF80775080318750FF907760803183A
:10073C00760FFA0777080318770FFB07F10D0730D0
:10074C00FC00710DF80DF90DFA0DFB0D7408711C00
:10075C00BD2BF8027508031C750FF9027608031CF3
:10076C00760FFA027708031C770FFB02CA2BF807E7
:10077C0075080318750FF90776080318760FFA0732
:10078C0077080318770FFB07F10DFC0BA72B700DE7
:10079C00F80DF90DFA0DFB0D7408711CE32BF80222
:1007AC007508031C750FF9027608031C760FFA0204
:1007BC007708031C770FFB02F02BF807750803185A
:1007CC00750FF90776080318760FFA0777080318E0
:1007DC00770FFB07F00D0730FC00700DF80DF90DCD
:1007EC00FA0DFB0D7408701C092CF8027508031C1B
:1007FC00750FF9027608031C760FFA027708031CB2
:10080C00770FFB02162CF80775080318750FF907FC
:10081C0076080318760FFA0777080318770FFB078B
:10082C00F00DFC0BF32B7018292C7408F8077508C5
:10083C000318750FF90776080318760FFA0777086F
:08084C000318770FFB070800F9
:10085400FB09FA09F909F809F80A0319F90A03194D
:08086400FA0A0319FB0A08005F
:10086C004001F801F9011030FC00710DF80DF90D83
:10087C007408F8027508031C750FF90203184D2C47
:10088C007408F80775080318750FF9070310F00DB5
:08089C00F10DFC0B3B2C0800E0
:1008A4004601A30120088400210885000008A20055
:1008B4002208003A03196C2C2208A400EE224601F7
:1008C400A30A2308200784000030213D8500000886
:0608D400A2005A2C0800EE
:1008DA004601A003A0032008003C0318792CA003BA
:1008EA00000000000000702C000000000000000062
:0408FA0000000800F2
:1008FE0046012008A4002108A5002208A600013008
:06090E00A7000A21080009
:10091400450160084101C100450161084101C2006F
:10092400450162084101C300450163084101C40057
:10093400450164084101C700450165084101C8003B
:10094400450166084101C900450167084101CA0023
:10095400450168084101CB00450169084101CC000B
:1009640045016A084101CD0045016B084101CE00F3
:1009740045016C084101CF0045016D084101D000DB
:1009840045016E084101D10045016F084101D200C3
:02099400080059
:1009960042019E1690309D004E018F1ED62C4201BC
:0809A6001908F000CF2C080035
:1009AE004501E401053064020318E72C6408620770
:1009BE0086000030633D870020308100E40AD92C88
:1009CE006408620786000030633D87008101E403FE
:1009DE0064086207E5000030633DE6000A30F4006B
:1009EE00F5016008F0006108F10036247808F00087
:1009FE007908F1003030F007450165088600660879
:100A0E008700700881000A30F400F5016008F000DC
:100A1E006108F100362470084501E0007108E1001C
:100A2E0000307106031D1D2D00307006031D202D94
:080A3E00222DE403EF2C080057
:100A460001304501E100440160084501E00644012A
:100A560061088400620885006008003A0319362D93
:100A66005E088004382D5F08800541015308460161
:100A7600A0006D244501E0094501610803195E2DBA
:100A860061086005F000031D4C2D44015E088004DA
:100A96004F2D44015F0880054501E13502304101D3
:100AA60053024601A0006D24000000000000000073
:100AB600000000003F2D44016008003A0319662D2E
:100AC6005F088005682D5E088004410153084601D1
:060AD600A0006D240800E1
:100ADC0014304601A000A1010F30A2007F24153074
:100AEC004601A0000130A1001030A2007F24032198
:080AFC0040019416FC200800E3
:0E0B04000030F0007D30F100F201F301080036
:100B120040012230FC00F801F901FA01FB01FC035B
:100B22000319BE2D0310FB0CFA0CF90CF80CF30C94
:100B3200F20CF10CF00C031C902DFC030319B02DE8
:100B42007408F80775080318750FF9077608031873
:100B5200760FFA0777080318770FFB07942D7408AE
:100B6200F80775080318750FF90776080318760F4A
:0C0B7200FA0777080318770FFB0708004C
:100B7E00450160084601A000450161084601A1003B
:040B8E0052240800E5
:100B92004501E20160088400610885000008F00058
:100BA2007008031DEF2D643062020318EF2D6008F8
:100BB2008400610885000008F0007008031DEE2D16
:100BC200E20A0530FB000F30FC00F130FD00FD0BA6
:100BD200E82DFC0BE82DFB0BE82DCB2D60088400E3
:100BE2006108850000080319F82DF001FA2D013083
:040BF200F000080007
:100BF6007408003A031D142E7508003A031D142EBE
:100C06007608003A031D142E7708003A031D142EA9
:100C1600FF30F000FF30F100FF30F2007F30F300CC
:100C2600AC2E4001FC01F71BFC0AFD01FB01FA0199
:100C3600F901F80173087204710470040319A72EF0
:100C460073087706A000A01BFD09F71F352EF409CF
:100C5600F509F609F709F40A0319F50A0319F60A5C
:100C66000319F70AF31F422EF009F109F209F309F5
:100C7600F00A0319F10A0319F20A0319F30A7308B1
:100C86007704A000A01B632EFE22FC1B802EFD1FF6
:100C9600A72EF009F109F209F309F00A0319F10A7E
:100CA6000319F20A0319F30AF809F909FA09FB0903
:100CB600F80A0319F90A0319FA0A0319FB0AA72EF7
:100CC600F71F7A2EF31B742E7308FB007208FA00C6
:100CD6007108F9007008F800F301F201F101F00162
:100CE6004A2EF301F201F101F001F00A0034F30992
:100CF600F209F109F009FC17472EF80A0319F90A57
:100D06000319FA0A0319FB0A74087802031D4A2E0E
:100D160075087902031D4A2E76087A02031D4A2EAB
:100D260077087B02031D4A2EFB01FA01F901F8013F
:100D3600F00A0319F10A0319F20A0319F30AF31F59
:100D46004A2EA0012016FF34A0017C1CAB2E2A24BB
:040D5600003E080053
:100D5A004501CB01CC014908F3004A08F4004908CF
:100D6A00F5004A08F6007308840074088500000834
:100D7A00203A031DC52E4B084C04031DC52ED62E42
:100D8A000130CB000030CC00730884007408850061
:100D9A00750886007608870000088100F50A03199D
:100DAA00F60A7308F1007408F200F30A0319F40A48
:100DBA0071088400720885000008003A031DB82EE5
:0A0DCA004908F0004A08F100080093
:100DD4004001FB01FA01F9018030F800F10CF00C3C
:100DE400031CFD2E7408F90775080318750FFA071C
:100DF4000318FB0A0310F01F052F7408FA0775087F
:100E04000318750FFB07FB0CFA0CF90CF80C031C08
:100E1400F02E7B08F3007A08F2007908F1007808D4
:040E2400F0000800D2
:100E28004501CF01D0014908D1004A08D2008030DD
:100E38004A06F00080307002031D242F003049025A
:100E48000318322F0130CF000030D0004908003C91
:100E5800D1004A08031C013ED201D2025108E00029
:100E68005208E1004B08E2004C08E300D7240630A2
:100E7800CD000030CE004E08003C031D452F4D0824
:100E8800003C0318602F4D084B0786004E084C3D68
:100E9800870001304D02F00000304E3BF100700831
:100EA8004B07840071084C3D850000088100013023
:100EB800CD020030CE3B3F2F4B0886004C08870000
:100EC800203081004F0850040319862FCD01CE0130
:100ED8004D084B0784004E084C3D85000008203A19
:100EE800031D7A2FCD0A0319CE0A6C2F0130CD02CB
:100EF8000030CE3B4D084B0786004E084C3D87001E
:060F08002D3081000800FD
:100F0E004101A00145014B0886004C088700810174
:100F1E004908E0004A08E100BF2545014B08E00002
:100F2E004C08E100C92570080319A02F0130F0000C
:060F3E00A12FF0010800E4
:100F440045014908F4004A08F5007408F2007508E0
:100F5400F300F40A0319F50A4B08F0004C08F100F9
:100F6400CB0A0319CC0A7008840071088500720842
:100F740086007308870000088100720884007308E3
:100F8400850000080319C72FA72F4908F0004A0855
:040F9400F100080060
:100F98004501490884004A0885000008F1007108E5
:100FA800003A0319E32F490884004A08850000081D
:100FB800E00023254501C90A0319CA0ACC2F0800F5
:100FC80035304501C9009630CA004A30CB000030A0
:100FD800CC00872770080319F42F0130F000F72F91
:080FE8004001EF01F0010800D7
:1010000080316E258831FF304501E000FF30E1007E
:101010000030E2000030E300E330E4000030E5009F
:101020002830E6000330E700FF30E800FF30E90039
:101030000030EA000030EB00FF30EC00FF30ED0044
:101040000030EE000030EF0080318A24883180319A
:06105000CB2488310800EA
:1010560045014908F4004A08F5007408840075083B
:101066008500000803193B28F40A0319F50A3028FD
:101076004D084E04031963287408F2007508F3003E
:10108600F40A0319F50A4B08F0004C08F100CB0AE4
:101096000319CC0A7008840071088500720886005E
:1010A60073088700000881007208840073088500B1
:1010B6000008031963280130CD020030CE3B3B28DF
:1010C60000304E06031D692800304D06031D7028AA
:1010D600740886007508870081014908F0004A08EF
:0410E600F10008000D
:1010EA0045014908F4004A08F500740884007508A7
:1010FA008500000803198528F40A0319F50A7A28D5
:10110A007408F2007508F300F40A0319F50A4B088B
:10111A00F0004C08F100CB0A0319CC0A70088400CD
:10112A00710885007208860073088700000881002C
:10113A00720884007308850000080319A528852809
:0A114A004908F0004A08F10008000F
:10115400450149084401E10045014A084401E2000F
:1011640045014B08F0000130F20070080319BD2856
:10117400F235FF3EB82872084101C5007209C60065
:1011840045014C08F1000130F00071080319CD2825
:10119400F035FF3EC82870084401DE00F0097008ED
:1011A400DF00063045014907840000304A3D8500D0
:1011B40072088004700880054401E001450151086B
:1011C4000319E6284401E00944010630840260085A
:1011D400003A0319F0285F088005F2285E088004AD
:1011E400803182258831E830F4000330F500F601BF
:1011F400F70180318925883170084501DC007108C8
:10120400DD007208DE007308DF005C08D2005D08B0
:10121400D3005E08D4005F08D5004D08F0004E08E6
:10122400F1004F08F2005008F300F035F10DF20D13
:10123400F30DF035F10DF20DF30D0A30F400F50164
:10124400F601F70180318925883170084501D600FF
:101254007108D7007208D8007308D9007008F40028
:101264007108F5007208F6007308F7005C08F000D6
:101274005D08F1005E08F2005F08F3008031FB2591
:10128400883170084501DA007108DB007108F40048
:10129400F50174087504031952290230F000AA29D3
:1012A4005A084101D30045015608F4005708F500D7
:1012B4005808F6005908F7005208F0005308F100E6
:1012C4005408F2005508F3008031FB258831780872
:1012D400F0007908F1007A08F2007B08F300700846
:1012E4004501D2007108D3007208D4007308D500F8
:1012F4005608F5005708F6005808F7005908F80092
:10130400F837F70CF60CF50C80307806F4008030D2
:1013140073067402031D982972087702031D982925
:1013240071087602031D98297008750203189C2918
:101334004101D30A41015308F100F1367108C0009C
:10134400073071020318A9290130F000AA29F0011D
:0213540008008F
:10135600CE304501C9009530CA008031CC2788318E
:10136600400112111811141409304501C9009630B4
:10137600CA004A30CB000030CC0080318727883144
:1013860070080319C9290130F0001C2AFA30C90077
:101396009430CA008031CC2788310230C90097309A
:1013A600CA004A30CB000030CC0080318727883114
:1013B60070080319E1290230F0001C2A8230C900A6
:1013C6009530CA008031CC2788315830C900953015
:1013D600CA004A30CB000030CC00803187278831E4
:1013E60070080319F9290330F0001C2AD530C9000A
:1013F6009430CA008031CC2788312A30C900963013
:10140600CA004A30CB000030CC00803187278831B3
:1014160070080319112A0430F0001C2A1A30C9007A
:101426009530CA008031CC27883101304001EF0069
:04143600F0010800B9
:10143A0012001E00F003031D1D2AF103031D1D2ABD
:02144A00080098
:10144C004501A501A601D030C9009630CA004A302A
:10145C00CB000030CC00803187278831700803190D
:10146C003A2A0130F0007A2BA101A20125082604AA
:10147C00031DB42A0E3041012002F100F2010030AC
:10148C00F23B803045012206F0008030720670027B
:10149C00031D522A710821020318B42A8430F0006B
:1014AC002030F1002108700784002208713D85006E
:1014BC000008F1007108433A031DB02A01302107DE
:1014CC00F2000030223DF3008430F0002030F100B7
:1014DC007208700784007308713D85000008F100E4
:1014EC007108423A031DB02A02302107F200003085
:1014FC00223DF3008430F0002030F10072087007B8
:10150C0084007308713D85000008F1007108433AAE
:10151C00031DB02A03302107F2000030223DF300F6
:10152C008430F0002030F1007208700784007308DA
:10153C00713D85000008F10071083A3A031DB02A8C
:10154C0005302107A3000030223DA4000130A50086
:10155C000030A600A10A0319A20A3C2A2508260479
:10156C00031DBB2A0230F0007A2B80302406F000D9
:10157C0080307002031DC62A410120084501230258
:10158C000318DC2A8430F0002030F10023087007A7
:10159C0084002408713D85000008F10071082C3A84
:1015AC000319DC2AA30A0319A40ABB2A0730410138
:1015BC002002F100F2010030F23B80307206F000A4
:1015CC008030450124067002031DEE2A23087102A7
:1015DC000318F32A0330F0007A2BA30A0319A40A88
:1015EC0080302406F00080307002031D012B410175
:1015FC002008450123020318172B8430F0002030FB
:10160C00F1002308700784002408713D8500000850
:10161C00F10071082C3A0319172BA30A0319A40A19
:10162C00F62A053041012002F100F2010030F23BB4
:10163C0080307206F0008030450124067002031DD4
:10164C00292B2308710203182E2B0430F0007A2B5F
:10165C00A30A0319A40AA101A20180302206F000FA
:10166C0080307002031D3C2B043021020318722BB6
:10167C0021082307F2002208243DF3008430F000F7
:10168C002030F1007208700784007308713D8500EA
:10169C000008F10071080D3A0319722B4230210732
:1016AC0086000030223D870021082307F200220823
:1016BC00243DF3008430F0002030F10072087007F4
:1016CC0084007308713D85000008F00070088100EB
:1016DC00A10A0319A20A332B4230210786000030DD
:0A16EC00223D87008101F001080093
:1016F6004501A501A6016B30C9009630CA004A30E3
:10170600CB000030CC008031872788317008031960
:101716008F2B0130F000AA2CA101A2012508260476
:10172600031D1F2C0D3041012002F100F201003093
:10173600F23B803045012206F000803072067002CE
:10174600031DA72B7108210203181F2C8430F000FB
:101756002030F1002108700784002208713D8500C1
:101766000008F1007108433A031D1B2C01302107C4
:10177600F2000030223DF3008430F0002030F1000A
:101786007208700784007308713D85000008F10037
:1017960071084D3A031D1B2C02302107F200003060
:1017A600223DF3008430F0002030F100720870070B
:1017B60084007308713D85000008F1007108543AF1
:1017C600031D1B2C03302107F2000030223DF300DD
:1017D6008430F0002030F10072087007840073082E
:1017E600713D85000008F1007108453A031D1B2C68
:1017F60004302107F2000030223DF3008430F0006F
:101806002030F1007208700784007308713D85006E
:101816000008F10071083A3A031D1B2C0630210717
:10182600A3000030223DA4000130A5000030A60030
:10183600A10A0319A20A912B25082604031D262CAA
:101846000230F000AA2C80302406F00080307002AE
:10185600031D312C41012008450123020318472CA2
:101866008430F0002030F10023087007840024083B
:10187600713D85000008F10071082C3A0319472CC8
:10188600A30A0319A40A262C063041012002F100FE
:10189600F2010030F23B80307206F00080304501E4
:1018A60024067002031D592C2308710203185E2CAE
:1018B6000230F000AA2CA30A0319A40AA101A2016E
:1018C60080302206F00080307002031D6C2C05303B
:1018D60021020318A22C21082307F2002208243D26
:1018E600F3008430F0002030F100720870078400A5
:1018F6007308713D85000008F10071080D3A03195F
:10190600A22C2930210786000030223D87002108BD
:101916002307F2002208243DF3008430F000203033
:10192600F1007208700784007308713D8500000895
:10193600F00070088100A10A0319A20A632C29305D
:10194600210786000030223D87008101F001080052
:1019560014304501C9009630CA004A30CB00003029
:10196600CC0080318727883170080319BD2C0130DF
:0E197600F000C12C01304001EF00F00108002C
:101984004501A501A601F830C9008730CA004A30D4
:10199400CB000030CC0080318727883170080319D0
:1019A400D62C0130F000F22DA101A2012508260455
:1019B400031D502D0B3041012002F100F2010030D3
:1019C400F23B803045012206F0008030720670023E
:1019D400031DEE2C710821020318502D8430F000F1
:1019E4002030F1002108700784002208713D850031
:1019F4000008F1007108433A031D4C2D0130210702
:101A0400F2000030223DF3008430F0002030F10079
:101A14007208700784007308713D85000008F100A6
:101A24007108533A031D4C2D02302107F200003097
:101A3400223DF3008430F0002030F100720870077A
:101A440084007308713D85000008F1007108513A63
:101A5400031D4C2D03302107F2000030223DF3001A
:101A64008430F0002030F10072087007840073089D
:101A7400713D85000008F10071083A3A031D4C2DB0
:101A840005302107A3000030223DA4000130A50049
:101A94000030A600A10A0319A20AD82C250826049E
:101AA400031D572D0230F000F22DA101A201803058
:101AB4002206F00080307002031D622D03302102E3
:101AC4000318982D21082307F2002208243DF3006F
:101AD4008430F0002030F10072087007840073082D
:101AE400713D85000008F10071082C3A0319982D06
:101AF4003D30210786000030223D8700210823075E
:101B0400F2002208243DF3008430F0002030F1007C
:101B14007208700784007308713D85000008F000A6
:101B240070088100A10A0319A20A592D3D3021072A
:101B340086000030223D8700810101302107F0003A
:101B44000030223DF1007008A3077108A43DA101F3
:101B5400A20180302206F00080307002031DB42DF3
:101B6400033021020318EA2D21082307F20022087A
:101B7400243DF3008430F0002030F1007208700737
:101B840084007308713D85000008F10071080D3A66
:101B94000319EA2D2430210786000030223D8700F6
:101BA40021082307F2002208243DF3008430F000CA
:101BB4002030F1007208700784007308713D8500BD
:101BC4000008F00070088100A10A0319A20AAB2DD5
:101BD4002430210786000030223D87008101F00176
:021BE4000800F7
:101BE6004001FB01FA01F901F801A001730DF80D9E
:101BF6007408F8027508031C750FF9027608031CB1
:101C0600760FFA027708031C770FFB020001031C0C
:101C16000130A002F30D0730FC00730DF80DF90D2D
:101C2600FA0DFB0DA00D7408731C2B2EF802750817
:101C3600031C750FF9027608031C760FFA02770863
:101C4600031C770FFB020001031C0130A0023C2E8F
:101C5600F80775080318750FF90776080318760F45
:101C6600FA0777080318770FFB07000103180130FE
:101C7600A007F30DFC0B102E720DF80DF90DFA0DE1
:101C8600FB0DA00D7408731C5A2EF8027508031C70
:101C9600750FF9027608031C760FFA027708031C03
:101CA600770FFB020001031C0130A0026B2EF80720
:101CB60075080318750FF90776080318760FFA07E3
:101CC60077080318770FFB07000103180130A007F8
:101CD600F20D0730FC00720DF80DF90DFA0DFB0D33
:101CE600A00D7408721C892EF8027508031C750F66
:101CF600F9027608031C760FFA027708031C770FA1
:101D0600FB020001031C0130A0029A2EF807750899
:101D16000318750FF90776080318760FFA07770880
:101D26000318770FFB07000103180130A007F20D17
:101D3600FC0B6E2E710DF80DF90DFA0DFB0DA00DB5
:101D46007408721CB82EF8027508031C750FF90288
:101D56007608031C760FFA027708031C770FFB023E
:101D66000001031C0130A002C92EF80775080318EC
:101D7600750FF90776080318760FFA077708031820
:101D8600770FFB07000103180130A007F10D07309C
:101D9600FC00710DF80DF90DFA0DFB0DA00D740880
:101DA600711CE72EF8027508031C750FF9027608F8
:101DB600031C760FFA027708031C770FFB0200015B
:101DC600031C0130A002F82EF80775080318750FDA
:101DD600F90776080318760FFA0777080318770FBE
:101DE600FB07000103180130A007F10DFC0BCC2EF8
:101DF600700DF80DF90DFA0DFB0DA00D7408711C90
:101E0600162FF8027508031C750FF9027608031CD5
:101E1600760FFA027708031C770FFB020001031CFA
:101E26000130A002272FF80775080318750FF90768
:101E360076080318760FFA0777080318770FFB075B
:101E4600000103180130A007F00D0730FC00700DEB
:101E5600F80DF90DFA0DFB0DA00D7408701C452F39
:101E6600F8027508031C750FF9027608031C760F35
:101E7600FA027708031C770FFB020001031C0130EE
:101E8600A002562FF80775080318750FF90776088C
:101E96000318760FFA0777080318770FFB07000178
:101EA60003180130A007F00DFC0B2A2F7018692FBC
:101EB6007408F80775080318750FF90776080318EC
:0E1EC600760FFA0777080318770FFB0708005E
:101ED400B6304501C9009530CA004A30CB00003005
:101EE400CC00803187278831700803197C2F01309A
:081EF400F0007D2FF001080051
:101EFC008B13FF3040019200FF30940098019A013F
:101F0C007E01B801CE0153019013941346018E014A
:101F1C009201400114120E1294128E129414141188
:101F2C008031032188314F011A1311307D01CB0010
:101F3C000F307E01A2008031FC20883142019F15B8
:101F4C0040309B0003309C001E1500200530FB0028
:101F5C000F30FC00F130FD00FD0BB22FFC0BB22F4B
:101F6C00FB0BB22F4E0199168F120C304501C90094
:101F7C000030CA000530CB000430CC008030CD00DE
:101F8C002530CE00CF01D001D101AA200530FB00B5
:101F9C000F30FC00F130FD00FD0BD22FFC0BD22FCB
:0A1FAC00FB0BD22F0B178B17080058
:101FB60018304501C9009730CA004A30CB000030BE
:101FC600CC0080318727883170080319ED2F013046
:081FD600F000EE2FF0010800FD
:102000004501AE01A701A801A101A20107304101CC
:102010002002F100F2010030F23B8030450122063F
:10202000F000803072067002031D1828710821022A
:102030000318BE2800302806031D2028003027067C
:10204000031DBE288430F0002030F1002108700705
:1020500084002208713D85000008F1007108433AB0
:10206000031DBA2801302107F2000030223DF300A1
:102070008430F0002030F10072087007840073088B
:10208000713D85000008F1007108473A031DBA2828
:1020900002302107F2000030223DF3008430F000CE
:1020A0002030F1007208700784007308713D8500CC
:1020B0000008F10071084E3A031DBA2803302107C9
:1020C000F2000030223DF3008430F0002030F100B7
:1020D0007208700784007308713D85000008F100E4
:1020E0007108533A031DBA2804302107F20000306A
:1020F000223DF3008430F0002030F10072087007B8
:1021000084007308713D85000008F1007108493AA8
:10211000031DBA2805302107F2000030223DF300EC
:102120008430F0002030F1007208700784007308DA
:10213000713D85000008F10071084E3A031DBA2870
:1021400006302107F2000030223DF3008430F00019
:102150002030F1007208700784007308713D85001B
:102160000008F1007108463A031DBA280130A700A3
:102170000030A800A10A0319A20A06280030280688
:10218000031DC42800302706031DC9280130F000B4
:10219000832AA701A8012108A3002208A4008030F7
:1021A0002406F00080307002031DDA284101200867
:1021B000450123020318FC2800302806031DE228ED
:1021C00000302706031DFC288430F0002030F10089
:1021D0002308700784002408713D85000008F10081
:1021E00071080D3A031DF8280130A7000030A8003F
:1021F000A30A0319A40ACF2800302806031D0229C8
:1022000000302706031D07290130F000832A013022
:10221000A1020030A23B2108410120024501AB0090
:102220008430A9002030AA002108A9072208AA3D6D
:102230000830A1000030A2000130A3000030A4004B
:1022400080302206F00080307002031D29292B08FF
:102250002102031858298030F000803024067002D3
:10226000031D34292308093C031C58292108290788
:10227000840022082A3D850000082C3A031D4429C9
:10228000A30A0319A40A542900302406031D4A296D
:1022900002302306031D542921082907840022083F
:1022A0002A3D85000008AE00A10A0319A20A2029D0
:1022B0002E08313A031D812A0130AC00AD014001E6
:1022C000D801D90108304501A1000030A200013039
:1022D000A3000030A40080302206F000803070029D
:1022E000031D74292B08210203187F2A8030F00077
:1022F000803024067002031D7F292308093C031C3B
:102300007F2A21082907840022082A3D8500000829
:102310002C3A031D9329A30A0319A40AA501A601B7
:102320000130AC007A2A00302406031D99290130BF
:102330002306031DA52921082907840022082A3D18
:10234000850000084101AE007A2A003045012406CC
:10235000031DAC2902302306031DB82921082907D3
:10236000840022082A3D850000084001EE007A2AF8
:10237000003045012406031DBF2903302306031D39
:10238000F72921082907840022082A3D85003030DA
:102390000002031CEA2921082907840022082A3D9B
:1023A00085000008393C031CEA292D08003A031D6A
:1023B000EA295A30250786000030263D870021088B
:1023C0002907840022082A3D850000088100A50A0B
:1023D0000319A60A21082907840022082A3D85003E
:1023E00000082E3A031DF6290130AD007A2A00308C
:1023F0002406031DFD2904302306031D112A4B303A
:10240000250786000030263D870021082907840023
:1024100022082A3D850000088100A50A0319A60AA2
:102420007A2A00302406031D172A05302306031DCF
:102430002B2A3130250786000030263D87002108F1
:102440002907840022082A3D850000088100A50A8A
:102450000319A60A7A2A00302406031D312A063001
:102460002306031D7A2A21082907840022082A3D11
:10247000850030300002031C6E2A210829078400E1
:1024800022082A3D85000008393C031C6E2A2C08CE
:1024900003196E2A40015808F0005908F1000A306B
:1024A000F4000030F5008031EA2690317008D80041
:1024B0007108D900450121082907840022082A3D16
:1024C000850030300002F200F3010030F33B720867
:1024D00070074001D8007308713DD90045012108FB
:1024E0002907840022082A3D850000082E3A031D92
:1024F0007A2AAC014501A10A0319A20A6B29F0014D
:08250000832A0130F0000800FD
:10250800A4304501C9009630CA004A30CB000030DB
:10251800CC0080318727903170080319962A013042
:10252800F000832BA301A401A101A201003024061D
:10253800031DA02A00302306031D1F2B803022060E
:10254800F00080307002031DAD2A410120084501CA
:10255800210203181F2B8430F0002030F1002108DD
:10256800700784002208713D85000008F100710899
:102578002B3A031D1B2B01302107F2000030223DAE
:10258800F3008430F0002030F100720870078400F6
:102598007308713D85000008F1007108433A031D76
:1025A8001B2B02302107F2000030223DF30084305B
:1025B800F0002030F1007208700784007308713D44
:1025C80085000008F10071084C3A031D1B2B0330ED
:1025D8002107F2000030223DF3008430F000203063
:1025E800F1007208700784007308713D85000008C7
:1025F800F1007108433A031D1B2B04302107F20038
:102608000030223DF3008430F0002030F1007208E1
:10261800700784007308713D85000008F100710897
:10262800433A031D1B2B0130A3000030A400A10A6C
:102638000319A20A9A2A0130A1020030A23B2108FC
:10264800410120024501A9008430A7002030A800DC
:102658002108A7072208A83D0730A1000030A200E2
:102668000130A3000030A40080302206F000803042
:102678007002031D412B290821020318822B803088
:10268800F000803024067002031D4C2B2308063C02
:10269800031C822B2108270784002208283D850077
:1026A80000082C3A031D5E2BA30A0319A40AA501EE
:1026B800A6017E2B00302406031D642B063023065A
:1026C800031D7E2BB030250786000030263D87008D
:1026D8002108270784002208283D8500000881007A
:1026E800A50A0319A60AB030250786000030263D42
:1026F80087008101A10A0319A20A382BF0010800FA
:10270800400158084501C900400159084501CA005F
:10271800A130CB000230CC00803114279031A13099
:10272800C9000230CA008031AD269031A930C900F5
:102738000230CA00A330CB000030CC008031A22781
:102748009031A930C9000230CA00B030CB00003047
:10275800CC001430CD000030CE0088312B209031D1
:10276800A930C9000230CA00AC30CB000030CC0020
:10277800883175209031A930C9000230CA00AF30C5
:10278800CB000030CC0080318727903170080319C6
:10279800D02B0130F000462C4001CA016E08313AB6
:1027A800031D2A2C61304501E0009630E10080319C
:1027B800BF25903108304501E0009730E1008031B5
:1027C800BF2590315A304501E0000030E1008031EA
:1027D800BF259031DF304501E0009630E1008031BF
:1027E800BF2590314B304501E0000030E1008031D9
:1027F800BF259031D8304501E0009630E1008031A6
:10280800BF25903131304501E0000030E1008031D2
:10281800BF259031E6304501E0009630E100803177
:10282800BF259031A1304501E0000230E100803140
:10283800BF2590310D30A8008031E32090311A3047
:102848004601A8008031E3209031372CE83045015B
:10285800E0009430E1008031BF2590311A30A800A3
:102868008031E32090314A304501E0000030E1003A
:102878008031C925903170080319452C0230F000C9
:06288800462CF0010800DF
:102E4C0047308400943085004C30F0000130F100A4
:102E5C00243086000030870088311D2290312A30C2
:102E6C008400953085001030F0000130F100A03066
:0E2E7C0086000030870088311D22903108004A
:103000009031262798314401EC01ED01EE01EF01EA
:103010004501A00188317E2798317A30FB00C1300C
:10302000FC008130FD00FD0B1328FC0B1328FB0B6B
:103030001328000000009C304501C9009530CA00EB
:103040008031CC279831EF30C9008F30CA008031F1
:10305000CC2798319330C9009430CA008031CC27F6
:10306000983140010E1664008831AB219831700808
:103070004501A000200803194B287530C90096307F
:10308000CA008031CC2798318831AB219831700843
:103090004501A0003A2840010E1264008E12400142
:1030A000640057080319DA288E167F304501C900DD
:1030B0009630CA008031CC2798311F30C900963035
:1030C000CA008031CC279831903184229831700821
:1030D000A0002008031980288930C9009630CA0052
:1030E0008031CC2798318F30C9009530CA008031AB
:1030F000CC2798319031842298317008A00069283B
:103100006400B030C9000030CA008031CC2798314B
:10311000FE30C9009530CA008031CC279831883103
:10312000DB2798317008A00020080319AB28B630BF
:10313000C9009630CA008031CC2798314030C90090
:103140009630CA008031CC2798318831DB279831FE
:103150007008A000942864004B30C9009630CA0063
:103160008031CC2798319031842398317008450103
:10317000A00020080319D1289230C9009630CA0057
:103180008031CC2798315630C9009630CA00803142
:10319000CC27983190318423983170084501A000E4
:1031A000B9280D30E00080312325983164004001BA
:1031B000D7018E121430F400F501F601F701440135
:1031C0006C08F0006D08F1006E08F2006F08F30063
:1031D0008831F32598317808F0007908F1007A08F1
:1031E000F2007B08F3000030F4007306031D02298F
:1031F00074087206031D022974087106031D022952
:103200007008003A031D3829A9304501C9009530DE
:10321000CA008031CC27983188316A2798317008EC
:10322000A0007008031D2A29E630C9009530CA00A5
:103230008031CC27983190310020983170080319E3
:1032400029290A304501C9009530CA008031CC27B0
:103250009831322945019B30C9009630CA0080312F
:10326000CC27983145010D30E0008031232598317D
:103270001430F400F501F601F70144016C08F00088
:103280006D08F1006E08F2006F08F3008831F32535
:1032900098317808F0007908F1007A08F2007B088C
:1032A000F3000030F4007306031D602974087206F1
:1032B000031D602974087106031D60297008003A17
:1032C000031D7E29DA304501C9009530CA008031DE
:1032D000CC2798318831C22498317008A00070083A
:1032E00003197929FB30C9009630CA008031CC27F8
:1032F00098310D30E0008031232598311430F400EE
:10330000F501F601F70144016C08F0006D08F100C9
:103310006E08F2006F08F3008831F32598317808C1
:10332000F0007908F1007A08F2007B08F300003021
:10333000F4007306031DA62974087206031DA6294E
:1033400074087106031DA6297008003A031DC429DC
:10335000F2304501C9009530CA008031CC27983140
:1033600088317B2398317008A00070080319BF29A9
:10337000ED30C9009630CA008031CC2798310D302D
:10338000E0008031232598311430F400F501F60176
:10339000F70144016C08F0006D08F1006E08F200BE
:1033A0006F08F3008831F32598317808F000790828
:1033B000F1007A08F2007B08F3000030F400730695
:1033C000031DEC2974087206031DEC2974087106AC
:1033D000031DEC297008003A031D0A2AC23045017A
:1033E000C9009530CA008031CC2798318831262217
:1033F00098317008A00070080319052AF430C9003C
:103400009630CA008031CC2798310D30E0008031F1
:103410002325983140016E08313A031D842A6F0834
:103420000319492A8030133AF0008030590670029F
:10343000031D1C2A5808883C0318492A49304501B5
:10344000C9009530CA008031CC2798318031E427FB
:10345000983170084501A00020080319442ABF30A4
:10346000C9009630CA008031CC2798313A30C90063
:103470009530CA008031CC2798318031E4279831CB
:1034800070084501A0002C2A0D30E0008031232572
:10349000983140016F08031D842A80305906F000DE
:1034A0008030113A7002031D572A943058020318D5
:1034B000842A74304501C9009530CA008031CC2778
:1034C00098318831AB24983170084501A00020085C
:1034D00003197F2AAD30C9009630CA008031CC274D
:1034E00098316630C9009530CA008031CC279831B8
:1034F0008831AB24983170084501A000672A0D304F
:10350000E0008031232598311430F400F501F601F4
:10351000F70144016C08F0006D08F1006E08F2003C
:103520006F08F3008831F32598317808F0007908A6
:10353000F1007A08F2007B08F3000030F400730613
:10354000031DAC2A74087206031DAC2A74087106A8
:10355000031DAC2A7008003A031DB12A40010E1663
:10356000B32A40010E1201304401EC070030ED3D5A
:10357000EE3DEF3D0530FB000F30FC00F130FD006B
:10358000FD0BC02AFC0BC02AFB0BC02A1430F40030
:10359000F501F601F7016C08F0006D08F1006E0806
:1035A000F2006F08F3008831F32598317808F000B5
:1035B0007908F1007A08F2007B08F3000030F4008B
:1035C0007306031DED2A74087206031DED2A7408A4
:1035D0007106031DED2A7008003A031DE02BC83068
:1035E0004501C9009630CA008031CC27983140018E
:1035F0006E08313A031D882B58084501C900400167
:1036000059084501CA006430CB000230CC0080313B
:10361000142798316430C9000230CA008031AD26C9
:1036200098314401E3015A3084000030850063087A
:1036300084070318850A0008003A03195F2B630802
:10364000043A03192C2B6308063A03192C2B630840
:10365000083A03192C2B322B2E304501E000803123
:103660002325983144016308083A031D3D2B20307F
:103670004501E000803123259831440163080A3A6E
:103680000319472B63080C3A0319472B4D2B3A308B
:103690004501E0008031232598315A308400003004
:1036A00085004401630884070318850A0008450162
:1036B000E0008031232598314401E30A132B2C309C
:1036C0004501E0008031232598314B304501C90088
:1036D0000030CA008031CC2798312C30E000803196
:1036E0002325983131304501C9000030CA008031AE
:1036F000CC2798312C30E00080312325983164307C
:103700004501C9000230CA008031CC279831902B86
:1037100045011D30C9009730CA008031CC2798314F
:1037200040016F0803199D2B21304501C9009730D6
:10373000CA008031CC279831A52B45010E30C90035
:103740009730CA008031CC2798312C30E00080318E
:10375000232598313D304501C9000030CA00803131
:10376000CC2798312C30E00080312325983124304B
:103770004501C9000030CA008031CC2798312C3077
:10378000E00080312325983129304501C9000030FF
:10379000CA008031CC2798312C30E00080312325BD
:1037A000983142304501C9000030CA008031CC2731
:1037B00098311330C9009730CA008031CC27983136
:0437C0004F28E12B82
:100FF000413454342B344334533451340D3400349D
:101FDE000D340A344434613474346134203466343C
:101FEE006F3472346D34613474343A340D340A34CF
:021FFE000034AD
:0A288E002D343134003400340034DE
:102898002D34313400340034003400340034003432
:1028A8003034003400340034003400340034003450
:0828B800003400340034003448
:0A28C0002D343134003400340034AC
:1028CA002D34313400340034003400340034003400
:0228DA000034C8
:1028DC00303400340034003400340034003400341C
:0828EC00003400340034003414
:0228F4000034AE
:0428F6000034003476
:1028FA0030340034003400340034003400340034FE
:10290A00003400340034003400340034003400341D
:08291A000034003400340034E5
:0229220030344F
:0229240000347D
:1029260044344134543441343A34543469346D3483
:1029360065342C344C34613474342C344C346F3458
:102946006E342C3441346C34743428346D34293468
:102956002C34473453344D345F3473347434613417
:10296600743465342C3452345334533449342C344F
:102976004234453452342C34543465346D34703416
:102986002834433429342C3456345F344234613489
:10299600743428346D34563429340D340A340D34E5
:0429A6000A340034BB
:1029AA000D340A342034203420342B344334473451
:1029BA004E3453345034573452343D343134203445
:0629CA004F344B340034D1
:1029D0004E346F342034763461346C34693464346A
:1029E000203466346934783420347934653474346E
:0429F0000D3400346E
:1029F4000D340A342034203420342B344334463408
:102A040055344E343D34313420344F344B34003457
:102A14002034423455344634463445345234203418
:102A240049344E34563441344C34493444340034FB
:102A34002034203420342B3443344D34473446344A
:102A44003D34313420344F344B340D340A340034A3
:022A540000344C
:022A560000344A
:022A5800003448
:102A5A00413454342B3443344D34473453343D34A5
:022A6A00003436
:042A6C000D340034F1
:022A7000303400
:022A720000342E
:102A74000D340A34673473346D345F3470346F3416
:0E2A84007734653472346F346634663400344F
:102A92000D340A34673473346D345F3470346F34F8
:0E2AA2007734653472346F3466346634003431
:102AB000413454342B34433447344E34533450343B
:0C2AC000573452343D3431340D340034AE
:102ACC000D340A34673473346D345F3470346F34BE
:0C2ADC007734653472346F346E3400348B
:102AE8000D340A34673473346D345F3470346F34A2
:0C2AF8007734653472346F346E3400346F
:102B04000D340A34203420342034413454344534D0
:0A2B1400303420344F344B340034C9
:102B1E000D340A346734653474345F346E3475346E
:0A2B2E006D346234653472340034F3
:102B38000D340A3450344F34573445345234203429
:0A2B48004F344E340D340A340034CB
:102B52006734653474345F346734703473345F348B
:0A2B620064346134743461340034CB
:102B6C00413454342B34433447344E345334493485
:082B7C004E3446340D340034E0
:102B84000D340A3472346534613464345F34763419
:082B9400623461347434003432
:102B9C0066346F346E3461345F3469346E34693446
:082BAC0074342834293400348C
:102BB4000D340A3472346534613464345F347234ED
:082BC4007334733469340034EA
:102BCC000D340A346734703473345F3470346134C8
:082BDC007234733465340034D7
:102BE4000D340A3472346534613464345F347434BB
:082BF40065346D3470340034C7
:102BFC000D340A3465346E3464345F3463346134B8
:062C0C006C346C3400344E
:102C1200413454342B344334463455344E343D34E9
:062C220031340D340034D2
:102C2800413454342B344334463455344E343D34D3
:062C380031340D340034BC
:102C3E006734653474345F346E3475346D34623495
:062C4E006534723400340D
:102C5400413454342B3443344D34473446343D34B6
:062C640031340D34003490
:102C6A00413454342B344334463455344E343D3491
:062C7A0030340D3400347B
:102C80000D340A3465346E3464345F346334613433
:062C90006C346C340034CA
:102C96000D340A34733465346E3464345F347334FB
:062CA6006D3473340034AC
:102CAC000D340A34733465346E3464345F347334E5
:062CBC006D347334003496
:102CC2004C34613473347434203466346934783467
:042CD2000D34003489
:102CD600413454342B3443344D34543445343F3426
:042CE6000D34003475
:102CEA00543449344D3445344F34553454340D3406
:042CFA000A34003464
:102CFE00523449344E34473449344E3447340D340B
:042D0E000A3400344F
:102D12002034543449344D3445344F3455345434CA
:022D220000347B
:102D24002034543449344D3445344F3455345434B8
:022D3400003469
:102D36002034543449344D3445344F3455345434A6
:022D4600003457
:102D4800413454342B3443344C34433443340D34F9
:022D5800003445
:102D5A002034543449344D3445344F345534543482
:022D6A00003433
:102D6C002034543449344D3445344F345534543470
:022D7C00003421
:102D7E002034543449344D3445344F34553454345E
:022D8E0000340F
:102D90000D340A3444344134543441343A34003428
:102DA000413454342B344334423443340D340034EE
:0E2DB0000D344C344F344E343A342034003459
:0E2DBE000D344C34413454343A342034003453
:0E2DCC000D3441344C3454343A342034003445
:0E2DDA0020344534523452344F3452340034D5
:0E2DE80020344534523452344F3452340034C7
:0E2DF60020344534523452344F3452340034B9
:0C2E040041345434453430340D34003473
:0C2E10005534543443343A342034003438
:0A2E1C002C344F34463446340034A1
:0A2E26000D340A340D340A34003470
:0A2E30004134543448340D340034AA
:082E3A002C342C342C3400343C
:082E42002C344F344E340034EF
:020000040001F9
:0A000E000421E23E6F079F0B010082
:00000001FF
