:0400000090311A29F8
:1000080070082000A3007108A2007208A1008031C6
:10001800911EE5288030F0008030003A7002031D00
:100028001728F9304E020318E528BE2770082E005D
:10003800EF004130F1002330F20020004E08710734
:1000480086000030723D870070088100AE282E00BF
:100058006F084F3A031D342801302200ED004E2866
:100068002E006F08453A031D3D2802302200ED009E
:100078004E282E006F08523A031D462806302200EB
:10008800ED004E282E006F083E3A031D4E28013021
:100098002000ED00D4282E006F084B3A031D572886
:1000A80001302000EF002200ED01D4282E006F0857
:1000B800523A031D632803302200ED006528220010
:1000C800ED01D4282E006F08523A031D6F28043022
:1000D8002200ED0071282200ED01D4282E006F08BF
:1000E8004F3A031D7B2805302200ED007D282200B1
:1000F800ED01D4282E006F08523A031D86280130DE
:100108002000EC002200ED01D4282E006F08493AA7
:10011800031D922807302200ED0094282200ED01EB
:10012800D4282E006F084E3A031D9E28083022005E
:10013800ED00A0282200ED01D4282E006F08473AD0
:10014800031DA92801302400EF002200ED01D42866
:10015800ED01D42822006D08003A03192B286D08F8
:10016800013A03194F286D08023A03195A286D08F5
:10017800033A031966286D08043A031972286D08B2
:10018800053A03197E286D08063A031989286D086F
:10019800073A031995286D08083A0319A128AC28CD
:1001A80020004E0AF0007008CE004130F0002330E5
:1001B800F1004E08700786000030713D870081010C
:1001C80091122308F0002208F1002108F20009002A
:1001D8007408F8027508031C750FF9027608031CE9
:1001E800760FFA027708031C770FFB02F30D07302E
:1001F800FC00730DF80DF90DFA0DFB0D7408731C56
:100208001329F8027508031C750FF9027608031CF8
:10021800760FFA027708031C770FFB022029F807EC
:1002280075080318750FF90776080318760FFA078B
:1002380077080318770FFB07F30DFC0BFD28720DE9
:10024800F80DF90DFA0DFB0D7408731C3929F80225
:100258007508031C750FF9027608031C760FFA025D
:100268007708031C770FFB024629F807750803185F
:10027800750FF90776080318760FFA077708031839
:10028800770FFB07F20D0730FC00720DF80DF90D22
:10029800FA0DFB0D7408721C5F29F8027508031C1F
:1002A800750FF9027608031C760FFA027708031C0B
:1002B800770FFB026C29F80775080318750FF90703
:1002C80076080318760FFA0777080318770FFB07E5
:1002D800F20DFC0B4929710DF80DF90DFA0DFB0D06
:1002E8007408721C8529F8027508031C750FF90239
:1002F8007608031C760FFA027708031C770FFB02B7
:100308009229F80775080318750FF9077608031876
:10031800760FFA0777080318770FFB07F10D0730F8
:10032800FC00710DF80DF90DFA0DFB0D7408711C28
:10033800AB29F8027508031C750FF9027608031C2F
:10034800760FFA027708031C770FFB02B829F80723
:1003580075080318750FF90776080318760FFA075A
:1003680077080318770FFB07F10DFC0B9529700D23
:10037800F80DF90DFA0DFB0D7408711CD129F8025E
:100388007508031C750FF9027608031C760FFA022C
:100398007708031C770FFB02DE29F8077508031896
:1003A800750FF90776080318760FFA077708031808
:1003B800770FFB07F00D0730FC00700DF80DF90DF5
:1003C800FA0DFB0D7408701CF729F8027508031C58
:1003D800750FF9027608031C760FFA027708031CDA
:1003E800770FFB02042AF80775080318750FF90739
:1003F80076080318760FFA0777080318770FFB07B4
:10040800F00DFC0BE1297018172A7408F807750815
:100418000318750FF90776080318760FFA07770897
:080428000318770FFB07080021
:10043000FB09FA09F909F809F80A0319F90A031975
:08044000FA0A0319FB0A080087
:100448002E00EE03EE036E08003C0318302AEE037C
:10045800000000000000272A000000000000000043
:040468000000080088
:10046C0023009E183B2A0000362A2E006E0823001B
:04047C009A000800DA
:100480002000F801F9011030FC00710DF80DF90D94
:100490007408F8027508031C750FF9020318572A2F
:1004A0007408F80775080318750FF9070310F00DA5
:0804B000F10DFC0B452A0800C8
:1004B80023001908F1009D1C632A1D121D167108DE
:0404C800F000080038
:0C04CC0000302000911A0130F000080000
:0C04D800003023009E180130F0000800E6
:0C04E40000302000911A0130F0000800E8
:0C04F000003023009E180130F0000800CE
:1004FC0023001908F1009D1C852A1D121D16710878
:04050C00F0000800F3
:0E0510000030F0007D30F100F201F301080030
:10051E0023009E1690309D002000911E9A2A2300E3
:08052E001908F000932A0800EF
:100536007408003A031DB42A7508003A031DB42A4C
:100546007608003A031DB42A7708003A031DB42A38
:10055600FF30F000FF30F100FF30F2007F30F30093
:100566004C2B2000FC01F71BFC0AFD01FB01FA01E4
:10057600F901F80173087204710470040319472B1A
:1005860073087706A000A01BFD09F71FD52AF409FA
:10059600F509F609F709F40A0319F50A0319F60A23
:1005A6000319F70AF31FE22AF009F109F209F30920
:1005B600F00A0319F10A0319F20A0319F30A730878
:1005C6007704A000A01B032BEC20FC1B202BFD1F97
:1005D600472BF009F109F209F309F00A0319F10AA8
:1005E6000319F20A0319F30AF809F909FA09FB09CA
:1005F600F80A0319F90A0319FA0A0319FB0A472B21
:10060600F71F1A2BF31B142B7308FB007208FA0052
:100616007108F9007008F800F301F201F101F00128
:10062600EA2AF301F201F101F001F00A0034F309BC
:10063600F209F109F009FC17E72AF80A0319F90A81
:100646000319FA0A0319FB0A74087802031DEA2A39
:1006560075087902031DEA2A76087A02031DEA2A3A
:1006660077087B02031DEA2AFB01FA01F901F8016A
:10067600F00A0319F10A0319F20A0319F30AF31F20
:10068600EA2AA0012016FF34A0017C1C4B2B18225D
:04069600003E08001A
:10069A0020002230FC00F801F901FA01FB01FC03F9
:1006AA000319822B0310FB0CFA0CF90CF80CF30C4F
:1006BA00F20CF10CF00C031C542BFC030319742BE1
:1006CA007408F80775080318750FF90776080318F0
:1006DA00760FFA0777080318770FFB07582B740869
:1006EA00F80775080318750FF90776080318760FC7
:0C06FA00FA0777080318770FFB070800C9
:1007060001302E00E80026006E082E00E7062D00B8
:10071600670884006808850026006E08003A0319F9
:10072600982B2D00690880049B2B29006F088005F3
:1007360026006D082E00EE002422E709680803193A
:10074600BF2B68086705F000031DAD2B2D00690857
:100756008004B02B29006F0880052E00E835023092
:1007660026006D022E00EE0024220000000000008C
:10077600000000000000A12B26006E08003A0319B5
:10078600C82B29006F088005CB2B2D006908800433
:0C07960026006D082E00EE002422080052
:1007A2002E00EB0105306B020318E12B6B08690781
:1007B200860000306A3D870020308100EB0AD32B8F
:1007C2006B086907860000306A3D87008101EB03F0
:1007D2006B086907EC0000306A3DED000A30F40056
:1007E200F5016708F0006808F10040227808F0007F
:1007F2007908F1003030F0072E006C0886006D0891
:100802008700700881000A30F400F5016708F000E3
:100812006808F100402270082E00E7007108E80025
:1008220000307106031D172C00307006031D1A2CB0
:080832001C2CEB03E92B08006C
:10083A002E00EA0167088400680885000008E900BC
:10084A006908003A0319372C6908EE0036222E008F
:10085A00EA0A6A08670784000030683D85000008D4
:06086A00E900252C080046
:100870002E00E90167088400680885000008F00080
:100880007008031D5E2C6430690203185E2C670833
:100890008400680885000008F0007008031D5D2CC6
:1008A000E90A0530FB000F30FC00F130FD00FD0BC4
:1008B000572CFC0B572CFB0B572C3A2C6708840049
:1008C0006808850000080319672CF001692C0130C5
:0408D000F00008002C
:1008D4002F0020082D00DB002F0021082D00DC0054
:1008E4002F0022082D00DD002F0023082D00DE003C
:1008F4002F0024082D00E3002F0025082D00E4001C
:100904002F0026082D00E5002F0027082D00E60003
:100914002F0028082D00DF002F0029082D00E000FB
:100924002F002A082D00E1002F002B082D00E200E3
:100934002F002C082900EB002F002D082900EC00C3
:100944002F002E082900ED002F002F082900EE00AB
:02095400080099
:0E09560055303C008F00AA308F000F140800AF
:100964002E005008F4005108F5007408F2007508D0
:10097400F300F40A0319F50A5208F0005308F100D1
:10098400D20A0319D30A700884007108850072081A
:1009940086007308870000088100720884007308C9
:1009A400850000080319D72CB72C5008F000510813
:0409B400F100080046
:1009B8002000FB01FA01F9018030F800F10CF00C7D
:1009C800031CEF2C7408F90775080318750FFA074C
:1009D8000318FB0A0310F01FF72C7408FA077508B0
:1009E8000318750FFB07FB0CFA0CF90CF80C031C29
:1009F800E22C7B08F3007A08F2007908F100780805
:040A0800F0000800F2
:100A0C002E00D201D3015008F3005108F400500815
:100A1C00F5005108F600730884007408850000087E
:100A2C00203A031D1E2D52085304031D1E2D2F2D7D
:100A3C000130D2000030D3007308840074088500A4
:100A4C00750886007608870000088100F50A0319EE
:100A5C00F60A7308F1007408F200F30A0319F40A99
:100A6C0071088400720885000008003A031D112DDE
:0A0A7C005008F0005108F1000800D6
:100A86002E005008F4005108F5007408840075081B
:100A9600850000080319532DF40A0319F50A482D99
:100AA6005408550403197B2D7408F2007508F300E9
:100AB600F40A0319F50A5208F0005308F100D20AA5
:100AC6000319D30A7008840071088500720886002D
:100AD6007308870000088100720884007308850087
:100AE600000803197B2D0130D4020030D53B532D6D
:100AF60000305506031D812D00305406031D882D38
:100B0600740886007508870081015008F0005108B6
:040B1600F1000800E2
:100B1A002000CE012E00520886005308870081016A
:100B2A005008E7005108E8001D245208E70053085E
:100B3A00E800382470080319A52D0130F000A62D0D
:040B4A00F0010800AE
:100B4E002E0050082D00E7002E0051082D00E80061
:100B5E002E005208F0000130F20070080319BA2D71
:100B6E00F235FF3EB52D72082600EF007209270000
:100B7E00EF002E005308F1000130F0007108031948
:100B8E00CB2DF035FF3EC62D70082D00E900F00983
:100B9E0070082900EF0080302E00500784000030CE
:100BAE00513D850072088004700880052600EE0114
:100BBE002E0058080319E52D2600EE092600803078
:100BCE0084026E08003A0319F02D29006F08800583
:100BDE00F32D2D00690880048822E830F4000330DC
:100BEE00F500F601F7014D2370082E00E3007108A1
:100BFE00E4007208E5007308E6006308D900640893
:100C0E00DA006508DB006608DC005408F0005508C1
:100C1E00F1005608F2005708F300F035F10DF20D11
:100C2E00F30DF035F10DF20DF30D0A30F400F50170
:100C3E00F601F7014D2370082E00DD007108DE006D
:100C4E007208DF007308E0007008F4007108F50008
:100C5E007208F6007308F7006308F0006408F100EC
:100C6E006508F2006608F3009B2270082E00E10072
:100C7E007108E2007108F400F50174087504031997
:100C8E004B2E0230F000A22E61082600ED002E0041
:100C9E005D08F4005E08F5005F08F6006008F700D6
:100CAE005908F0005A08F1005B08F2005C08F300E6
:100CBE009B227808F0007908F1007A08F2007B0890
:100CCE00F30070082E00D9007108DA007208DB00FC
:100CDE007308DC005D08F5005E08F6005F08F7009B
:100CEE006008F800F837F70CF60CF50C8030780633
:100CFE00F400803073067402031D8F2E7208770283
:100D0E00031D8F2E71087602031D8F2E700875023B
:100D1E000318932E2600ED0A26006D08F100F13619
:100D2E0071082500EF00073071020318A12E013063
:080D3E00F000A22EF0010800F4
:0A0D460071088A007008820008009E
:100D50002E00D601D7015008D8005108D9008030A4
:100D60005106F00080307002031DB82E0030500292
:100D70000318C62E0130D6000030D7005008003CC2
:100D8000D8005108031C013ED901D9025808E700D8
:100D90005908E8005208E9005308EA00D123063058
:100DA000D4000030D5005508003C031DD92E54084E
:100DB000003C0318F42E5408520786005508533D92
:100DC000870001305402F0000030553BF1007008FC
:100DD000520784007108533D8500000881000130EE
:100DE000D4020030D53BD32E52088600530887002A
:100DF000203081005608570403191A2FD401D50159
:100E00005408520784005508533D85000008203AD5
:100E1000031D0E2FD40A0319D50A002F0130D40266
:100E20000030D53B5408520786005508533D8700D3
:060E30002D3081000800D6
:0E0E360055303C008F00AA308F000F100800CE
:100E44007E302F00A0000230A1000030A20000304C
:100E5400A300FF30A400FF30A500FF30A600FF3040
:100E6400A7007230A8000230A9000030AA000030A8
:100E7400AB007830AC000230AD000030AE00003082
:080E8400AF006A248F22080070
:100E8C002E005008F4005108F50074088400750811
:100E9C00850000080319562FF40A0319F50A4B2F85
:100EAC007408F2007508F300F40A0319F50A5208E5
:100EBC00F0005308F100D20A0319D30A7008840019
:100ECC00710885007208860073088700000881008D
:100EDC00720884007308850000080319762F562FBA
:0A0EEC005008F0005108F100080062
:100EF6002E0050088400510885000008003A0319A6
:100F06008F2F50088400510885000008E7008323CE
:0A0F1600D00A0319D10A7B2F08004E
:100F2000DF302E00D0000030D1007B27DA30D00037
:100F30000030D1006F30D2000030D3008D25700812
:0E0F40000319A52F0130F000A62FF0010800C4
:100F4E0020302E00D0000230D1007B27AF30D000F1
:100F5E000130D1006F30D2000030D3008D257008E3
:0E0F6E000319BC2F0130F000BD2FF001080068
:0E0F7C002D005B08F0005C08F100A3260800C1
:100F8A00D4302E00D0000230D1007B27C930D000E7
:100F9A000230D1006F30D2000030D3008D257008A6
:100FAA000319DA2F0130F000DD2F2500EE01F001E0
:020FBA0008002D
:100FBC0012001E00F003031DDE2FF103031DDE2FB4
:020FCC0008001B
:101000002E00BF01CD30D0000030D10080317B27D1
:101010008831B801B901B201B301073020004E0296
:10102000F100F2010030F23B80302E003306F00078
:10103000803072067002031D1F28710832020318E7
:10104000C52800303906031D272800303806031D47
:10105000C5284130F0002330F100320870078400C9
:101060003308713D85000008F1007108433A031D03
:10107000C12801303207F2000030333DF300413027
:10108000F0002330F1007208700784007308713D8E
:1010900085000008F1007108473A031DC12802309D
:1010A0003207F2000030333DF3004130F0002330CE
:1010B000F1007208700784007308713D8500000814
:1010C000F10071084E3A031DC12803303207F200C7
:1010D0000030333DF3004130F0002330F10072085E
:1010E000700784007308713D85000008F1007108E5
:1010F000533A031DC12804303207F2000030333D5B
:10110000F3004130F0002330F100720870078400D2
:101110007308713D85000008F1007108493A031D0C
:10112000C12805303207F2000030333DF300413072
:10113000F0002330F1007208700784007308713DDD
:1011400085000008F10071084E3A031DC1280630E1
:101150003207F2000030333DF3004130F00023301D
:10116000F1007208700784007308713D8500000863
:10117000F1007108463A031DC1280130B800003063
:10118000B900B20A0319B30A0D2800303906031D4D
:10119000CB2800303806031DD0280130F000F32A98
:1011A000B801B9013208B4003308B5008030350603
:1011B000F00080307002031DE12820004E082E0050
:1011C00034020318032900303906031DE9280030D2
:1011D0003806031D03294130F0002330F1003408A4
:1011E000700784003508713D85000008F100710822
:1011F0000D3A031DFF280130B8000030B900B40AD1
:101200000319B50AD62800303906031D0929003014
:101210003806031D0E290130F000F32A0130B20216
:101220000030B33B320820004E022E00BC0041309B
:10123000BA002330BB003208BA073308BB3D083080
:10124000B2000030B3000130B4000030B50080308F
:101250003306F00080307002031D30293C08320252
:1012600003185F298030F000803035067002031DBE
:101270003B293408093C031C5F2932083A078400E3
:1012800033083B3D850000082C3A031D4B29B40A66
:101290000319B50A5B2900303506031D51290230B8
:1012A0003406031D5B2932083A07840033083B3DAE
:1012B00085000008BF00B20A0319B30A27293F08B6
:1012C000313A031DF12A0130BD00BE012500EB01BA
:1012D000EC0108302E00B2000030B3000130B40041
:1012E0000030B50080303306F00080307002031DFE
:1012F0007B293C0832020318872A8030F0008030B6
:1013000035067002031D86293408093C031C872A10
:1013100032083A07840033083B3D850000082C3A28
:10132000031D9A29B40A0319B50AB601B7010130A1
:10133000BD00822A00303506031DA0290130340685
:10134000031DAC2932083A07840033083B3D850071
:1013500000082000EE00822A00302E003506031D12
:10136000B32902303406031DBF2932083A0784002E
:1013700033083B3D850000082500ED00822A00303F
:101380002E003506031DC62903303406031DFE2931
:1013900032083A07840033083B3D850030300002B4
:1013A000031CF12932083A07840033083B3D8500CD
:1013B0000008393C031CF1293E08003A031DF129BD
:1013C0002030360786000430373D870032083A0760
:1013D000840033083B3D850000088100B60A0319EC
:1013E000B70A32083A07840033083B3D85000008FD
:1013F0002E3A031DFD290130BE00822A0030350639
:10140000031D042A04303406031D182A54303607FD
:1014100086000430373D870032083A0784003308DD
:101420003B3D850000088100B60A0319B70A822AED
:1014300000303506031D1E2A05303406031D322AEE
:101440004830360786000430373D870032083A07B7
:10145000840033083B3D850000088100B60A03196B
:10146000B70A822A00303506031D382A06303406B2
:10147000031D822A32083A07840033083B3D850069
:1014800030300002031C762A32083A078400330801
:101490003B3D85000008393C031C762A3D080319B2
:1014A000762A25006B08F0006C08F1000A30F40081
:1014B0000030F5008031DC24883170082500EB0015
:1014C0007108EC002E0032083A07840033083B3DD7
:1014D000850030300002F200F3010030F33B720867
:1014E00070072500EB007308713DEC002E003208F8
:1014F0003A07840033083B3D850000082E3A031D5F
:10150000822ABD012E00B20A0319B30A72292030C3
:10151000D0000130D10080317B27883120006E0857
:101520002E00E700803183238831CC30D000033097
:10153000D10080317B27883125006D082E00E7001F
:101540008031832388312F30D0000330D1008031A7
:101550007B2788312030D0000430D10080317B27B8
:1015600088314530D0000330D10080317B2788316D
:101570005430D0000430D10080317B278831B63020
:10158000D0000330D10080317B2788314830D00033
:101590000430D10080317B278831A030D000033067
:1015A000D10080317B27883125006B082E00D000C8
:1015B00025006C082E00D1002830D2000730D3005F
:1015C0008031A82688312830D0000730D100803102
:1015D0007B2788310D30E700803183238831F0018B
:0815E000F32A0130F0000800BD
:1015E800BB302E00D0000130D10080317B278831FC
:1015F80025006B082E00D00025006C082E00D100B5
:101608002830D2000730D3008031A826883128300E
:10161800D0000730D1008031062588313030D00025
:101628000730D100C730D2000130D3008031B22456
:1016380088313030D0000730D100CB30D2000630AE
:10164800D3001430D4000030D500803143258831D0
:101658003030D0000730D100EE30D2000030D30057
:1016680080314627883125006D08313A031D7D2BCE
:1016780030302E00D0000230D10080317B278831F5
:10168800EA30D0000130D10080317B27883120300A
:10169800D0000430D10080317B2788314930D00018
:1016A8000230D10080317B2788315430D00004309B
:1016B800D10080317B2788314330D0000230D100FF
:1016C80080317B2788314830D0000430D100803108
:1016D8007B2788313530D0000130D10080317B271D
:1016E80088312830D0000730D10080317B278831FD
:1016F800852B2E004F30D0000030D10080317B2761
:061708008831F001080029
:10170E002000FB01FA01F901F801A001730DF80D9B
:10171E007408F8027508031C750FF9027608031C8D
:10172E00760FFA027708031C770FFB020001031CE9
:10173E000130A002F30D0730FC00730DF80DF90D0A
:10174E00FA0DFB0DA00D7408731CBF2BF802750863
:10175E00031C750FF9027608031C760FFA02770840
:10176E00031C770FFB020001031C0130A002D02BDB
:10177E00F80775080318750FF90776080318760F22
:10178E00FA0777080318770FFB07000103180130DB
:10179E00A007F30DFC0BA42B720DF80DF90DFA0D2D
:1017AE00FB0DA00D7408731CEE2BF8027508031CBC
:1017BE00750FF9027608031C760FFA027708031CE0
:1017CE00770FFB020001031C0130A002FF2BF8076C
:1017DE0075080318750FF90776080318760FFA07C0
:1017EE0077080318770FFB07000103180130A007D5
:1017FE00F20D0730FC00720DF80DF90DFA0DFB0D10
:10180E00A00D7408721C1D2CF8027508031C750FB0
:10181E00F9027608031C760FFA027708031C770F7D
:10182E00FB020001031C0130A0022E2CF8077508E4
:10183E000318750FF90776080318760FFA0777085D
:10184E000318770FFB07000103180130A007F20DF4
:10185E00FC0B022C710DF80DF90DFA0DFB0DA00D00
:10186E007408721C4C2CF8027508031C750FF902D3
:10187E007608031C760FFA027708031C770FFB021B
:10188E000001031C0130A0025D2CF8077508031837
:10189E00750FF90776080318760FFA0777080318FD
:1018AE00770FFB07000103180130A007F10D073079
:1018BE00FC00710DF80DF90DFA0DFB0DA00D74085D
:1018CE00711C7B2CF8027508031C750FF902760843
:1018DE00031C760FFA027708031C770FFB02000138
:1018EE00031C0130A0028C2CF80775080318750F25
:1018FE00F90776080318760FFA0777080318770F9B
:10190E00FB07000103180130A007F10DFC0B602C42
:10191E00700DF80DF90DFA0DFB0DA00D7408711C6C
:10192E00AA2CF8027508031C750FF9027608031C21
:10193E00760FFA027708031C770FFB020001031CD7
:10194E000130A002BB2CF80775080318750FF907B4
:10195E0076080318760FFA0777080318770FFB0738
:10196E00000103180130A007F00D0730FC00700DC8
:10197E00F80DF90DFA0DFB0DA00D7408701CD92C85
:10198E00F8027508031C750FF9027608031C760F12
:10199E00FA027708031C770FFB020001031C0130CB
:1019AE00A002EA2CF80775080318750FF9077608D8
:1019BE000318760FFA0777080318770FFB07000155
:1019CE0003180130A007F00DFC0BBE2C7018FD2C77
:1019DE007408F80775080318750FF90776080318C9
:0E19EE00760FFA0777080318770FFB0708003B
:1019FC002E00AC01AD01B130D0000230D1008031ED
:101A0C007B2788316730D0000230D1006F30D20094
:101A1C000030D30080318D25883170080319192DC1
:101A2C000130F000352EA801A9012C082D04031D4E
:101A3C00932D0B3020004E02F100F2010030F23BEE
:101A4C0080302E002906F000803072067002031DD3
:101A5C00312D710828020318932D4130F0002330EA
:101A6C00F1002808700784002908713D85000008E2
:101A7C00F1007108433A031D8F2D01302807F20045
:101A8C000030293DF3004130F0002330F1007208A2
:101A9C00700784007308713D85000008F10071081F
:101AAC00533A031D8F2D02302807F2000030293DD8
:101ABC00F3004130F0002330F1007208700784000D
:101ACC007308713D85000008F1007108513A031D3F
:101ADC008F2D03302807F2000030293DF3004130F0
:101AEC00F0002330F1007208700784007308713D18
:101AFC0085000008F10071083A3A031D8F2D05305E
:101B0C002807AA000030293DAB000130AC000030A2
:101B1C00AD00A80A0319A90A1B2D2C082D04031DBE
:101B2C009A2D0130F000352EA801A901803029062C
:101B3C00F00080307002031DA52D0330280203181D
:101B4C00DB2D28082A07F20029082B3DF300413031
:101B5C00F0002330F1007208700784007308713DA7
:101B6C0085000008F10071082C3A0319DB2DA03018
:101B7C00280786000030293D870028082A07F20034
:101B8C0029082B3DF3004130F0002330F10072089E
:101B9C00700784007308713D85000008F000700820
:101BAC008100A80A0319A90A9C2DA03028078600D9
:101BBC000030293D8700810101302807F0000030FA
:101BCC00293DF1007008AA077108AB3DA801A901D5
:101BDC0080302906F00080307002031DF72D033091
:101BEC00280203182D2E28082A07F20029082B3D5D
:101BFC00F3004130F0002330F100720870078400CC
:101C0C007308713D85000008F10071080D3A031945
:101C1C002D2EAD30280786000030293D870028087E
:101C2C002A07F20029082B3DF3004130F000233045
:101C3C00F1007208700784007308713D850000087C
:101C4C00F00070088100A80A0319A90AEE2DAD3026
:101C5C00280786000030293D87008101F00108002B
:101C6C001F30210097008B13FF308C00FF308E004B
:101C7C0022008C018E0123008C018E012200911315
:101C8C00931321008C1220008C1221000C122000C6
:101C9C000C1221008E140E1180311B27883132005A
:101CAC00951211303C00A40014303D00A20080318C
:101CBC00AB24883123009F1540309B0003309C00DF
:101CCC001E158031222788310530FB000F30FC00B7
:101CDC00F130FD00FD0B702EFC0B702EFB0B702EEB
:101CEC0021009116200091120E302E00D0000030F1
:101CFC00D1000530D2000430D3008030D400253020
:101D0C00D500D601D701D8018031A72588310530FF
:101D1C00FB000F30FC00F130FD00FD0B932EFC0B93
:0C1D2C00932EFB0B932E0B178B17080057
:101D38005A302E00D0000230D10080317B27883104
:101D480021000C1122000C1121000E144F302E001E
:101D5800D0000230D1006F30D2000030D300803183
:101D68008D25883170080319BC2E0130F0000F2F23
:101D7800A030D0000130D10080317B278831673016
:101D8800D0000130D1006F30D2000030D300803154
:101D98008D25883170080319D42E0230F0000F2FDA
:101DA8003B30D0000130D10080317B27883147306B
:101DB800D0000130D1006F30D2000030D300803124
:101DC8008D25883170080319EC2E0330F0000F2F91
:101DD8005530D0000130D10080317B278831D03098
:101DE800D0000130D1006F30D2000030D3008031F4
:101DF8008D25883170080319042F0430F0000F2F47
:101E0800DB30D0000130D10080317B2788310130B0
:081E18002500EE00F0010800B6
:101E200020302E00D0000330D10080317B27883154
:101E3000BE30D0000230D1006F30D2000030D3006D
:101E400080318D25883170080319292F0130F00069
:0C1E50002D2F01302500EE00F0010800ED
:102000002D302E00D0000030D10080317B27903160
:102010002430D0000030D1006F30D2000030D30027
:1020200080318D2590317008031919280130F00096
:102030001929AA01AB01A801A90100302B06031D33
:10204000232800302A06031DA22880302906F0002C
:1020500080307002031D302820004E082E00280218
:102060000318A2284130F0002330F100280870073F
:1020700084002908713D85000008F10071082B3AA1
:10208000031D9E2801302807F2000030293DF3008F
:102090004130F0002330F1007208700784007308AB
:1020A000713D85000008F1007108433A031D9E2828
:1020B00002302807F2000030293DF3004130F000E3
:1020C0002330F1007208700784007308713D8500A9
:1020D0000008F10071084C3A031D9E2803302807C0
:1020E000F2000030293DF3004130F0002330F100D0
:1020F0007208700784007308713D85000008F100C4
:102100007108433A031D9E2804302807F20000306E
:10211000293DF3004130F0002330F10072087007D0
:1021200084007308713D85000008F1007108433A8E
:10213000031D9E280130AA000030AB00A80A031935
:10214000A90A1D280130A8020030A93B2808200058
:102150004E022E00B0004130AE002330AF00280800
:10216000AE072908AF3D0730A8000030A9000130B4
:10217000AA000030AB0080302906F00080307002E9
:10218000031DC42830082802031805298030F000F8
:1021900080302B067002031DCF282A08063C031C42
:1021A000052928082E07840029082F3D85000008EE
:1021B0002C3A031DE128AA0A0319AB0AAC01AD01B0
:1021C000012900302B06031DE72806302A06031DCF
:1021D0000129CB302C07860006302D3D87002808CA
:1021E0002E07840029082F3D850000088100AC0AD5
:1021F0000319AD0ACB302C07860006302D3D870031
:102200008101A80A0319A90ABB283B30D00000307D
:10221000D10080317B279031CB30D0000630D10007
:1022200080317B2790310D30E7008031832390315E
:04223000F0010800B1
:102234009831002090312D00EB01EC01ED01EE010D
:10224400EF0188313626903120008C165230FB0085
:102254002B30FC000030FD00FD0B2E29FC0B2E2939
:10226400FB0B2E290000640088319C2690317008F5
:102274002D00EF006F0803194E29AD302E00D00059
:102284000430D10080317B27903188319C269031F5
:1022940070082D00EF003C2920008C1264006400BB
:1022A40024006F080319A72967302E00D0000430DA
:1022B400D10080317B279031002070082D00EF0081
:1022C4006F0803197229C4302E00D0000430D100E5
:1022D40080317B279031002070082D00EF006229A7
:1022E400640080319027903170082D00EF006F0852
:1022F40003198B29A0302E00D0000430D100803186
:102304007B27903180319027903170082D00EF00A9
:10231400792964008831F422903170082D00EF008F
:102324006F080319A429D1302E00D0000430D10045
:1023340080317B2790318831F422903170082D0050
:10234400EF0092292400EF0164006430F400F501E9
:10235400F601F7012D006B08F0006C08F1006D0820
:10236400F2006E08F3008831872390317808F0007A
:102374007908F1007A08F2007B08F3000030F400D9
:102384007306031DCF2974087206031DCF29740830
:102394007106031DCF297008003A031DF02980310E
:1023A400A727903170082D00EF007008031DE8295D
:1023B40088310020903170080319E7292030D000BB
:1023C4000530D10080317B279031F0292E00343044
:1023D400D0000530D10080317B2790316430F40087
:1023E400F501F601F7012D006B08F0006C08F1000F
:1023F4006D08F2006E08F300883187239031780865
:10240400F0007908F1007A08F2007B08F30000304C
:10241400F4007306031D182A74087206031D182A93
:1024240074087106031D182A7008003A031D2C2A2B
:102434008831FE24903170082D00EF007008031DD0
:10244400242A2C2ADE302E00D0000430D100803122
:102454007B27903125006D08313A031D802A6E08D0
:102464000319582A8030133AF00080306C06700249
:10247400031D3E2A6B08883C0318582A8031C5275F
:10248400903170082D00EF006F080319582AE230CC
:102494002E00D0000330D10080317B279031803171
:1024A400C527903170082D00EF00462A25006E08DC
:1024B400031D802A80306C06F0008030113A7002CF
:1024C400031D662A94306B020318802A8831102772
:1024D400903170082D00EF006F080319802A343002
:1024E4002E00D0000430D10080317B279031883118
:1024F4001027903170082D00EF006E2A2D000A304D
:10250400F400F501F601F7016B08F0006C08F10026
:102514006D08F2006E08F300883187239031780843
:10252400F0007908F1007A08F2007B08F30000302B
:10253400F4007306031DA82A74087206031DA82A52
:1025440074087106031DA82A7008003A031DAD2AF9
:1025540020000C16AF2A20000C126430F400F501A0
:10256400F601F7012D006B08F0006C08F1006D080E
:10257400F2006E08F3008831872390317808F00068
:102584007908F1007A08F2007B08F3000030F400C7
:102594007306031DD72A74087206031DD72A74080C
:1025A4007106031DD72A7008003A031DDB2A8C1616
:1025B400DC2A8C1201302D00EB070030EC3DED3DA0
:1025C400EE3D0530FB000F30FC00F130FD00FD0B4B
:1025D400E92AFC0BE92AFB0BE92A6430F400F50133
:1025E400F601F7016B08F0006C08F1006D08F200C9
:1025F4006E08F3008831872390317808F000790859
:10260400F1007A08F2007B08F3000030F40073064E
:10261400031D162B74087206031D162B740871060D
:10262400031D162B7008003A031DFB2B5B302E0094
:10263400D0000330D10080317B27903125006D0814
:10264400313A031DBB2B6B082E00D00025006C080B
:102654002E00D1002030D2000730D3008031A826CC
:1026640090312030D0000730D100803106259031E0
:102674002D00EA0120308400043085006A088407B4
:102684000318850A0008003A0319882B6A08043ADB
:102694000319552B6A08063A0319552B6A08083A98
:1026A4000319552B5B2B2E302E00E700803183233A
:1026B40090312D006A08083A031D662B20302E0045
:1026C400E7008031832390312D006A080A3A031908
:1026D400702B6A080C3A0319702B762B3A302E00B3
:1026E400E70080318323903120308400043085005A
:1026F4002D006A0884070318850A00082E00E700E5
:102704008031832390312D00EA0A3C2BE4302E00E3
:10271400D0000230D10080317B2790315430D0007A
:102724000430D10080317B2790316030D0000430F8
:10273400D10080317B2790314830D0000430D10063
:1027440080317B2790314130D0000430D10080317A
:102754007B2790312030D0000730D10080317B2797
:1027640090316E30D0000130D10080317B27903120
:10277400C32B2E00A030D0000230D10080317B2743
:10278400903125006E080319D02BB2302E00D000F2
:102794000030D10080317B279031D82B2E00BB3004
:1027A400D0000030D10080317B279031C530D0007B
:1027B4000030D10080317B279031A030D000003030
:1027C400D10080317B279031A530D0000030D1007A
:1027D40080317B279031AD30D0000030D100803182
:1027E4007B279031EB30D0000030D10080317B2743
:0627F40090315129FC2B7D
:103000007C3084008F3085004A30F0000130F100C0
:1030100024308600003087008031DE2798312E3042
:1030200084008F3085004E30F0000130F100A03078
:103030008600003087008031DE279831E730840039
:10304000873085001530F0000130F1002030860017
:10305000013087008031DE279831033084008030D2
:1030600085000130F0000130F1006E308600003044
:1030700087008031DE279831C63084008F3085008C
:103080003230F0000130F100353086000130870029
:103090008031DE279831443084009630850001303D
:1030A000F0000130F1006F30860000308700803181
:1030B000DE279831F2308400953085000F30F00023
:1030C0000130F100A0308600013087008031DE271A
:1030D000983132308400963085000630F00001309F
:1030E000F10067308600013087008031DE2798319B
:1030F00040308400943085003B30F0000130F10016
:10310000AF308600013087008031DE279831E23011
:103110008400953085001030F0000130F10020303F
:103120008600023087008031DE27983138308400F5
:10313000963085000630F0000130F100EA3086005C
:10314000013087008031DE279831BD308400953012
:1031500085001330F0000130F1003030860002307D
:1031600087008031DE2798313E308400963085001C
:103170000230F0000130F100EE30860000308700B0
:103180008031DE279831423084009630850001304E
:10319000F0000130F1006D30860001308700803191
:1031A000DE27983110308400953085002430F000FF
:1031B0000130F10043308600023087008031DE2785
:1031C0009831E7308400943085002930F0000130D8
:1031D000F100A0308600023087008031DE27983170
:1031E000F83084008F3085000830F0000130F100A5
:1031F00067308600023087008031DE2798317430D6
:103200008400953085001B30F0000130F100C9309A
:103210008600023087008031DE2798317B308400C1
:10322000943085003B30F0000130F1002030860002
:10323000033087008031DE279831FE3084009330E0
:1032400085004230F0000130F100A03086000330EC
:1032500087008031DE279831D0308400953085009A
:103260001230F0000130F1005B308600033087003F
:103270008031DE279831A9308400953085001430E4
:10328000F0000130F10020308600043087008031EA
:10329000DE2798310E308400963085000D30F00026
:1032A0000130F100E2308600033087008031DE27F4
:1032B000983101308400963085000D30F0000130E7
:1032C000F10034308600043087008031DE279831E9
:1032D00024308400963085000730F0000130F10082
:1032E000E4308600023087008031DE2798312B30B1
:1032F0008400963085000730F0000130F100413045
:103300008600043087008031DE279831FE3084004B
:10331000873085000230F0000130F1006E30860009
:10332000013087008031DE27983155308400953098
:1033300085001F30F0000130F10048308600043075
:1033400087008031DE279831FC308400873085008B
:103350000230F0000130F100EB30860002308700CF
:103360008031DE279831B6308400943085003130CA
:10337000F0000130F100A030860004308700803179
:10338000DE27983143308400963085000130F0000C
:103390000130F1006F308600023087008031DE2777
:1033A00098311B308400963085000930F0000130E0
:1033B000F10067308600043087008031DE279831C5
:1033C0008F308400953085001A30F0000130F10014
:1033D000D1308600043087008031DE2798314030BC
:1033E0008400963085000230F0000130F100ED30AD
:1033F0008600023087008031DE2798313430840027
:10340000953085002130F0000130F1002030860039
:0C341000053087008031DE27983108006D
:02000600303494
:100FCE0020342034203420344E34453457342034E9
:100FDE00523475346E342034733474346134743452
:0A0FEE00753473343A3420340034B3
:040FF800003400348D
:040FFC006D3400341C
:0A1E5C002D3431340034003400341A
:101E66000D344234453452343A342034203400346C
:0A1E76002D34313400340034003400
:101E80000D34473453344D343A3420344F344E34C7
:021E900000341C
:101E92000D34473453344D343A3420344F344634BD
:041EA200463400348E
:101EA6000D3452345334533449343A3420340034E4
:101EB6006734703473345F3470346134723473341D
:0A1EC6006534283429340D3400344B
:0A1ED0004134543448340D3400341A
:101EDA0065346E3464345F34633461346C346C3426
:081EEA00283429340D340034C2
:061EF2000D340D34003434
:101EF800413454342B3443344C34433443340D3458
:021F08000034A3
:101F0A006734653474345F346E3475346D346234D6
:0C1F1A0065347234283429340D3400344E
:101F26002034203420342034503468346F346E34F6
:101F3600653420346E3475346D34623465347234ED
:061F46003A34203400349F
:021F4C0000345F
:101F4E00203420342034203453344D345334203450
:101F5E0022344E346F342034763461346C34693428
:101F6E006434203466346934783422342034733443
:0A1F7E0065346E3474340D34003401
:021F8800003423
:021F8A00003421
:0C1F8C00203441344C34543420340034F0
:101F9800203420342034413454344534303420340F
:081FA8004F344B340D340034BA
:101FB000413454342B34433447344E345334503446
:0C1FC000573452343D3431340D340034B9
:101FCC002034203420342B34433447344E345334AF
:101FDC005034573452343D34313420344F344B3434
:041FEC000D3400347C
:101FF000413454342B344334533451340D3400348D
:1027FC000D3420342034203420344E3445345734B6
:10280C00203441346C347434693474347534643425
:0C281C0065343A34203420342034003479
:102828000D3420342034203420344E344534573489
:1028380020344C346F346E346734693474347534EE
:0C284800643465343A3420342034003409
:102854000D3420342034203420344E34453457345D
:102864002034463469347834203473347434613415
:0C2874007434753473343A34203400346A
:10288000413454342B34433447344E345334493474
:082890004E3446340D340034CF
:10289800733465346E3464345F3473346D34733434
:0828A800283429340D340034FA
:1028B000413454342B3443344D34473453343D3451
:0228C0000034E2
:1028C200413454342B3443344D34473446343D344C
:0628D20031340D34003426
:1028D8002034203420342B3443344D3447344634A8
:0E28E8003D34313420344F344B340D34003441
:1028F600673473346D345F3470346F3477346534D1
:0E29060072346F346E34283429340D340034AA
:102914000D3420342034203420344E34453457349C
:1029240020345534543443342034743469346D348D
:0C29340065343A34203420342034003460
:102940000D3420342034203420344E344534573470
:1029500020344C34613474346934743475346434E0
:0C29600065343A34203420342034003434
:10296C002034203420342034543449344D3445340C
:0A297C004F34553454340D34003448
:10298600543449344D3445344F34553454343A3440
:1029960020344734503453342F34473453344D3471
:0E29A600203469346E34693474340D340034D6
:1029B4002034203420342034543449344D344534C4
:0A29C4004F34553454340D34003400
:1029CE004E346F342034763461346C34693464346C
:1029DE002034663469347834203479346534743470
:0229EE000034B3
:1029F00072346534613464345F34723473347334E4
:0A2A00006934283429340D34003401
:102A0A00413454342B344334463455344E343D34F3
:062A1A0031340D340034DC
:0C2A200020344C344F344E342034003449
:0C2A2C0020344C34413454342034003445
:102A3800413454342B344334463455344E343D34C5
:062A480031340D340034AE
:102A4E0066346F346E3461345F3469346E34693495
:0A2A5E007434283429340D34003498
:102A680020342034203420344234753466346634BB
:102A780065347234203469346E34763461346C349D
:082A8800693464340D3400349C
:102A90002034203420342034543449344D344534E7
:0A2AA0004F34553454340D34003423
:102AAA00303400340034003400340034003400344C
:082ABA00003400340034003444
:102AC2003034003400340034003400340034003434
:082AD20000340034003400342C
:0E2ADA003B3420344C344F344E34203400341E
:102AE800413454342B344334463455344E343D3415
:062AF80030340D340034FF
:102AFE00673473346D345F3470346F3477346534C7
:102B0E0072346F3466346634283429340D3400340C
:102B1E002034203420342034543449344D34453458
:0A2B2E004F34553454340D34003494
:102B38002034203420342034543449344D3445343E
:0A2B48004F34553454340D3400347A
:102B520030340034003400340034003400340034A3
:102B620000340034003400340034003400340034C3
:082B720000340034003400348B
:102B7A00203420342034203453344D345334203418
:102B8A0064346134743461342034733465346E349B
:062B9A0074342034003405
:102BA0000D344434493441344734203449344E34AC
:102BB00046344F343A340D344734503453343A3475
:042BC0002034003489
:102BC4006734653474345F346734703473345F3419
:102BD4006434613474346134283429340D34003459
:102BE4002034203420342B344334463455344E348A
:0E2BF4003D34313420344F344B340D34003432
:102C02002034203420342034543449344D34453473
:0A2C12004F34553454340D340034AF
:102C1C002034203420342034543449344D34453459
:0A2C2C004F34553454340D34003495
:102C3600523449344E34473449344E3447340D34D3
:022C4600003458
:0E2C48003B3420344C344134543420340034B6
:0E2C56003B34203441344C34543420340034A8
:0C2C640041345434453430340D34003415
:0C2C7000203455345434433420340034F4
:042C7C000D340034DF
:022C80003034EE
:022C820000341C
:022C840000341A
:022C8600003418
:022C8800003416
:020000040001F9
:08000E0004292E3A030003004F
:00000001FF
