:040000009031A52B6B
:1000080070082000A3007108A2007208A1008031C6
:10001800911EE6288030F0008030003A7002031DFF
:100028001828F930210020020318E628E82770086C
:100038002E00C0001030F1002330F200210020080B
:10004800710786000030723D870070088100AF2874
:100058002E0040084F3A031D352801302100ED00DD
:100068004F282E004008453A031D3E280230210043
:10007800ED004F282E004008523A031D472806304D
:100088002100ED004F282E0040083E3A031D4F285E
:1000980001302100EE00D4282E0040084B3A031D01
:1000A800582801302100A1002100ED01D4282E009C
:1000B8004008523A031D642803302100ED006628E9
:1000C8002100ED01D4282E004008523A031D702863
:1000D80004302100ED0072282100ED01D4282E0003
:1000E80040084F3A031D7C2805302100ED007E288A
:1000F8002100ED01D4282E004008523A031D87281C
:1001080001302100EC002100ED01D4282E00400828
:10011800493A031D932807302100ED009528210056
:10012800ED01D4282E0040084E3A031D9F280830C0
:100138002100ED00A1282100ED01D4282E0040085F
:10014800473A031DAA2801302200ED002100ED01E5
:10015800D428ED01D4286D08003A03192C286D081D
:10016800013A031950286D08023A03195B286D08F3
:10017800033A031967286D08043A031973286D08B0
:10018800053A03197F286D08063A03198A286D086D
:10019800073A031996286D08083A0319A228AD28CA
:1001A8002100200AF0007008A0001030F000233071
:1001B800F1002008700786000030713D870081013A
:1001C8002000911220002308F0002208F1002108E5
:0401D800F200090028
:1001DC002000F801F9011030FC00710DF80DF90D3B
:1001EC007408F8027508031C750FF9020318052929
:1001FC007408F80775080318750FF9070310F00D4C
:08020C00F10DFC0BF3280800C2
:1002140023009E180F2900000A292E003F082300FE
:040224009A00080034
:100228002E00BF03BF033F08003C03182029BF036B
:100238000000000000001729000000000000000076
:0402480000000800AA
:10024C00FB09FA09F909F809F80A0319F90A03195B
:08025C00FA0A0319FB0A08006D
:100264007408F8027508031C750FF9027608031C5C
:10027400760FFA027708031C770FFB02F30D0730A1
:10028400FC00730DF80DF90DFA0DFB0D7408731CC9
:100294005929F8027508031C750FF9027608031C26
:1002A400760FFA027708031C770FFB026629F8071A
:1002B40075080318750FF90776080318760FFA07FF
:1002C40077080318770FFB07F30DFC0B4329720D16
:1002D400F80DF90DFA0DFB0D7408731C7F29F80253
:1002E4007508031C750FF9027608031C760FFA02D1
:1002F4007708031C770FFB028C29F807750803188D
:10030400750FF90776080318760FFA0777080318AC
:10031400770FFB07F20D0730FC00720DF80DF90D95
:10032400FA0DFB0D7408721CA529F8027508031C4C
:10033400750FF9027608031C760FFA027708031C7E
:10034400770FFB02B229F80775080318750FF90730
:1003540076080318760FFA0777080318770FFB0758
:10036400F20DFC0B8F29710DF80DF90DFA0DFB0D33
:100374007408721CCB29F8027508031C750FF90266
:100384007608031C760FFA027708031C770FFB022A
:10039400D829F80775080318750FF90776080318A4
:1003A400760FFA0777080318770FFB07F10D07306C
:1003B400FC00710DF80DF90DFA0DFB0D7408711C9C
:1003C400F129F8027508031C750FF9027608031C5D
:1003D400760FFA027708031C770FFB02FE29F80751
:1003E40075080318750FF90776080318760FFA07CE
:1003F40077080318770FFB07F10DFC0BDB29700D51
:10040400F80DF90DFA0DFB0D7408711C172AF8028A
:100414007508031C750FF9027608031C760FFA029F
:100424007708031C770FFB02242AF80775080318C2
:10043400750FF90776080318760FFA07770803187B
:10044400770FFB07F00D0730FC00700DF80DF90D68
:10045400FA0DFB0D7408701C3D2AF8027508031C84
:10046400750FF9027608031C760FFA027708031C4D
:10047400770FFB024A2AF80775080318750FF90766
:1004840076080318760FFA0777080318770FFB0727
:10049400F00DFC0B272A70185D2A7408F8077508FC
:1004A4000318750FF90776080318760FFA0777080B
:0804B4000318770FFB07080095
:1004BC0023001908F1009D1C652A1D121D167108D8
:0404CC00F000080034
:0C04D00000302000911A0130F0000800FC
:0C04DC00003023009E180130F0000800E2
:0C04E80000302000911A0130F0000800E4
:0C04F400003023009E180130F0000800CA
:1005000023001908F1009D1C872A1D121D16710871
:04051000F0000800EF
:1005140020002230FC00F801F901FA01FB01FC0380
:100524000319BF2A0310FB0CFA0CF90CF80CF30C9A
:10053400F20CF10CF00C031C912AFC030319B12AF0
:100544007408F80775080318750FF9077608031877
:10055400760FFA0777080318770FFB07952A7408B4
:10056400F80775080318750FF90776080318760F4E
:0C057400FA0777080318770FFB07080050
:100580002E00B1012F088400300885000008F0001B
:100590007008031DE62A643031020318E62A2F088A
:1005A0008400300885000008F0007008031DE52A6B
:1005B000B10A0530FB000F30FC00F130FD00FD0BEF
:1005C000DF2AFC0BDF2AFB0BDF2AC22A2F0884005C
:1005D0003008850000080319EF2AF001F12A0130E4
:0405E000F00008001F
:1005E40001302E00B00025006F082E00AF06260053
:1005F4006B0884006C08850025006F08003A031915
:10060400072B22006E0880040A2B23006F08800544
:1006140022006F082E00BF001421AF09300803190F
:100624002E2B30082F05F000031D1C2B22006E0812
:1006340080041F2B23006F0880052E00B035023084
:1006440022006F022E00BF001421000000000000F1
:10065400000000000000102B25006F08003A031969
:10066400372B23006F0880053A2B22006E08800484
:0C06740022006F082E00BF0014210800B7
:1006800023009E1690309D002000911E4B2B2300CE
:080690001908F000442B0800DA
:100698007408003A031D652B7508003A031D652B85
:1006A8007608003A031D652B7708003A031D652B71
:1006B800FF30F000FF30F100FF30F2007F30F30030
:1006C800FD2B2000FC01F71BFC0AFD01FB01FA01D0
:1006D800F901F80173087204710470040319F82B06
:1006E80073087706A000A01BFD09F71F862BF409E5
:1006F800F509F609F709F40A0319F50A0319F60AC0
:100708000319F70AF31F932BF009F109F209F3090A
:10071800F00A0319F10A0319F20A0319F30A730814
:100728007704A000A01BB42B3221FC1BD12BFD1F8A
:10073800F82BF009F109F209F309F00A0319F10A93
:100748000319F20A0319F30AF809F909FA09FB0966
:10075800F80A0319F90A0319FA0A0319FB0AF82B0C
:10076800F71FCB2BF31BC52B7308FB007208FA008D
:100778007108F9007008F800F301F201F101F001C5
:100788009B2BF301F201F101F001F00A0034F309A7
:10079800F209F109F009FC17982BF80A0319F90A6C
:1007A8000319FA0A0319FB0A74087802031D9B2B24
:1007B80075087902031D9B2B76087A02031D9B2B73
:1007C80077087B02031D9B2BFB01FA01F901F80155
:1007D800F00A0319F10A0319F20A0319F30AF31FBD
:1007E8009B2BA0012016FF34A0017C1CFC2B26218A
:0407F800003E0800B7
:0E07FC000030F0007D30F100F201F301080042
:10080A002E00B2012F088400300885000008B100CC
:10081A003108003A03191F2C3108BF000A212E00A3
:10082A00B20A32082F0784000030303D85000008E4
:06083A00B1000D2C0800C6
:100840002E00B301053033020318302C3308310772
:1008500086000030323D870020308100B30A222C10
:100860003308310786000030323D87008101B30331
:1008700033083107B4000030323DB5000A30F400CF
:10088000F5012F08F0003008F100EE207808F000A4
:100890007908F1003030F0072E0034088600350862
:1008A0008700700881000A30F400F5012F08F0007D
:1008B0003008F100EE2070082E00AF007108B00083
:1008C00000307106031D662C00307006031D692C74
:0808D0006B2CB303382C080067
:1008D8002E002F082D00A0002E0030082D00A100AA
:1008E8002E0031082D00A2002E0032082D00A30092
:1008F8002E0033082C00EA002E0034082C00EB00F0
:100908002E0035082C00EC002E0036082C00ED00D7
:100918002E0037082800E9002E0038082800EA00D1
:100928002E0039082800EB002E003A082800EC00B9
:100938002E003B082700EB002E003C082700EC00A7
:100948002E003D082700ED002E003E082700EE008F
:02095800080095
:10095A002D00EA01EB016808F3006908F400680851
:10096A00F5006908F6007308840074088500000819
:10097A00203A031DC52C6A086B04031DC52CD62C0E
:10098A000130EA000030EB00730884007408850027
:10099A00750886007608870000088100F50A0319A1
:1009AA00F60A7308F1007408F200F30A0319F40A4C
:1009BA0071088400720885000008003A031DB82CEB
:0A09CA006808F0006908F100080059
:1009D4002E0020082600EB002E0021082600EC0043
:1009E4002E002208F0000130F20070080319FD2CDB
:1009F400F235FF3EF82C72082600EE007209ED0075
:100A04002E002308F1000130F000710803190D2DA8
:100A1400F035FF3E082D70082200EE00F009700842
:100A24002300EF0080302E00200784000030213D99
:100A3400850072088004700880052500EF012E00EF
:100A440028080319272D2500EF092500803084028A
:100A54006F08003A0319322D23006F088005352DE5
:100A640022006E088004FE23E830F4000330F50011
:100A7400F601F7018A2270082E00AB007108AC0061
:100A84007208AD007308AE002B082D00E8002E009C
:100A94002C082D00E9002E002D082D00EA002E0060
:100AA4002E082D00EB002E002408F0002508F1008C
:100AB4002608F2002708F300F035F10DF20DF30DCE
:100AC400F035F10DF20DF30D0A30F400F501F601E5
:100AD400F7018A2270082D00EC007108ED007208FD
:100AE400EE007308EF007008F4007108F500720856
:100AF400F6007308F7002E002B08F0002C08F10014
:100B04002D08F2002E08F3004C2370082E00A900D3
:100B14007108AA007108F400F5017408750403193A
:100B2400962D0230F000ED2D29082200EF002D0053
:100B34006C08F4006D08F5006E08F6006F08F70005
:100B44006808F0006908F1006A08F2006B08F30015
:100B54004C237808F0007908F1007A08F2007B0849
:100B6400F30070082D00E8007108E9007208EA003B
:100B74007308EB006C08F5006D08F6006E08F700CA
:100B84006F08F800F837F70CF60CF50C803078068F
:100B9400F400803073067402031DDA2D72087702A4
:100BA400031DDA2D71087602031DDA2D7008750213
:100BB4000318DE2D2200EF0A22006F08F100F1363F
:100BC40071082600EF00073071020318EC2D013084
:080BD400F000ED2DF001080016
:100BDC002D006808F4006908F50074088400750895
:100BEC00850000080319FE2DF40A0319F50AF32DEC
:100BFC006C086D040319262E7408F2007508F300B6
:100C0C00F40A0319F50A6A08F0006B08F100EA0A05
:100C1C000319EB0A700884007108850072088600BD
:100C2C00730887000008810072088400730885002F
:100C3C0000080319262E0130EC020030ED3BFE2D8E
:100C4C0000306D06031D2C2E00306C06031D332E58
:100C5C00740886007508870081016808F00069082F
:040C6C00F10008008B
:100C700080302E00AF000230B0000030B1000030F4
:100C8000B200FF30B300FF30B400FF30B500FF30DA
:100C9000B6007430B7000230B8000030B900003040
:100CA000BA007A30BB000230BC000030BD0000301A
:080CB000BE006C244023080083
:100CB8002D0068088400690885000008003A0319B7
:100CC800722E680884006908850000082E00AF00AD
:0E0CD800F2222D00E80A0319E90A5C2E08003A
:0E0CE60055303C008F00AA308F000F1408001C
:100CF4002D006808F4006908F5007408840075087C
:100D04008500000803198A2EF40A0319F50A7F2EB8
:100D14007408F2007508F300F40A0319F50A6A0866
:100D2400F0006B08F100EA0A0319EB0A700884006A
:100D34007108850072088600730887000008810026
:100D4400720884007308850000080319AA2E8A2EED
:0A0D54006808F0006908F1000800CB
:0A0D5E0071088A0070088200080086
:0E0D680055303C008F00AA308F000F1008009D
:100D76002D006808F4006908F5007408F20075088B
:100D8600F300F40A0319F50A6A08F0006B08F1008B
:100D9600EA0A0319EB0A70088400710885007208D4
:100DA60086007308870000088100720884007308B3
:100DB600850000080319E02EC02E6808F0006908B7
:040DC600F100080030
:100DCA002100A0012D006A0886006B0887008101B6
:100DDA0068082E00AF002D0069082E00B000052417
:100DEA002D006A082E00AF002D006B082E00B000FF
:100DFA00C02270080319042F0130F000052FF001FA
:020E0A000800DE
:100E0C002000FB01FA01F9018030F800F10CF00C24
:100E1C00031C192F7408F90775080318750FFA07C6
:100E2C000318FB0A0310F01F212F7408FA0775082A
:100E3C000318750FFB07FB0CFA0CF90CF80C031CD0
:100E4C000C2F7B08F3007A08F2007908F10078087F
:040E5C00F00008009A
:100E60002D00EE01EF0168082E00A0002D0069089A
:100E70002E00A10080302D006906F0008030700245
:100E8000031D442F003068020318552F0130EE0077
:100E90000030EF006808003C2E00A0002D0069081B
:100EA000031C013E2E00A101A1022E002008AF006C
:100EB0002108B0002D006A082E00B1002D006B083B
:100EC0002E00B200202406302D00EC000030ED0092
:100ED0006D08003C031D6E2F6C08003C0318892F21
:100EE0006C086A0786006D086B3D870001306C0254
:100EF000F00000306D3BF10070086A078400710853
:100F00006B3D8500000881000130EC020030ED3BB4
:100F1000682F6A0886006B088700203081006E0801
:100F20006F040319AF2FEC01ED016C086A07840010
:100F30006D086B3D85000008203A031DA32FEC0AC5
:100F40000319ED0A952F0130EC020030ED3B6C08DF
:100F50006A0786006D086B3D87002D308100080010
:100F600064302D00E8000230E900A130EA000030D2
:100F7000EB00E52670080319C02F0130F000C12FE7
:040F8000F001080074
:100F8400D3302D00E8000230E900A130EA0000303F
:100F9400EB00E52670080319D22F0130F000D32F9F
:040FA400F001080050
:100FA80020302D00E8000230E900A130EA000030CE
:100FB800EB00E52670080319E42F0130F000E72F55
:080FC8002100AC01F00108005A
:0E0FD0002D002008F0002108F100AF260800D7
:100FDE0012001E00F003031DEF2FF103031DEF2F70
:020FEE000800F9
:1010000064302D00E8000030E90080315C26883132
:1010100021000C1122000C1121000E1459302D005A
:10102000E8000030E900A130EA000030EB00803138
:10103000E52688317008031920280130F000772850
:10104000C6302D00E8000130E90080315C2688318F
:10105000E930E8000130E900A130EA000030EB009F
:101060008031E52688317008031939280230F000F4
:10107000772857302D00E8000230E90080315C26E7
:101080008831B330E8000230E900A130EA000030D6
:10109000EB008031E52688317008031952280330AF
:1010A000F0007728A0302D00E8000230E900803100
:1010B0005C2688314C30E8000230E900A130EA00BB
:1010C0000030EB008031E5268831700803196B2869
:1010D0000430F00077283C302D00E8000230E900B1
:1010E00080315C26883101302100AC00F00108001D
:1010F0002D00C001C101A230E8000030E900A1309C
:10110000EA000030EB008031E526883170080319D1
:101110008C280130F000BA292800EE01EF012D00E3
:1011200040084104031D23290D3021002002F10055
:10113000F2010030F23B803028006F06F000803072
:1011400072067002031DA62871086E020318232977
:101150001030F0002330F1006E08700784006F0833
:10116000713D85000008F1007108433A031D1E29F6
:1011700001306E07F20000306F3DF3001030F000D8
:101180002330F1007208700784007308713D8500F8
:101190000008F10071084D3A031D1E2902306E0748
:1011A000F20000306F3DF3001030F0002330F1000A
:1011B0007208700784007308713D85000008F10013
:1011C0007108543A031D1E2903306E07F2000030E7
:1011D0006F3DF3001030F0002330F100720870070B
:1011E00084007308713D85000008F1007108453ADC
:1011F000031D1E2904306E07F20000306F3DF3001E
:101200001030F0002330F10072087007840073087A
:10121000713D85000008F10071083A3A031D1E294E
:1012200006306E072C00EE00003028006F3D2C00C9
:10123000EF0001302D00C0000030C1002800EE0A90
:101240000319EF0A8F282D0040084104031D2B29A4
:101250000230F000BA2980302C006F06F000803098
:101260007002031D3729210020082C006E0203188C
:101270004D291030F0002330F1006E087007840013
:101280006F08713D85000008F10071082C3A0319C0
:101290004D29EE0A0319EF0A2B29063021002002FE
:1012A000F100F2010030F23B80307206F000803035
:1012B0002C006F067002031D5F296E08710203186F
:1012C00064290230F000BA29EE0A0319EF0A280057
:1012D000EE01EF0180306F06F00080307002031DD8
:1012E000732905306E020318B1296E082C006E07B1
:1012F000F20028006F082C006F3DF3001030F00062
:101300002330F1007208700784007308713D850076
:101310000008F10071080D3A0319B1292C3028009A
:101320006E07860000306F3D87006E082C006E0748
:10133000F20028006F082C006F3DF3001030F00021
:101340002330F1007208700784007308713D850036
:101350000008F000700881002800EE0A0319EF0A67
:101360006A2928002C306E07860000306F3D870008
:061370008101F0010800FC
:1013760034302D00E8000030E900A130EA000030EA
:10138600EB008031E526883170080319CD2901303C
:10139600F000D82A2C00EE01EF012800EE01EF0143
:1013A60000302C006F06031DDA2900306E06031D7F
:1013B6005C2A803028006F06F00080307002031D22
:1013C600E8292100200828006E0203185C2A103044
:1013D600F0002330F1006E08700784006F08713D3D
:1013E60085000008F10071082B3A031D572A0130C9
:1013F6006E07F20000306F3DF3001030F00023302E
:10140600F1007208700784007308713D85000008BA
:10141600F1007108433A031D572A02306E07F200A5
:1014260000306F3DF3001030F0002330F1007208F9
:10143600700784007308713D85000008F10071088B
:101446004C3A031D572A03306E07F20000306F3DF9
:10145600F3001030F0002330F100720870078400AA
:101466007308713D85000008F1007108433A031DB9
:10147600572A04306E07F20000306F3DF30010303B
:10148600F0002330F1007208700784007308713D84
:1014960085000008F1007108433A031D572A013000
:1014A6002C00EE000030EF002800EE0A0319EF0AC8
:1014B600D32928000130EE020030EF3B6E082100F0
:1014C60020022D00C4001030C2002330C3002800C3
:1014D6006E082D00C20728006F082D00C33D073097
:1014E6002800EE000030EF0001302C00EE00003046
:1014F600EF00803028006F06F00080307002031D78
:10150600882A2D00440828006E020318D72A803046
:10151600F00080302C006F067002031D942A6E08BE
:10152600063C031CD72A28006E082D0042078400BB
:1015360028006F082D00433D850000082C3A031D46
:10154600AC2A2C00EE0A0319EF0A2D00C001C101D6
:10155600D22A00302C006F06031DB32A06306E0611
:10156600031DD22AA4302D00400786000630413DD7
:10157600870028006E082D004207840028006F08A7
:101586002D00433D850000088100C00A0319C10AE9
:10159600A430400786000630413D870081012800BF
:0C15A600EE0A0319EF0A7C2AF00108008D
:1015B2002D00C001C1012B30E8000230E900A1304A
:1015C200EA000030EB008031E5268831700803190B
:1015D200ED2A0130F000402C2800EE01EF012D0031
:1015E20040084104031D6E2B0E3021002002F10041
:1015F200F2010030F23B803028006F06F0008030AC
:1016020072067002031D072B71086E0203186E2BFF
:101612001030F0002330F1006E08700784006F086C
:10162200713D85000008F1007108433A031D692BE2
:1016320001306E07F20000306F3DF3001030F00011
:101642002330F1007208700784007308713D850031
:101652000008F1007108423A031D692B02306E073F
:10166200F20000306F3DF3001030F0002330F10043
:101672007208700784007308713D85000008F1004C
:101682007108433A031D692B03306E07F2000030E4
:101692006F3DF3001030F0002330F1007208700744
:1016A20084007308713D85000008F10071083A3A20
:1016B200031D692B05306E072C00EE000030280058
:1016C2006F3D2C00EF0001302D00C0000030C10042
:1016D2002800EE0A0319EF0AF02A2D0040084104FF
:1016E200031D762B0230F000402C80302C006F0658
:1016F200F00080307002031D822B210020082C0094
:101702006E020318982B1030F0002330F1006E089F
:10171200700784006F08713D85000008F1007108B0
:101722002C3A0319982BEE0A0319EF0A762B07308D
:1017320021002002F100F2010030F23B80307206FB
:10174200F00080302C006F067002031DAA2B6E0879
:1017520071020318AF2B0330F000402CEE0A03197C
:10176200EF0A80306F06F00080307002031DBD2B3F
:10177200210020082C006E020318D32B1030F00039
:101782002330F1006E08700784006F08713D8500F8
:101792000008F10071082C3A0319D32BEE0A031941
:1017A200EF0AB22B053021002002F100F2010030D5
:1017B200F23B80307206F00080302C006F0670021F
:1017C200031DE52B6E0871020318EA2B0430F000AA
:1017D200402CEE0A0319EF0A2800EE01EF018030D7
:1017E2006F06F00080307002031DF92B04306E0288
:1017F2000318372C6E082C006E07F20028006F08C1
:101802002C006F3DF3001030F0002330F10072081D
:10181200700784007308713D85000008F1007108AB
:101822000D3A0319372C243028006E078600003049
:101832006F3D87006E082C006E07F20028006F08CB
:101842002C006F3DF3001030F0002330F1007208DD
:10185200700784007308713D85000008F00070086D
:1018620081002800EE0A0319EF0AF02B2800243029
:101872006E07860000306F3D87008101F00108008D
:10188200DE302D00E8000130E900A130EA0000302E
:10189200EB008031E526883170080319532C0130A2
:0E18A200F000572C01302100AC00F0010800CE
:1018B0001F30210097008B13FF308C00FF308E000B
:1018C00022008C018E0123008C018E0122009113D5
:1018D000931321008E1220008E1221000E12200080
:1018E0000E1221008E140E118031B4268831320080
:1018F000951211303C00A40014303D00A20080314C
:101900007326883123009F1540309B0003309C00D4
:101910001E158031382688310530FB000F30FC0061
:10192000F130FD00FD0B922CFC0B922CFB0B922C4A
:1019300021009116200091120C302E00A0000030E2
:10194000A1000530A2000430A3008030A40025309F
:10195000A500A601A701A8018031EA24883105303D
:10196000FB000F30FC00F130FD00FD0BB52CFC0B33
:0C197000B52CFB0BB52C0B178B170800D7
:10197C002D00C001C101D630E8000130E900A130D2
:10198C00EA000030EB008031E5268831700803193D
:10199C00D22C0130F0000B2E2800EE01EF012D00AF
:1019AC0040084104031D532D0B3021002002F1008F
:1019BC00F2010030F23B803028006F06F0008030DE
:1019CC0072067002031DEC2C71086E020318532D65
:1019DC001030F0002330F1006E08700784006F089F
:1019EC00713D85000008F1007108433A031D4E2D2E
:1019FC0001306E07F20000306F3DF3001030F00044
:101A0C002330F1007208700784007308713D850063
:101A1C000008F1007108533A031D4E2D02306E0779
:101A2C00F20000306F3DF3001030F0002330F10075
:101A3C007208700784007308713D85000008F1007E
:101A4C007108513A031D4E2D03306E07F200003021
:101A5C006F3DF3001030F0002330F1007208700776
:101A6C0084007308713D85000008F10071083A3A52
:101A7C00031D4E2D05306E072C00EE0000302800A3
:101A8C006F3D2C00EF0001302D00C0000030C10074
:101A9C002800EE0A0319EF0AD52C2D00400841044A
:101AAC00031D5B2D0230F0000B2E2800EE01EF0120
:101ABC0080306F06F00080307002031D672D0330FC
:101ACC006E020318A52D6E082C006E07F20028007C
:101ADC006F082C006F3DF3001030F0002330F10044
:101AEC007208700784007308713D85000008F100CE
:101AFC0071082C3A0319A52D4F3028006E0786006B
:101B0C0000306F3D87006E082C006E07F200280035
:101B1C006F082C006F3DF3001030F0002330F10003
:101B2C007208700784007308713D85000008F0008E
:101B3C00700881002800EE0A0319EF0A5E2D2800B8
:101B4C004F306E07860000306F3D870081010130F9
:101B5C006E07F00000306F3DF10070082C00EE07AE
:101B6C007108EF3D2800EE01EF0180306F06F000A8
:101B7C0080307002031DC42D03306E020318022E38
:101B8C006E082C006E07F20028006F082C006F3DC9
:101B9C00F3001030F0002330F1007208700784005D
:101BAC007308713D85000008F10071080D3A0319A6
:101BBC00022E423028006E07860000306F3D8700F1
:101BCC006E082C006E07F20028006F082C006F3D89
:101BDC00F3001030F0002330F1007208700784001D
:101BEC007308713D85000008F00070088100280022
:101BFC00EE0A0319EF0ABB2D280042306E0786004F
:0C1C0C0000306F3D87008101F0010800EE
:101C18002000FB01FA01F901F801A001730DF80D8C
:101C28007408F8027508031C750FF9027608031C7E
:101C3800760FFA027708031C770FFB020001031CDA
:101C48000130A002F30D0730FC00730DF80DF90DFB
:101C5800FA0DFB0DA00D7408731C442EF8027508CC
:101C6800031C750FF9027608031C760FFA02770831
:101C7800031C770FFB020001031C0130A002552E44
:101C8800F80775080318750FF90776080318760F13
:101C9800FA0777080318770FFB07000103180130CC
:101CA800A007F30DFC0B292E720DF80DF90DFA0D96
:101CB800FB0DA00D7408731C732EF8027508031C25
:101CC800750FF9027608031C760FFA027708031CD1
:101CD800770FFB020001031C0130A002842EF807D5
:101CE80075080318750FF90776080318760FFA07B1
:101CF80077080318770FFB07000103180130A007C6
:101D0800F20D0730FC00720DF80DF90DFA0DFB0D00
:101D1800A00D7408721CA22EF8027508031C750F1A
:101D2800F9027608031C760FFA027708031C770F6E
:101D3800FB020001031C0130A002B32EF80775084E
:101D48000318750FF90776080318760FFA0777084E
:101D58000318770FFB07000103180130A007F20DE5
:101D6800FC0B872E710DF80DF90DFA0DFB0DA00D6A
:101D78007408721CD12EF8027508031C750FF9023D
:101D88007608031C760FFA027708031C770FFB020C
:101D98000001031C0130A002E22EF80775080318A1
:101DA800750FF90776080318760FFA0777080318EE
:101DB800770FFB07000103180130A007F10D07306A
:101DC800FC00710DF80DF90DFA0DFB0DA00D74084E
:101DD800711C002FF8027508031C750FF9027608AC
:101DE800031C760FFA027708031C770FFB02000129
:101DF800031C0130A002112FF80775080318750F8E
:101E0800F90776080318760FFA0777080318770F8B
:101E1800FB07000103180130A007F10DFC0BE52EAC
:101E2800700DF80DF90DFA0DFB0DA00D7408711C5D
:101E38002F2FF8027508031C750FF9027608031C8A
:101E4800760FFA027708031C770FFB020001031CC8
:101E58000130A002402FF80775080318750FF9071D
:101E680076080318760FFA0777080318770FFB0729
:101E7800000103180130A007F00D0730FC00700DB9
:101E8800F80DF90DFA0DFB0DA00D7408701C5E2FEE
:101E9800F8027508031C750FF9027608031C760F03
:101EA800FA027708031C770FFB020001031C0130BC
:101EB800A0026F2FF80775080318750FF907760841
:101EC8000318760FFA0777080318770FFB07000146
:101ED80003180130A007F00DFC0B432F7018822F58
:101EE8007408F80775080318750FF90776080318BA
:0E1EF800760FFA0777080318770FFB0708002C
:102000002D00C901C201C3012800EE01EF01073014
:1020100021002002F100F2010030F23B8030280064
:102020006F06F000803072067002031D19287108D7
:102030006E020318C32800302D004306031D22281A
:1020400000304206031DC3281030F0002330F10099
:1020500028006E08700784006F08713D8500000835
:10206000F1007108433A031DBE2801306E07F200EB
:1020700000306F3DF3001030F0002330F1007208A3
:10208000700784007308713D85000008F100710835
:10209000473A031DBE2802306E07F20000306F3D44
:1020A000F3001030F0002330F10072087007840054
:1020B0007308713D85000008F10071084E3A031D58
:1020C000BE2803306E07F20000306F3DF300103081
:1020D000F0002330F1007208700784007308713D2E
:1020E00085000008F1007108533A031DBE28043032
:1020F0006E07F20000306F3DF3001030F000233027
:10210000F1007208700784007308713D85000008B3
:10211000F1007108493A031DBE2805306E07F20030
:1021200000306F3DF3001030F0002330F1007208F2
:10213000700784007308713D85000008F100710884
:102140004E3A031DBE2806306E07F20000306F3D88
:10215000F3001030F0002330F100720870078400A3
:102160007308713D85000008F1007108463A031DAF
:10217000BE2801302D00C2000030C3002800EE0A46
:102180000319EF0A072800302D004306031DCA2853
:1021900000304206031DCF280130F000E92AC201B9
:1021A000C30128006E082C00EE0028006F082C00E8
:1021B000EF0080306F06F00080307002031DE428CD
:1021C000210020082C006E0203180A2900302D007F
:1021D0004306031DED2800304206031D0A29103076
:1021E000F0002330F1002C006E08700784006F08A7
:1021F000713D85000008F10071080D3A031D0529A5
:1022000001302D00C2000030C3002C00EE0A03197B
:10221000EF0AD92800302D004306031D1129003094
:102220004206031D16290130F000E92A013028007A
:10223000EE020030EF3B6E08210020022D00C600A8
:102240001030C4002330C50028006E082D00C407DC
:1022500028006F082D00C53D08302800EE00003032
:10226000EF0001302C00EE000030EF00803028003D
:102270006F06F00080307002031D42292D004608D1
:1022800028006E0203187D298030F00080302C0079
:102290006F067002031D4E296E08093C031C7D2940
:1022A00028006E082D004407840028006F082D00C8
:1022B000453D850000082C3A031D63292C00EE0AD9
:1022C0000319EF0A78292C0000306F06031D6A29D4
:1022D00002306E06031D782928006E082D00440781
:1022E000840028006F082D00453D85000008C900C6
:1022F0002800EE0A0319EF0A36292D004908313A61
:10230000031DE72A0130C700C8012100BD01BE013D
:1023100008302800EE000030EF0001302C00EE0005
:102320000030EF00803028006F06F000803070022F
:10233000031D9E292D00460828006E020318E52A79
:102340008030F00080302C006F067002031DAA2937
:102350006E08093C031CE52A28006E082D0044077E
:10236000840028006F082D00453D850000082C3AA8
:10237000031DC4292C00EE0A0319EF0A2D00C00129
:10238000C1010130C700E02A00302C006F06031D98
:10239000CB2901306E06031DDB2928006E082D00B5
:1023A0004407840028006F082D00453D8500000883
:1023B0002100EF00E02A00302C006F06031DE22907
:1023C00002306E06031DF22928006E082D00440716
:1023D000840028006F082D00453D8500000821007D
:1023E000AD00E02A00302C006F06031DF9290330F0
:1023F0006E06031D412A28006E082D004407840044
:1024000028006F082D00453D850030300002031C78
:10241000302A28006E082D004407840028006F0829
:102420002D00453D85000008393C031C302A480832
:10243000003A031D302A2030400786000130413D1C
:10244000870028006E082D004407840028006F08CC
:102450002D00453D850000088100C00A0319C10A0E
:1024600028006E082D004407840028006F082D0006
:10247000453D850000082E3A031D402A0130C80062
:10248000E02A00302C006F06031D482A04306E0637
:10249000031D612A48302D00400786000130413D70
:1024A000870028006E082D004407840028006F086C
:1024B0002D00453D850000088100C00A0319C10AAE
:1024C000E02A00302C006F06031D682A05306E06D6
:1024D000031D812A3C302D00400786000130413D1C
:1024E000870028006E082D004407840028006F082C
:1024F0002D00453D850000088100C00A0319C10A6E
:10250000E02A00302C006F06031D882A06306E0674
:10251000031DE02A28006E082D00440784002800CF
:102520006F082D00453D850030300002031CD12A84
:1025300028006E082D004407840028006F082D0035
:10254000453D85000008393C031CD12A4708031982
:10255000D12A21003D08F0003E08F1000A30F400C5
:102560000030F50080310627903170082100BD0051
:102570007108BE0028006E082D0044078400280062
:102580006F082D00453D850030300002F200F30158
:102590000030F33B720870072100BD007308713DE5
:1025A000BE0028006E082D004407840028006F0834
:1025B0002D00453D850000082E3A031DE02AC70185
:1025C0002800EE0A0319EF0A9229F001E92A0130E6
:0425D000F00008000F
:1025D40021003D082D00E80021003E082D00E900FF
:1025E400C030EA000630EB00803130279031C03033
:1025F400E8000630E9008031AD249031C830E800AD
:102604000630E9003330EA000230EB008031BB26AB
:102614009031C830E8000630E900A430EA00063002
:10262400EB001430EC000030ED008031EE259031E9
:10263400C830E8000630E9006B30EA000130EB00F6
:1026440080317A269031C830E8000630E900EE3057
:10265400EA000030EB008031E52690317008031960
:10266400362B0130F000A42B2100A1012D08313AB2
:10267400031D882BE5302E00AF000230B0008031FE
:1026840005249031DF30AF000230B00080310524E2
:1026940090312030AF000130B000803105249031FA
:1026A4002730AF000330B00080310524903148302A
:1026B400AF000130B0008031052490312030AF00EC
:1026C4000330B0008031052490313C30AF0001303C
:1026D400B0008031052490316930AF000230B00081
:1026E400803105249031C030AF000630B000803115
:1026F400052490310D30BF0080310A2190311A3009
:102704002E00BF0080310A219031952BC1302E005C
:10271400AF000230B0008031052490311A30BF0080
:1027240080310A219031A1302E00AF000030B0007A
:102734008031C022903170080319A32B0230F000BD
:06274400A42BF0010800C7
:10274A009831102290312D00BC01BD01BE01BF019C
:10275A002800ED018831582490317A30FB00C130CD
:10276A00FC008130FD00FD0BB82BFC0BB82BFB0BDA
:10277A00B82B000000005E302D00E8000330E900AD
:10278A0080315C2690313830E8000330E90080312E
:10279A005C269031A030E8000330E90080315C26E5
:1027AA00903120008E166400883100209031700824
:1027BA002800ED006D080319F12B2E302D00E800DA
:1027CA000330E90080315C26903188310020903155
:1027DA0070082800ED00DF2B20008E1264006400D0
:1027EA0022006D080319832C54302D00E8000330B1
:1027FA00E90080315C2690314930E8000330E90075
:10280A0080315C2690318831BB21903170082800D4
:10281A00ED006D080319272CE2302D00E800033083
:10282A00E90080315C269031B430E8000430E900D8
:10283A0080315C2690318831BB21903170082800A4
:10284A00ED000E2C6400A4302D00E8000630E900EB
:10285A0080315C269031A930E8000430E9008031EB
:10286A005C2690318031B027903170082800ED0045
:10287A006D080319562CC1302D00E8000430E90018
:10288A0080315C269031D530E8000430E90080318F
:10289A005C2690318031B027903170082800ED0015
:1028AA003D2C6400CA302D00E8000430E900803174
:1028BA005C269031EA2270082800ED006D080319A1
:1028CA007A2CA0302D00E8000430E90080315C2623
:1028DA0090314530E8000430E90080315C269031BF
:1028EA00EA2270082800ED00632C0D302E00AF009C
:1028FA008031F222903164002200ED011430F4009C
:10290A00F501F601F7012D003C08F0003D08F10041
:10291A003E08F2003F08F30088310C26903178080F
:10292A00F0007908F1007A08F2007B08F300003021
:10293A00F4007306031DAB2C74087206031DAB2C3E
:10294A0074087106031DAB2C7008003A031DE12CB4
:10295A0050302D00E8000430E90080315C269031C7
:10296A008031C227903170082800ED007008031DDD
:10297A00D32C5D302D00E8000430E90080315C265C
:10298A009031002070080319D22C20302D00E80065
:10299A000430E90080315C269031DB2C2D00303088
:1029AA00E8000430E90080315C2690310D302E00B9
:1029BA00AF008031F22290311430F400F501F601B3
:1029CA00F7012D003C08F0003D08F1003E08F20036
:1029DA003F08F30088310C2690317808F000790816
:1029EA00F1007A08F2007B08F3000030F400730665
:1029FA00031D092D74087206031D092D740871063A
:102A0A00031D092D7008003A031D2A2D39302D00A7
:102A1A00E8000430E90080315C2690318831BE2418
:102A2A00903170082800ED0070080319242DD23067
:102A3A002D00E8000030E90080315C2690310D302D
:102A4A002E00AF008031F22290311430F400F501EB
:102A5A00F601F7012D003C08F0003D08F1003E08A0
:102A6A00F2003F08F30088310C2690317808F00014
:102A7A007908F1007A08F2007B08F3000030F400CC
:102A8A007306031D522D74087206031D522D740815
:102A9A007106031D522D7008003A031D732DC630AE
:102AAA002D00E8000030E90080315C269031883141
:102ABA007820903170082800ED00700803196D2DF8
:102ACA00E5302D00E8000030E90080315C269031C5
:102ADA000D302E00AF008031F22290311430F40014
:102AEA00F501F601F7012D003C08F0003D08F10060
:102AFA003E08F2003F08F30088310C26903178082E
:102B0A00F0007908F1007A08F2007B08F30000303F
:102B1A00F4007306031D9B2D74087206031D9B2D7A
:102B2A0074087106031D9B2D7008003A031DBC2D05
:102B3A00D9302D00E8000030E90080315C26903160
:102B4A008831D922903170082800ED0070080319E5
:102B5A00B62DBF302D00E8000030E90080315C2638
:102B6A0090310D302E00AF008031F22290312100D9
:102B7A002D08313A031D3A2E2C080319FD2D8030F9
:102B8A00133AF00080303E067002031DCE2D3D0838
:102B9A00883C0318FD2DAE302D00E8000030E90016
:102BAA0080315C2690318031D4279031700828001A
:102BBA00ED006D080319F72D62302D00E800013091
:102BCA00E90080315C269031A030E8000130E9004C
:102BDA0080315C2690318031D427903170082800EA
:102BEA00ED00DE2D0D302E00AF008031F222903143
:102BFA0021002C08031D3A2E80303E06F00080305A
:102C0A00113A7002031D0B2E94303D0203183A2E1E
:102C1A00B8302D00E8000130E90080315C2690319F
:102C2A0088314124903170082800ED006D0803199D
:102C3A00342EAF302D00E8000130E90080315C26E7
:102C4A0090315430E8000130E90080315C2690313F
:102C5A0088314124903170082800ED001B2E0D3078
:102C6A002E00AF008031F22290311430F400F501C9
:102C7A00F601F7012D003C08F0003D08F1003E087E
:102C8A00F2003F08F30088310C2690317808F000F2
:102C9A007908F1007A08F2007B08F3000030F400AA
:102CAA007306031D622E74087206031D622E7408D1
:102CBA007106031D622E7008003A031D672E20005C
:102CCA008E16692E20008E1201302D00BC070030AE
:102CDA00BD3DBE3DBF3D0530FB000F30FC00F1306D
:102CEA00FD00FD0B762EFC0B762EFB0B762E143098
:102CFA00F400F501F601F7013C08F0003D08F10087
:102D0A003E08F2003F08F30088310C26903178081B
:102D1A00F0007908F1007A08F2007B08F30000302D
:102D2A00F4007306031DA32E74087206031DA32E56
:102D3A0074087106031DA32E7008003A031D9C2F08
:102D4A0034302D00E8000130E90080315C269031F2
:102D5A0021002D08313A031D402F3D082D00E800BF
:102D6A0021003E082D00E900B430EA000630EB00ED
:102D7A00803130279031B430E8000630E9008031E4
:102D8A00AD2490312700EF01203084000130850006
:102D9A006F0884070318850A0008003A0319152FDB
:102DAA006F08043A0319E22E6F08063A0319E22E55
:102DBA006F08083A0319E22EE82E2E302E00AF00D3
:102DCA008031F222903127006F08083A031DF32E52
:102DDA0020302E00AF008031F222903127006F0898
:102DEA000A3A0319FD2E6F080C3A0319FD2E032F18
:102DFA003A302E00AF008031F22290312030840028
:102E0A000130850027006F0884070318850A000827
:102E1A002E00AF008031F22290312700EF0AC92E2E
:102E2A002C302E00AF008031F222903148302D0034
:102E3A00E8000130E90080315C2690312C302E0008
:102E4A00AF008031F22290313C302D00E800013091
:102E5A00E90080315C2690312C302E00AF008031A1
:102E6A00F2229031B4302D00E8000630E9008031BA
:102E7A005C269031482F2D004B30E8000030E900E5
:102E8A0080315C26903121002C080319552F4730D8
:102E9A002D00E8000030E90080315C2690315D2F7A
:102EAA002D005430E8000030E90080315C26903172
:102EBA002C302E00AF008031F22290314F302D009D
:102ECA00E8000030E90080315C2690312C302E0079
:102EDA00AF008031F222903142302D00E8000030FC
:102EEA00E90080315C2690312C302E00AF00803111
:102EFA00F22290312C302D00E8000030E9008031B8
:102F0A005C2690312C302E00AF008031F2229031B5
:102F1A0024302D00E8000030E90080315C26903131
:102F2A003D30E8000030E90080315C269031F42B16
:022F3A009D2FC9
:103420009F308400973085004C30F0000130F1006F
:1034300024308600003087008031EF2798318330B8
:1034400084008F3085004C30F0000130F100A03056
:103450008600003087008031EF27983149308400A2
:10346000983085004230F0000130F10020308600B5
:10347000013087008031EF279831D33084009930B4
:1034800085000F30F0000130F100A03086000130DF
:1034900087008031EF279831FB3084009930850018
:1034A0000930F0000130F100623086000130870001
:1034B0008031EF2798310D308400993085003A3003
:1034C000F0000130F100AF3086000130870080311C
:1034D000EF279831EB308400973085001330F000EF
:1034E0000130F10020308600023087008031EF2764
:1034F0009831FE308400973085000230F0000130B2
:10350000F100EC308600003087008031EF279831E1
:1035100068308400993085001930F0000130F100E6
:1035200033308600023087008031EF2798310F302A
:1035300084009A3085000130F0000130F100EE3057
:103540008600003087008031EF279831FE308400FC
:103550008F3085000230F0000130F1006B308600C2
:10356000013087008031EF279831993084009930FD
:1035700085001830F0000130F1004C308600023038
:1035800087008031EF279831043084009A3085001D
:103590000630F0000130F100E9308600013087008C
:1035A0008031EF27983147308400993085002130F1
:1035B000F0000130F100A030860002308700803139
:1035C000EF2798310A3084009A3085000530F000EA
:1035D0000130F10064308600023087008031EF272F
:1035E0009831B1308400993085001230F0000130FC
:1035F000F100C1308600023087008031EF2798311A
:10360000FF308400873085000130F0000130F10088
:10361000EF308600003087008031EF279831EF309F
:103620008400993085000C30F0000130F100D33077
:103630008600023087008031EF279831F83084000F
:10364000873085000730F0000130F10069308600D6
:10365000023087008031EF279831C33084009930E1
:1036600085001030F0000130F100DF3086000230BC
:1036700087008031EF2798318130840099308500B0
:103680001830F0000130F100203086000330870050
:103690008031EF2798318B3084009830850042309C
:1036A000F0000130F100A030860003308700803147
:1036B000EF279831CF3084008F3085002630F0001E
:1036C0000130F10038308600033087008031EF2769
:1036D000983103308400803085000130F0000130E3
:1036E000F1006D308600013087008031EF2798317E
:1036F000E2308400993085000D30F0000130F10097
:103700005E308600033087008031EF279831F53036
:1037100084008F3085000930F0000130F100E23084
:103720008600033087008031EF2798310030840015
:10373000983085004930F0000130F10020308600DB
:10374000043087008031EF279831CD3084009830E5
:1037500085004030F0000130F100A03086000430D8
:0A37600087008031EF279831080040
:020006000034C4
:0E0FF0000D3441344C3454343A34203400343F
:020FFE0030348D
:021F06000034A5
:021F08000034A3
:101F0A00413454342B3443344D34543445343F34FF
:041F1A000D3400344E
:021F1E0000348D
:021F200030345B
:101F22000D340A34673473346D345F3470346F3473
:0E1F32007734653472346F34663466340034AC
:041F40000034003435
:0E1F440020344534523452344F345234003479
:101F52000D340A3472346534613464345F34743459
:081F620065346D347034003465
:0E1F6A0020344534523452344F345234003453
:101F78000D340A3472346534613464345F34763431
:081F880062346134743400344A
:0E1F900020344534523452344F34523400342D
:101F9E000D340A344434613474346134203466347C
:101FAE006F3472346D34613474343A340D340A340F
:021FBE000034ED
:101FC0006734653474345F346E3475346D34623420
:061FD00065347234003498
:101FD600523449344E34473449344E3447340D3440
:041FE6000A34003485
:101FEA002034543449344D3445344F345534543400
:021FFA000034B1
:041FFC000D3400346C
:102F3E002D34313400340034003400340034003485
:102F4E002D34313400340034003400340034003475
:102F5E00413454342B3443344C34433443340D34E1
:022F6E0000342D
:0A2F70000D340A340D340A34003425
:0A2F7A002D343134003400340034EB
:082F84002C344F344E340034AC
:082F8C002C342C342C340034E9
:0A2F94002D343134003400340034D1
:0A2F9E002C344F344634463400341E
:102FA800413454342B344334463455344E343D3450
:062FB80031340D34003439
:102FBE0066346F346E3461345F3469346E34693420
:082FCE00743428342934003466
:102FD600413454342B344334463455344E343D3422
:062FE60030340D3400340C
:102FEC00413454342B344334423443340D340034A0
:022FFC0000349F
:022FFE0000349D
:103000002034423455344634463445345234203426
:1030100049344E34563441344C3449344434003409
:103020002034543449344D3445344F3455345434B9
:0230300000346A
:103032000D340A3472346534613464345F3472346A
:08304200733473346934003467
:10304A000D340A34733465346E3464345F34733443
:06305A006D3473340034F4
:103060006734653474345F346734703473345F3478
:0A30700064346134743461340034B8
:10307A000D340A346734703473345F347034613415
:08308A00723473346534003424
:10309200303400340034003400340034003400345E
:1030A200003400340034003400340034003400347E
:0830B200003400340034003446
:1030BA000D340A3444344134543441343A340034FB
:1030CA003034003400340034003400340034003426
:0830DA0000340034003400341E
:1030E200303400340034003400340034003400340E
:0830F200003400340034003406
:1030FA000D340A34673473346D345F3470346F348A
:0C310A007734653472346F346E34003456
:1031160044344134543441343A34543469346D348B
:1031260065342C344C34613474342C344C346F3460
:103136006E342C3441346C34743428346D34293470
:103146002C34473453344D345F347334743461341F
:10315600743465342C3452345334533449342C3457
:103166004234453452342C34543465346D3470341E
:103176002834433429342C3456345F344234613491
:10318600743428346D34563429340D340A340D34ED
:043196000A340034C3
:10319A002034543449344D3445344F34553454343E
:0231AA000034EF
:1031AC000D340A3465346E3464345F346334613402
:0631BC006C346C34003499
:1031C2000D340A346734653474345F346E347534C4
:0A31D2006D34623465347234003449
:1031DC002034543449344D3445344F3455345434FC
:0231EC000034AD
:1031EE000D340A34733465346E3464345F3473349E
:0631FE006D34733400344F
:103204000D340A3465346E3464345F3463346134A9
:063214006C346C34003440
:10321A002034543449344D3445344F3455345434BD
:02322A0000346E
:10322C000D340A34673473346D345F3470346F3456
:0C323C007734653472346F346E34003423
:103248000D340A342034203420342B3443344634AB
:1032580055344E343D34313420344F344B340034FB
:10326800413454342B344334533451340D34003402
:10327800413454342B344334463455344E343D347D
:0632880031340D34003466
:10328E000D340A342034203420342B344334473464
:10329E004E3453345034573452343D343134203458
:0632AE004F344B340034E4
:1032B400413454342B34433447344E34533450342F
:0C32C400573452343D3431340D340034A2
:1032D000413454342B3443344D34473453343D3427
:0232E0000034B8
:1032E2002034203420342B3443344D344734463494
:1032F2003D34313420344F344B340D340A340034ED
:0E3302000D344C344F344E343A342034003401
:0E3310000D344C34413454343A3420340034FB
:10331E00543449344D3445344F34553454340D34CB
:04332E000A34003429
:10333200413454342B3443344D34473446343D34D1
:0633420031340D340034AB
:103348000D340A3420342034203441345434453484
:0A335800303420344F344B3400347D
:103362004E346F342034763461346C3469346434CE
:1033720020346634693478342034793465347434D2
:043382000D340034D2
:0C3386005534543443343A3420340034BD
:103392004C34613473347434203466346934783490
:0433A2000D340034B2
:1033A6000D340A34673473346D345F3470346F34DB
:0E33B6007734653472346F3466346634003414
:1033C4000D340A3450344F34573445345234203495
:0A33D4004F344E340D340A34003437
:1033DE00413454342B34433447344E34533449340B
:0833EE004E3446340D34003466
:1033F6002034543449344D3445344F3455345434E0
:02340600003490
:0C34080041345434453430340D34003469
:0A3414004134543448340D340034C0
:02341E00003478
:020000040001F9
:08000E0004292E3A030003004F
:00000001FF
