:040000009031E02A31
:1000080070082000A3007108A2007208A1008031C6
:10001800911EE7288030F0008030003A7002031DFE
:100028001728F9306E020318E7288831E723803152
:1000380070082E00A000ED30F1002230F200200000
:100048006E08710786000030723D870070088100D5
:10005800B0282E0020084F3A031D36280130210011
:10006800EC0050282E002008453A031D3F28023096
:100078002100EC0050282E002008523A031D482881
:1000880006302100EC0050282E0020083E3A031DBF
:10009800502801302100ED00D6282E0020084B3AC8
:1000A800031D592801302000EF002100EC01D6285B
:1000B8002E002008523A031D652803302100EC0069
:1000C80067282100EC01D6282E002008523A031D8B
:1000D800712804302100EC0073282100EC01D62897
:1000E8002E0020084F3A031D7D2805302100EC0022
:1000F8007F282100EC01D6282E002008523A031D43
:10010800882801302100EB002100EC01D6282E00C0
:100118002008493A031D942807302100EC0096284E
:100128002100EC01D6282E0020084E3A031DA028F5
:1001380008302100EC00A2282100EC01D6282E006E
:100148002008473A031DAB2801302500E8002100AC
:10015800EC01D628EC01D62821006C08003A0319D6
:100168002D286C08013A031951286C08023A031922
:100178005C286C08033A031968286C08043A0319C8
:1001880074286C08053A031980286C08063A031984
:100198008B286C08073A031997286C08083A031942
:1001A800A328AE2820006E0AF0007008EE00ED309B
:1001B800F0002230F1006E08700786000030713DB3
:1001C8008700810191122308F0002208F10021081C
:0401D800F200090028
:1001DC002000F801F9011030FC00710DF80DF90D3B
:1001EC007408F8027508031C750FF9020318052929
:1001FC007408F80775080318750FF9070310F00D4C
:08020C00F10DFC0BF3280800C2
:1002140023009E180F2900000A292D006F082300CF
:040224009A00080034
:100228002D00EF03EF036F08003C03182029EF03AC
:100238000000000000001729000000000000000076
:0402480000000800AA
:10024C00FB09FA09F909F809F80A0319F90A03195B
:08025C00FA0A0319FB0A08006D
:100264007408F8027508031C750FF9027608031C5C
:10027400760FFA027708031C770FFB02F30D0730A1
:10028400FC00730DF80DF90DFA0DFB0D7408731CC9
:100294005929F8027508031C750FF9027608031C26
:1002A400760FFA027708031C770FFB026629F8071A
:1002B40075080318750FF90776080318760FFA07FF
:1002C40077080318770FFB07F30DFC0B4329720D16
:1002D400F80DF90DFA0DFB0D7408731C7F29F80253
:1002E4007508031C750FF9027608031C760FFA02D1
:1002F4007708031C770FFB028C29F807750803188D
:10030400750FF90776080318760FFA0777080318AC
:10031400770FFB07F20D0730FC00720DF80DF90D95
:10032400FA0DFB0D7408721CA529F8027508031C4C
:10033400750FF9027608031C760FFA027708031C7E
:10034400770FFB02B229F80775080318750FF90730
:1003540076080318760FFA0777080318770FFB0758
:10036400F20DFC0B8F29710DF80DF90DFA0DFB0D33
:100374007408721CCB29F8027508031C750FF90266
:100384007608031C760FFA027708031C770FFB022A
:10039400D829F80775080318750FF90776080318A4
:1003A400760FFA0777080318770FFB07F10D07306C
:1003B400FC00710DF80DF90DFA0DFB0D7408711C9C
:1003C400F129F8027508031C750FF9027608031C5D
:1003D400760FFA027708031C770FFB02FE29F80751
:1003E40075080318750FF90776080318760FFA07CE
:1003F40077080318770FFB07F10DFC0BDB29700D51
:10040400F80DF90DFA0DFB0D7408711C172AF8028A
:100414007508031C750FF9027608031C760FFA029F
:100424007708031C770FFB02242AF80775080318C2
:10043400750FF90776080318760FFA07770803187B
:10044400770FFB07F00D0730FC00700DF80DF90D68
:10045400FA0DFB0D7408701C3D2AF8027508031C84
:10046400750FF9027608031C760FFA027708031C4D
:10047400770FFB024A2AF80775080318750FF90766
:1004840076080318760FFA0777080318770FFB0727
:10049400F00DFC0B272A70185D2A7408F8077508FC
:1004A4000318750FF90776080318760FFA0777080B
:0804B4000318770FFB07080095
:1004BC0023001908F1009D1C652A1D121D167108D8
:0404CC00F000080034
:0C04D00000302000911A0130F0000800FC
:0C04DC00003023009E180130F0000800E2
:0C04E80000302000911A0130F0000800E4
:0C04F400003023009E180130F0000800CA
:1005000023001908F1009D1C872A1D121D16710871
:04051000F0000800EF
:1005140020002230FC00F801F901FA01FB01FC0380
:100524000319BF2A0310FB0CFA0CF90CF80CF30C9A
:10053400F20CF10CF00C031C912AFC030319B12AF0
:100544007408F80775080318750FF9077608031877
:10055400760FFA0777080318770FFB07952A7408B4
:10056400F80775080318750FF90776080318760F4E
:0C057400FA0777080318770FFB07080050
:100580002D00E1015F088400600885000008F0008C
:100590007008031DE62A643061020318E62A5F082A
:1005A0008400600885000008F0007008031DE52A3B
:1005B000E10A0530FB000F30FC00F130FD00FD0BBF
:1005C000DF2AFC0BDF2AFB0BDF2AC22A5F0884002C
:1005D0006008850000080319EF2AF001F12A0130B4
:0405E000F00008001F
:1005E40001302D00E00025006E082D00DF062500F7
:1005F4006A0884006B0885006E08003A0319052B0D
:1006040069088004072B6D0880056C082D00EF0035
:100614001421DF09600803192A2B60085F05F00024
:10062400031D182B2500690880041B2B25006D0869
:1006340080052D00E035023025006C022D00EF000E
:1006440014210000000000000000000000000C2B3A
:1006540025006E08003A0319322B6D088005342BEF
:0E066400690880046C082D00EF0014210800C6
:1006720023009E1690309D002000911E442B2300E3
:080682001908F0003D2B0800EF
:10068A007408003A031D5E2B7508003A031D5E2BA1
:10069A007608003A031D5E2B7708003A031D5E2B8D
:1006AA00FF30F000FF30F100FF30F2007F30F3003E
:1006BA00F62B2000FC01F71BFC0AFD01FB01FA01E5
:1006CA00F901F80173087204710470040319F12B1B
:1006DA0073087706A000A01BFD09F71F7F2BF409FA
:1006EA00F509F609F709F40A0319F50A0319F60ACE
:1006FA000319F70AF31F8C2BF009F109F209F30920
:10070A00F00A0319F10A0319F20A0319F30A730822
:10071A007704A000A01BAD2B3221FC1BCA2BFD1FA6
:10072A00F12BF009F109F209F309F00A0319F10AA8
:10073A000319F20A0319F30AF809F909FA09FB0974
:10074A00F80A0319F90A0319FA0A0319FB0AF12B21
:10075A00F71FC42BF31BBE2B7308FB007208FA00A9
:10076A007108F9007008F800F301F201F101F001D3
:10077A00942BF301F201F101F001F00A0034F309BC
:10078A00F209F109F009FC17912BF80A0319F90A81
:10079A000319FA0A0319FB0A74087802031D942B39
:1007AA0075087902031D942B76087A02031D942B8F
:1007BA0077087B02031D942BFB01FA01F901F8016A
:1007CA00F00A0319F10A0319F20A0319F30AF31FCB
:1007DA00942BA0012016FF34A0017C1CF52B2621A6
:0407EA00003E0800C5
:0E07EE000030F0007D30F100F201F301080050
:1007FC002D00E2015F088400600885000008E1001C
:10080C006108003A0319182C6108EF000A212D0029
:10081C00E20A62085F0784000030603D8500000832
:06082C00E100062C0800AB
:100832002D00E301053063020318292C63086107C8
:1008420086000030623D870020308100E30A1B2CC5
:100852006308610786000030623D87008101E3037F
:1008620063086107E4000030623DE5000A30F400ED
:10087200F5015F08F0006008F100EE207808F00052
:100882007908F1003030F0072D0064088600650811
:100892008700700881000A30F400F5015F08F0005B
:1008A2006008F100EE2070082D00DF007108E00002
:1008B20000307106031D5F2C00307006031D622C90
:0808C200642CE303312C080053
:1008CA002D005F082C00CB002D0060082C00CC0006
:1008DA002D0061082C00CD002D0062082C00CE00EE
:1008EA002D0063082C00C7002D0064082C00C800E6
:1008FA002D0065082C00C9002D0066082C00CA00CE
:10090A002D0067082800EB002D0068082800EC007D
:10091A002D0069082800ED002D006A082800EE0065
:10092A002D006B082600E9002D006C082600EA005D
:10093A002D006D082600EB002D006E082600EC0045
:02094A000800A3
:10094C002D00CA01CB014808F3004908F4004808FF
:10095C00F5004908F6007308840074088500000847
:10096C00203A031DBE2C4A084B04031DBE2CCF2C71
:10097C000130CA000030CB00730884007408850075
:10098C00750886007608870000088100F50A0319AF
:10099C00F60A7308F1007408F200F30A0319F40A5A
:1009AC0071088400720885000008003A031DB12C00
:0A09BC004808F0004908F1000800A7
:1009C6002D0048082500EA002D0049082500EB0007
:1009D6002D004A08F0000130F20070080319F62CC9
:1009E600F235FF3EF12C72082600ED007209250053
:1009F600EF002D004B08F1000130F00071080319DB
:100A0600072DF035FF3E022D70082500E900F0099C
:100A16007008ED0080302D00480784000030493D05
:100A2600850072088004700880052500EE012D00FF
:100A360050080319202D2500EE0925008030840278
:100A46006E08003A03192A2D6D0880052C2D6908B9
:100A56008004F723E830F4000330F500F601F701CF
:100A66008A2270082D00DB007108DC007208DD00A8
:100A76007308DE005B08D1005C08D2005D08D30075
:100A86005E08D4004C08F0004D08F1004E08F20054
:100A96004F08F300F035F10DF20DF30DF035F10DC1
:100AA600F20DF30D0A30F400F501F601F7018A2282
:100AB60070082D00D5007108D6007208D70073089B
:100AC600D8007008F4007108F5007208F600730883
:100AD600F7005B08F0005C08F1005D08F2005E08B4
:100AE600F300452370082D00D9007108DA0071085B
:100AF600F400F501740875040319842D0230F00022
:100B0600DB2D59082500EC002D005508F400560889
:100B1600F5005708F6005808F7005108F00052088B
:100B2600F1005308F2005408F30045237808F0005A
:100B36007908F1007A08F2007B08F30070082D00AE
:100B4600D1007108D2007208D3007308D40055088A
:100B5600F5005608F6005708F7005808F800F83769
:100B6600F70CF60CF50C80307806F400803073062E
:100B76007402031DC82D72087702031DC82D710863
:100B86007602031DC82D700875020318CC2D2500AA
:100B9600EC0A25006C08F100F13671082600EE001B
:100BA600073071020318DA2D0130F000DB2DF00159
:020BB600080035
:100BB8002D004808F4004908F500740884007508F9
:100BC800850000080319EC2DF40A0319F50AE12D34
:100BD8004C084D040319142E7408F2007508F3002C
:100BE800F40A0319F50A4A08F0004B08F100CA0A8A
:100BF8000319CB0A70088400710885007208860002
:100C08007308870000088100720884007308850053
:100C180000080319142E0130CC020030CD3BEC2D16
:100C280000304D06031D1A2E00304C06031D212EE0
:100C3800740886007508870081014808F000490893
:040C4800F1000800AF
:100C4C0080302D00DF000230E0000030E100003089
:100C5C00E200FF30E300FF30E400FF30E500FF303E
:100C6C00E6007430E7000230E8000030E9000030A4
:100C7C00EA007A30EB000230EC000030ED0000307E
:080C8C00EE0065243923080085
:100C94002D0048088400490885000008003A03191B
:100CA4005E2E48088400490885000008DF00F2220F
:0A0CB400C80A0319C90A4A2E0800F5
:0E0CBE0055303C008F00AA308F000F14080044
:100CCC002D004808F4004908F500740884007508E4
:100CDC00850000080319762EF40A0319F50A6B2E09
:100CEC007408F2007508F300F40A0319F50A4A08AF
:100CFC00F0004B08F100CA0A0319CB0A70088400F3
:100D0C00710885007208860073088700000881004E
:100D1C00720884007308850000080319962E762E3D
:0A0D2C004808F0004908F100080033
:0A0D360071088A00700882000800AE
:0E0D400055303C008F00AA308F000F100800C5
:100D4E002D004808F4004908F5007408F2007508F3
:100D5E00F300F40A0319F50A4A08F0004B08F100F3
:100D6E00CA0A0319CB0A700884007108850072083C
:100D7E0086007308870000088100720884007308DB
:100D8E00850000080319CC2EAC2E4808F000490847
:040D9E00F100080058
:100DA2002000EE012D004A0886004B0887008101D1
:100DB2004808DF004908E000FE234A08DF004B082C
:100DC200E000C02270080319E92E0130F000EA2E7B
:040DD200F001080024
:100DD6002000FB01FA01F9018030F800F10CF00C5B
:100DE600031CFE2E7408F90775080318750FFA0719
:100DF6000318FB0A0310F01F062F7408FA0775087C
:100E06000318750FFB07FB0CFA0CF90CF80C031C06
:100E1600F12E7B08F3007A08F2007908F1007808D1
:040E2600F0000800D0
:100E2A002D00CE01CF014808D0004908D1008030FA
:100E3A004906F00080307002031D252F0030480259
:100E4A000318332F0130CE000030CF004808003C91
:100E5A00D0004908031C013ED101D1025008DF002D
:100E6A005108E0004A08E1004B08E2001924063064
:100E7A00CC000030CD004D08003C031D462F4C0825
:100E8A00003C0318612F4C084A0786004D084B3D69
:100E9A00870001304C02F00000304D3BF100700831
:100EAA004A07840071084B3D850000088100013023
:100EBA00CC020030CD3B402F4A0886004B08870001
:100ECA00203081004E084F040319872FCC01CD0131
:100EDA004C084A0784004D084B3D85000008203A1B
:100EEA00031D7B2FCC0A0319CD0A6D2F0130CC02CA
:100EFA000030CD3B4C084A0786004D084B3D870021
:060F0A002D3081000800FB
:100F100062302D00C8000030C9004A2621000C11A3
:100F200022000C1121000E1457302D00C800003093
:100F3000C9006F30CA000030CB00D12670080319F9
:100F4000A42F0130F000E92FB530C8000130C900EE
:100F50004A26EA30C8000130C9006F30CA000030AC
:100F6000CB00D12670080319B82F0230F000E92F0A
:100F70004330C8000230C9004A266130C800023040
:100F8000C9006F30CA000030CB00D12670080319A9
:100F9000CC2F0330F000E92F4F30C8000230C900D9
:100FA0004A263830C8000230C9006F30CA0000300D
:100FB000CB00D12670080319E02F0430F000E92F90
:100FC0002930C8000230C9004A2601302100AA0099
:040FD000F001080024
:100FD400A0302D00C8000230C9006F30CA000030B4
:100FE400CB00D12670080319FA2F0130F000FB2F33
:040FF400F001080000
:10100000B7302D00C8000230C9006F30CA00003070
:10101000CB008031D12688317008031912280130A5
:08102000F0001328F0010800A4
:10102800D7302D00C8000130C9006F30CA00003029
:10103800CB008031D1268831700803192628013069
:0C104800F00029282100AA01F001080096
:101054002D00A001A101A030C8000030C9006F30EC
:10106400CA000030CB008031D126883170080319C2
:101074003E280130F0005F292C00EB01EC012D002B
:1010840020082104031DD2280D3020006E02F10037
:10109400F2010030F23B80302C006C06F00080300E
:1010A40072067002031D582871086B020318D228B7
:1010B400ED30F0002230F1006B08700784006C08FA
:1010C400713D85000008F1007108433A031DCD28E5
:1010D40001306B07F20000306C3DF300ED30F0009E
:1010E4002230F1007208700784007308713D850096
:1010F4000008F10071084D3A031DCD2802306B073A
:10110400F20000306C3DF300ED30F0002230F100CD
:101114007208700784007308713D85000008F100AF
:101124007108543A031DCD2803306B07F2000030D8
:101134006C3DF300ED30F0002230F10072087007CE
:1011440084007308713D85000008F1007108453A78
:10115400031DCD2804306B07F20000306C3DF30012
:10116400ED30F0002230F10072087007840073083B
:10117400713D85000008F10071083A3A031DCD283D
:1011840006306B07ED0000306C3DEE0001302D00A1
:10119400A0000030A1002C00EB0A0319EC0A41283E
:1011A4002D0020082104031DDA280230F0005F29F5
:1011B40080302C006E06F00080307002031DE6289B
:1011C40020006E082C006D020318FC28ED30F0009E
:1011D4002230F1006D08700784006E08713D8500AF
:1011E4000008F10071082C3A0319FC28ED0A0319D0
:1011F400EE0ADA28063020006E02F100F201003017
:10120400F23B80307206F00080302C006E067002D3
:10121400031D0E296D087102031813290230F00012
:101224005F29ED0A0319EE0AEB01EC0180306C062C
:10123400F00080307002031D212905306B02031871
:1012440057296B086D07F2006C086E3DF300ED3012
:10125400F0002230F1007208700784007308713DB9
:1012640085000008F10071080D3A031957292C3044
:101274006B07860000306C3D87006B086D07F20039
:101284006C086E3DF300ED30F0002230F10072087E
:10129400700784007308713D85000008F000700831
:1012A4008100EB0A0319EC0A18292C306B0786001D
:0C12B40000306C3D87008101F001080053
:1012C00034302D00C8000030C9006F30CA00003033
:1012D000CB008031D1268831700803197229013082
:1012E000F000742A2C00ED01EE01EB01EC0100305E
:1012F0006E06031D7D2900306D06031DFC2980301C
:101300006C06F00080307002031D8A2920006E08F0
:101310002C006B020318FC29ED30F0002230F100A4
:101320006B08700784006C08713D85000008F100AF
:1013300071082B3A031DF82901306B07F2000030C9
:101340006C3DF300ED30F0002230F10072087007C0
:1013500084007308713D85000008F1007108433A6C
:10136000031DF82902306B07F20000306C3DF300DA
:10137000ED30F0002230F10072087007840073082D
:10138000713D85000008F10071084C3A031DF829F1
:1013900003306B07F20000306C3DF300ED30F000DD
:1013A0002230F1007208700784007308713D8500D7
:1013B0000008F1007108433A031DF82904306B0757
:1013C000F20000306C3DF300ED30F0002230F1000F
:1013D0007208700784007308713D85000008F100F1
:1013E0007108433A031DF8290130ED000030EE008A
:1013F000EB0A0319EC0A77290130EB020030EC3BD1
:101400006B0820006E022800EF00ED302D00A200D6
:101410002230A3002C006B082D00A2072C006C08C2
:101420002D00A33D07302C00EB000030EC00013014
:10143000ED000030EE0080306C06F000803070026D
:10144000031D262A28006F082C006B020318732A3C
:101450008030F00080306E067002031D312A6D0866
:10146000063C031C732A6B082D00220784002C0005
:101470006C082D00233D850000082C3A031D482AE6
:101480002C00ED0A0319EE0A2D00A001A1016E2A1D
:1014900000302C006E06031D4F2A06306D06031D1A
:1014A0006E2A4F302D00200786000630213D870030
:1014B0002C006B082D00220784002C006C082D00E6
:1014C000233D850000088100A00A0319A10A4F30BE
:1014D000200786000630213D870081012C00EB0AA1
:0A14E0000319EC0A1B2AF0010800B2
:1014EA002D00A001A101E230C8000130C9006F300F
:1014FA00CA000030CB008031D12688317008031928
:10150A00892A0130F000CF2B2C00EB01EC012D00D1
:10151A0020082104031D072B0E3020006E02F10063
:10152A00F2010030F23B80302C006C06F000803073
:10153A0072067002031DA32A71086B020318072B97
:10154A00ED30F0002230F1006B08700784006C085F
:10155A00713D85000008F1007108433A031D022B12
:10156A0001306B07F20000306C3DF300ED30F00003
:10157A002230F1007208700784007308713D8500FB
:10158A000008F1007108423A031D022B02306B0772
:10159A00F20000306C3DF300ED30F0002230F10033
:1015AA007208700784007308713D85000008F10015
:1015BA007108433A031D022B03306B07F200003017
:1015CA006C3DF300ED30F0002230F1007208700734
:1015DA0084007308713D85000008F10071083A3AE9
:1015EA00031D022B05306B07ED0000306C3DEE0049
:1015FA0001302D00A0000030A1002C00EB0A0319D5
:10160A00EC0A8C2A2D0020082104031D0F2B02301E
:10161A00F000CF2B80302C006E06F0008030700274
:10162A00031D1B2B20006E082C006D020318312BA2
:10163A00ED30F0002230F1006D08700784006E086A
:10164A00713D85000008F10071082C3A0319312B0D
:10165A00ED0A0319EE0A0F2B073020006E02F10083
:10166A00F2010030F23B80307206F00080302C002C
:10167A006E067002031D432B6D0871020318482B76
:10168A000330F000CF2BED0A0319EE0A80306E0604
:10169A00F00080307002031D562B20006E082C00CB
:1016AA006D0203186C2BED30F0002230F1006D084A
:1016BA00700784006E08713D85000008F10071080A
:1016CA002C3A03196C2BED0A0319EE0A4B2B053041
:1016DA0020006E02F100F2010030F23B8030720607
:1016EA00F00080302C006E067002031D7E2B6D0800
:1016FA0071020318832B0430F000CF2BED0A031973
:10170A00EE0AEB01EC0180306C06F00080307002CA
:10171A00031D912B04306B020318C72B6B086D074E
:10172A00F2006C086E3DF300ED30F0002230F1005B
:10173A007208700784007308713D85000008F10083
:10174A0071080D3A0319C72B24306B078600003045
:10175A006C3D87006B086D07F2006C086E3DF30064
:10176A00ED30F0002230F10072087007840073082F
:10177A00713D85000008F00070088100EB0A03192A
:10178A00EC0A882B24306B07860000306C3D8700FA
:06179A008101F0010800CE
:1017A000CC302D00C8000130C9006F30CA000030B5
:1017B000CB008031D126883170080319E22B01302B
:0E17C000F000E62B01302100AA00F001080025
:1017CE002C004B08F0004C08F10080319B2688312C
:0217DE00080001
:1017E0001F30210097008B13FF308C00FF308E00DC
:1017F00022008C018E0123008C018E0122009113A6
:10180000931321008C1220008C1221000C12200056
:101810000C1221008E140E118031A0268831320066
:10182000951211303C00A40014303D00A20080311C
:101830005F26883123009F1540309B0003309C00B9
:101840001E158031262688310530FB000F30FC0044
:10185000F130FD00FD0B2A2CFC0B2A2CFB0B2A2C53
:1018600021009116200091120E302D00C80000308A
:10187000C9000530CA000430CB008030CC002530D0
:10188000CD00CE01CF01D0018031E3248831053075
:10189000FB000F30FC00F130FD00FD0B4D2CFC0B6C
:0C18A0004D2CFB0B4D2C0B178B17080078
:1018AC0012001E00F003031D562CF103031D562CD1
:0218BC00080022
:1018BE002D00A001A101C430C8000130C9006F3055
:1018CE00CA000030CB008031D12688317008031950
:1018DE00732C0130F000952D2C00EB01EC012D0046
:1018EE0020082104031DF12C0B3020006E02F100A4
:1018FE00F2010030F23B80302C006C06F00080309C
:10190E0072067002031D8D2C71086B020318F12CE8
:10191E00ED30F0002230F1006B08700784006C0887
:10192E00713D85000008F1007108433A031DEC2C4F
:10193E0001306B07F20000306C3DF300ED30F0002B
:10194E002230F1007208700784007308713D850023
:10195E000008F1007108533A031DEC2C02306B079E
:10196E00F20000306C3DF300ED30F0002230F1005B
:10197E007208700784007308713D85000008F1003D
:10198E007108513A031DEC2C03306B07F200003046
:10199E006C3DF300ED30F0002230F100720870075C
:1019AE0084007308713D85000008F10071083A3A11
:1019BE00031DEC2C05306B07ED0000306C3DEE0086
:1019CE0001302D00A0000030A1002C00EB0A0319FD
:1019DE00EC0A762C2D0020082104031DF92C023070
:1019EE00F000952D2C00EB01EC0180306C06F00020
:1019FE0080307002031D052D03306B0203183B2D42
:101A0E006B086D07F2006C086E3DF300ED30F000D0
:101A1E002230F1007208700784007308713D850052
:101A2E000008F10071082C3A03193B2D4D306B075D
:101A3E00860000306C3D87006B086D07F2006C0865
:101A4E006E3DF300ED30F0002230F10072087007A9
:101A5E0084007308713D85000008F0007008810055
:101A6E00EB0A0319EC0AFC2C4D306B078600003094
:101A7E006C3D8700810101306B07F00000306C3D3A
:101A8E00F1007008ED077108EE3DEB01EC018030BE
:101A9E006C06F00080307002031D572D03306B0270
:101AAE0003188D2D6B086D07F2006C086E3DF30068
:101ABE00ED30F0002230F1007208700784007308D8
:101ACE00713D85000008F10071080D3A03198D2D46
:101ADE0040306B07860000306C3D87006B086D0749
:101AEE00F2006C086E3DF300ED30F0002230F10094
:101AFE007208700784007308713D85000008F000BD
:101B0E0070088100EB0A0319EC0A4E2D40306B076A
:0E1B1E00860000306C3D87008101F001080058
:101B2C002000FB01FA01F901F801A001730DF80D79
:101B3C007408F8027508031C750FF9027608031C6B
:101B4C00760FFA027708031C770FFB020001031CC7
:101B5C000130A002F30D0730FC00730DF80DF90DE8
:101B6C00FA0DFB0DA00D7408731CCE2DF802750830
:101B7C00031C750FF9027608031C760FFA0277081E
:101B8C00031C770FFB020001031C0130A002DF2DA8
:101B9C00F80775080318750FF90776080318760F00
:101BAC00FA0777080318770FFB07000103180130B9
:101BBC00A007F30DFC0BB32D720DF80DF90DFA0DFA
:101BCC00FB0DA00D7408731CFD2DF8027508031C89
:101BDC00750FF9027608031C760FFA027708031CBE
:101BEC00770FFB020001031C0130A0020E2EF80738
:101BFC0075080318750FF90776080318760FFA079E
:101C0C0077080318770FFB07000103180130A007B2
:101C1C00F20D0730FC00720DF80DF90DFA0DFB0DED
:101C2C00A00D7408721C2C2EF8027508031C750F7D
:101C3C00F9027608031C760FFA027708031C770F5B
:101C4C00FB020001031C0130A0023D2EF8077508B1
:101C5C000318750FF90776080318760FFA0777083B
:101C6C000318770FFB07000103180130A007F20DD2
:101C7C00FC0B112E710DF80DF90DFA0DFB0DA00DCD
:101C8C007408721C5B2EF8027508031C750FF902A0
:101C9C007608031C760FFA027708031C770FFB02F9
:101CAC000001031C0130A0026C2EF8077508031804
:101CBC00750FF90776080318760FFA0777080318DB
:101CCC00770FFB07000103180130A007F10D073057
:101CDC00FC00710DF80DF90DFA0DFB0DA00D74083B
:101CEC00711C8A2EF8027508031C750FF902760810
:101CFC00031C760FFA027708031C770FFB02000116
:101D0C00031C0130A0029B2EF80775080318750FF1
:101D1C00F90776080318760FFA0777080318770F78
:101D2C00FB07000103180130A007F10DFC0B6F2E0F
:101D3C00700DF80DF90DFA0DFB0DA00D7408711C4A
:101D4C00B92EF8027508031C750FF9027608031CEE
:101D5C00760FFA027708031C770FFB020001031CB5
:101D6C000130A002CA2EF80775080318750FF90781
:101D7C0076080318760FFA0777080318770FFB0716
:101D8C00000103180130A007F00D0730FC00700DA6
:101D9C00F80DF90DFA0DFB0DA00D7408701CE82E52
:101DAC00F8027508031C750FF9027608031C760FF0
:101DBC00FA027708031C770FFB020001031C0130A9
:101DCC00A002F92EF80775080318750FF9077608A5
:101DDC000318760FFA0777080318770FFB07000133
:101DEC0003180130A007F00DFC0BCD2E70180C2F32
:101DFC007408F80775080318750FF90776080318A7
:0E1E0C00760FFA0777080318770FFB07080018
:101E1A00210039082D00C80021003A082D00C90008
:101E2A00A030CA000630CB00803115278831A03097
:101E3A00C8000630C9008031A6248831A830C800FD
:101E4A000630C9002030CA000230CB008031A726F4
:101E5A008831A830C8000630C9004F30CA000630A1
:101E6A00CB001430CC000030CD008031DC25883125
:101E7A00A830C8000630C900EE30CA000030CB00D6
:101E8A008031662688313E30DF008031F222883187
:101E9A00A830C8000630C90080314A2688313C3053
:101EAA00DF008031F2228831A830C8000630C9002C
:101EBA00ED30CA000030CB008031D126883170085D
:101ECA0003196A2F0130F000D92F2000EF012100F9
:101EDA002B08313A031DBD2FD0302D00DF00023010
:101EEA00E0008031FE238831CA30DF000230E00092
:101EFA008031FE2388312030DF000130E00080315C
:101F0A00FE238831E130DF000230E0008031FE2319
:101F1A0088314030DF000130E0008031FE23883113
:101F2A00DA30DF000230E0008031FE2388313430BD
:101F3A00DF000130E0008031FE238831C330DF004A
:101F4A000230E0008031FE238831A030DF00063005
:101F5A00E0008031FE2388310D30EF0080310A2104
:101F6A0088311A302D00EF0080310A218831CA2FBA
:101F7A00A5302D00DF000230E0008031FE238831D9
:101F8A001A30EF0080310A2188316F302D00DF00CE
:101F9A000030E0008031C022883170080319D82F40
:0A1FAA000230F000D92FF00108000A
:102000002D00A701A201A3012C00EB01EC01073078
:1020100020006E02F100F2010030F23B80302C0013
:102020006C06F000803072067002031D19287108DA
:102030006B020318C32800302D002306031D22283D
:1020400000302206031DC328ED30F0002230F100DD
:102050002C006B08700784006C08713D8500000837
:10206000F1007108433A031DBE2801306B07F200EE
:1020700000306C3DF300ED30F0002230F1007208CA
:10208000700784007308713D85000008F100710835
:10209000473A031DBE2802306B07F20000306C3D4A
:1020A000F300ED30F0002230F10072087007840078
:1020B0007308713D85000008F10071084E3A031D58
:1020C000BE2803306B07F20000306C3DF300ED30AA
:1020D000F0002230F1007208700784007308713D2F
:1020E00085000008F1007108533A031DBE28043032
:1020F0006B07F20000306C3DF300ED30F000223051
:10210000F1007208700784007308713D85000008B3
:10211000F1007108493A031DBE2805306B07F20033
:1021200000306C3DF300ED30F0002230F100720819
:10213000700784007308713D85000008F100710884
:102140004E3A031DBE2806306B07F20000306C3D8E
:10215000F300ED30F0002230F100720870078400C7
:102160007308713D85000008F1007108463A031DAF
:10217000BE2801302D00A2000030A3002C00EB0A85
:102180000319EC0A072800302D002306031DCA2876
:1021900000302206031DCF280130F000DF2AA20103
:1021A000A3012C006B08ED006C08EE0080306E0679
:1021B000F00080307002031DE12820006E082C0022
:1021C0006D020318072900302D002306031DEA289D
:1021D00000302206031D0729ED30F0002230F10007
:1021E0002C006D08700784006E08713D85000008A2
:1021F000F10071080D3A031D022901302D00A200E3
:102200000030A3002C00ED0A0319EE0AD628003096
:102210002D002306031D0E2900302206031D13295D
:102220000130F000DF2A01302C00EB020030EC3BE3
:102230006B0820006E022800EF00ED302D00A40096
:102240002230A5002C006B082D00A4072C006C0880
:102250002D00A53D08302C00EB000030EC000130D3
:10226000ED000030EE0080306C06F000803070022F
:10227000031D3E2928006F082C006B0203187629E5
:102280008030F00080306E067002031D49296D0811
:10229000093C031C76296B082D00240784002C00C0
:1022A0006C082D00253D850000082C3A031D5D2992
:1022B0002C00ED0A0319EE0A71292C0000306E067D
:1022C000031D642902306D06031D71296B082D0062
:1022D000240784002C006C082D00253D8500000893
:1022E000A7002C00EB0A0319EC0A33292D0027085C
:1022F000313A031DDD2A01302C00EF002D00A6012C
:102300002100B901BA0108302C00EB000030EC00CC
:102310000130ED000030EE0080306C06F0008030BF
:102320007002031D972928006F082C006B02031808
:10233000DB2A8030F00080306E067002031DA22977
:102340006D08093C031CDB2A6B082D002407840060
:102350002C006C082D00253D850000082C3A031D3B
:10236000BC292C00ED0A0319EE0A2D00A001A101E1
:1023700001302C00EF00D62A2C0000306E06031D21
:10238000C32901306D06031DD2296B082D002407D7
:1023900084002C006C082D00253D850000082400D9
:1023A000EF00D62A00302C006E06031DD92902301A
:1023B0006D06031DE8296B082D00240784002C00FE
:1023C0006C082D00253D850000082100AB00D62AB1
:1023D00000302C006E06031DEF2903306D06031D2F
:1023E000362A6B082D00240784002C006C082D0071
:1023F000253D850030300002031C252A2C006B0887
:102400002D00240784002C006C082D00253D85003C
:102410000008393C031C252A2608003A031D252AFA
:102420002030200786000130213D87002C006B08FA
:102430002D00240784002C006C082D00253D85000C
:1024400000088100A00A0319A10A2C006B082D00C6
:10245000240784002C006C082D00253D8500000811
:102460002E3A031D352A0130A600D62A00302C0052
:102470006E06031D3D2A04306D06031D562A4030AA
:102480002D00200786000130213D87002C006B08BD
:102490002D00240784002C006C082D00253D8500AC
:1024A00000088100A00A0319A10AD62A00302C00D6
:1024B0006E06031D5D2A05306D06031D762A343035
:1024C0002D00200786000130213D87002C006B087D
:1024D0002D00240784002C006C082D00253D85006C
:1024E00000088100A00A0319A10AD62A00302C0096
:1024F0006E06031D7D2A06306D06031DD62A6B0865
:102500002D00240784002C006C082D00253D85003B
:1025100030300002031CC62A2C006B082D00240753
:1025200084002C006C082D00253D85000008393CF6
:10253000031CC62A2C006F080319C62A210039087B
:10254000F0003A08F1000A30F4000030F500803164
:10255000EB26903170082100B9007108BA002C00F8
:102560006B082D00240784002C006C082D00253DED
:10257000850030300002F200F3010030F33B7208B6
:1025800070072100B9007308713DBA002C006B0878
:102590002D00240784002C006C082D00253D8500AB
:1025A00000082E3A031DD62A2C00EF012C00EB0A5E
:1025B0000319EC0A8C29F001DF2A0130F000080031
:1025C0009831742190312C00E701E801E901EA011A
:1025D0002700EF018831F0239031C3302D00C8006F
:1025E0000330C90080314A269031A030C800033042
:1025F000C90080314A2690312930C8000330C90013
:1026000080314A26903120008C1664008031882762
:10261000903170082700EF006F0803191E2B20303F
:102620002D00C8000330C90080314A269031803126
:102630008827903170082700EF000C2B20008C12A7
:1026400064006400250068080319B42BBA302D001B
:10265000C8000330C90080314A269031AF30C8002D
:102660000330C90080314A26903188316021903191
:1026700070082700EF006F080319542BCD302D0090
:10268000C8000330C90080314A2690315F30C8004D
:102690000430C90080314A26903188316021903160
:1026A00070082700EF003B2B64004F302D00C8005E
:1026B0000630C90080314A2690315530C8000430B8
:1026C000C90080314A2690318031EA279031700864
:1026D0002700EF006F080319832BA0302D00C800DE
:1026E0000430C90080314A269031B330C80004302C
:1026F000C90080314A2690318031EA279031700834
:102700002700EF006A2B6400A9302D00C8000430B8
:10271000C90080314A26903188310D2790317008E8
:102720002700EF006F080319AB2B4C302D00C800B9
:102730000430C90080314A2690312A30C800043064
:10274000C90080314A26903188310D2790317008B8
:102750002700EF00922B0D302D00DF008031F22298
:10276000903164002500E8011430F400F501F60111
:10277000F7012C006708F0006808F1006908F20012
:102780006A08F3008831962590317808F0007908BE
:10279000F1007A08F2007B08F3000030F4007306C1
:1027A000031DDC2B74087206031DDC2B74087106F4
:1027B000031DDC2B7008003A031D122C34302D0051
:1027C000C8000430C90080314A2690318831002089
:1027D000903170082700EF007008031D042C413071
:1027E0002D00C8000430C90080314A2690310020F5
:1027F00070080319032CD6302D00C8000330C9001F
:1028000080314A2690310C2C2D00E630C800033070
:10281000C90080314A2690312D000D30DF00803113
:10282000F22290311430F400F501F601F7012C008A
:102830006708F0006808F1006908F2006A08F30010
:102840008831962590317808F0007908F1007A08EF
:10285000F2007B08F3000030F4007306031D3A2CED
:1028600074087206031D3A2C74087106031D3A2C75
:102870007008003A031D5B2C20302D00C800043086
:10288000C90080314A26903188315F249031700828
:102890002700EF0070080319552CCC302D00C8001C
:1028A0000030C90080314A2690312D000D30DF0004
:1028B0008031F22290311430F400F501F601F70175
:1028C0002C006708F0006808F1006908F2006A0847
:1028D000F3008831962590317808F0007908F100EE
:1028E0007A08F2007B08F3000030F4007306031D41
:1028F000832C74087206031D832C74087106031D53
:10290000832C7008003A031DA42CC2302D00C8008F
:102910000030C90080314A26903188312A20903118
:1029200070082700EF00700803199E2CDD302D0081
:10293000C8000030C90080314A2690312D000D308A
:10294000DF008031F22290311430F400F501F601FD
:10295000F7012C006708F0006808F1006908F20030
:102960006A08F3008831962590317808F0007908DC
:10297000F1007A08F2007B08F3000030F4007306DF
:10298000031DCC2C74087206031DCC2C7408710630
:10299000031DCC2C7008003A031DED2CD3302D0004
:1029A000C8000030C90080314A2690318831752234
:1029B000903170082700EF0070080319E72CBB3036
:1029C0002D00C8000030C90080314A2690312D000A
:1029D0000D30DF008031F222903121002B08313A96
:1029E000031D6B2D2A0803192E2D8030133AF00099
:1029F00080303A067002031DFF2C3908883C03180A
:102A00002E2DAC302D00C8000030C90080314A2680
:102A1000903188311420903170082700EF006F0842
:102A20000319282D67302D00C8000130C9008031FE
:102A30004A2690315930C8000130C90080314A26F9
:102A4000903188311420903170082700EF000F2D4D
:102A50000D302D00DF008031F222903121002A0854
:102A6000031D6B2D80303A06F0008030113A700261
:102A7000031D3C2D9430390203186B2DA9302D0015
:102A8000C8000130C90080314A2690318831D023F6
:102A9000903170082700EF006F080319652DA030F2
:102AA0002D00C8000130C90080314A2690314C30D9
:102AB000C8000130C90080314A2690318831D023C6
:102AC000903170082700EF004C2D0D302D00DF00F5
:102AD0008031F22290311430F400F501F601F70153
:102AE0002C006708F0006808F1006908F2006A0825
:102AF000F3008831962590317808F0007908F100CC
:102B00007A08F2007B08F3000030F4007306031D1E
:102B1000932D74087206031D932D74087106031D0E
:102B2000932D7008003A031D982D20008C169A2DC5
:102B300020008C1201302C00E7070030E83DE93D11
:102B4000EA3D0530FB000F30FC00F130FD00FD0BCD
:102B5000A72DFC0BA72DFB0BA72D1430F400F501BE
:102B6000F601F7016708F0006808F1006908F20053
:102B70006A08F3008831962590317808F0007908CA
:102B8000F1007A08F2007B08F3000030F4007306CD
:102B9000031DD42D74087206031DD42D740871060C
:102BA000031DD42D7008003A031DC02EE4302D0003
:102BB000C8000030C90080314A26903121002B081E
:102BC000313A031D6C2E39082D00C80021003A0847
:102BD0002D00C9005F30CA000630CB0080311527B8
:102BE00090315F30C8000630C9008031A624903192
:102BF0002600EF0120308400013085006F08840733
:102C00000318850A0008003A0319462E6F08043A93
:102C10000319132E6F08063A0319132E6F08083A8A
:102C20000319132E192E2E302D00DF008031F222D1
:102C3000903126006F08083A031D242E20302D0005
:102C4000DF008031F222903126006F080A3A031922
:102C50002E2E6F080C3A03192E2E342E3A302D00EA
:102C6000DF008031F2229031203084000130850075
:102C700026006F0884070318850A00082D00DF006E
:102C80008031F22290312600EF0AFA2D2C302D00EF
:102C9000DF008031F22290314030C8000130C9009D
:102CA00080314A2690312C30DF008031F222903181
:102CB0003430C8000130C90080314A2690312C30B0
:102CC000DF008031F22290315F30C8000630C90049
:102CD00080314A269031742E2D004930C8000030D2
:102CE000C90080314A26903121002A080319812E1B
:102CF00045302D00C8000030C90080314A2690318F
:102D0000892E2D005230C8000030C90080314A267B
:102D100090312C30DF008031F22290314D30C800EC
:102D20000030C90080314A2690312C30DF008031DC
:102D3000F22290314030C8000030C90080314A266C
:102D400090312C30DF008031F22290312C30C800DD
:102D50000030C90080314A2690312C30DF008031AC
:102D6000F22290312430C8000030C90080314A2658
:102D700090313D30C8000030C90080314A26903182
:042D8000212BC12E14
:1032E800C3308400963085004C30F0000130F10086
:1032F8002430860000308700883156249831003009
:103308008400983085004430F0000130F100A0308E
:103318008600003087008831562498316030840058
:10332800993085001430F0000130F100203086001B
:1033380001308700883156249831ED308400973069
:1033480085000730F0000130F100E43086000030DD
:10335800870088315624983144308400983085009D
:103368003C30F0000130F100343086000130870035
:103378008831562498315A308400973085004A3075
:10338800F0000130F100A03086000130870088315C
:1033980056249831FD3084008F3085000230F000CB
:1033A8000130F100EB308600003087008831562468
:1033B80098311A308400993085001830F0000130B7
:1033C800F100203086000230870088315624983179
:1033D800FC308400873085000330F0000130F100B4
:1033E800ED30860000308700883156249831493006
:1033F8008400993085001730F0000130F100383032
:10340800860002308700883156249831F4308400D1
:10341800973085000630F0000130F100EA30860070
:1034280001308700883156249831DD308400983087
:1034380085002030F0000130F1004F308600023066
:1034480087008831562498313230840099308500BD
:103458001730F0000130F100A030860002308700FC
:10346800883156249831FF30840087308500013038
:10347800F0000130F1006F3086000230870088319B
:103488005624983180308400983085003130F0001F
:103498000130F100B73086000230870088315624A9
:1034A8009831A4308400973085004930F00001300D
:1034B800F100203086000330870088315624983187
:1034C800DA3084008F3085002330F0000130F100BD
:1034D800A0308600033087008831562498310330A5
:1034E8008400803085000130F0000130F100E830C0
:1034F800860002308700883156249831B130840024
:10350800983085002C30F0000130F100C33086007F
:10351800033087008831562498310F308400973063
:1035280085004B30F0000130F10020308600043077
:103538008700883156249831FD3084009830850002
:103548001D30F0000130F100A03086000430870003
:08355800883156249831080067
:020006000034C4
:020FF8000034C3
:040FFA000D3400347E
:020FFE0030348D
:101FB4000D344434613474346134203466346F3401
:0E1FC40072346D34613474343A340D340034A8
:101FD2006734653474345F346E3475346D3462340E
:061FE20065347234003486
:101FE800523449344E34473449344E3447340D342E
:021FF8000034B3
:021FFA000034B1
:021FFC000034AF
:102D86002D3431340034003400340034003400343F
:102D96002D3431340034003400340034003400342F
:102DA600413454342B3443344C34433443340D349B
:022DB6000034E7
:062DB8000D340D3400345F
:0A2DBE002D343134003400340034A9
:082DC8002C344F344E3400346A
:082DD0002C342C342C340034A7
:0A2DD8002D3431340034003400348F
:0A2DE2002C344F34463446340034DC
:102DEC00413454342B344334463455344E343D340E
:062DFC0031340D340034F7
:102E020066346F346E3461345F3469346E346934DD
:082E1200743428342934003423
:022E1A00003482
:022E1C00003480
:102E1E0072346534613464345F34723473347334B1
:042E2E0069340034CF
:102E32000D34733465346E3464345F3473346D34FA
:042E420073340034B1
:102E46006734653474345F346734703473345F3494
:0A2E560064346134743461340034D4
:102E60000D346734703473345F34703461347234C9
:062E7000733465340034E8
:102E76002034543449344D3445344F345534543465
:022E8600003416
:102E88000D3465346E3464345F34633461346C34C7
:042E98006C34003462
:102E9C000D346734653474345F346E3475346D348A
:082EAC00623465347234003415
:102EB4002034543449344D3445344F345534543427
:022EC4000034D8
:102EC600673473346D345F3470346F3477346534FB
:082ED60072346F346E340034D5
:102EDE000D342034203420342B34433446345534CE
:0E2EEE004E343D34313420344F344B340034F4
:102EFC00413454342B344334533451340D34003472
:102F0C00413454342B344334463455344E343D34EC
:062F1C0031340D340034D5
:102F2200413454342B344334463455344E343D34D6
:062F320030340D340034C0
:102F3800413454342B344334423443340D34003454
:102F4800543449344D3445344F34553454340D34A5
:022F5800003443
:102F5A0044344134543441343A34543469346D3449
:102F6A0065342C344C34613474342C344C346F341E
:102F7A006E342C3441346C34743428346D3429342E
:102F8A002C34473453344D345F34733474346134DD
:102F9A00743465342C3452345334533449342C3415
:102FAA004234453452342C34543465346D347034DC
:102FBA002834433429342C3456345F34423461344F
:102FCA00743428346D34563429340D340D340034B5
:0E2FDA000D3444344134543441343A3400341C
:0C2FE80041345434453430340D3400348E
:10300000413454342B3443344D34543445343F34F8
:043010000D34003447
:02301400003486
:02301600303454
:10301800673473346D345F3470346F3477346534A7
:0A30280072346F34663466340034ED
:043032000034003432
:0E30360020344534523452344F345234003476
:1030440072346534613464345F34743465346D349B
:0430540070340034A0
:0E30580020344534523452344F345234003454
:1030660072346534613464345F3476346234613486
:04307600743400347A
:0E307A0020344534523452344F345234003432
:103088003034003400340034003400340034003468
:08309800003400340034003460
:1030A0003034003400340034003400340034003450
:0830B000003400340034003448
:1030B8000D34673473346D345F3470346F3477345F
:0A30C800653472346F346E34003446
:1030D2000D34673473346D345F3470346F34773445
:0C30E200653472346F3466346634003498
:1030EE002034543449344D3445344F3455345434EB
:0230FE0000349C
:10310000413454342B34433447344E3453344934EB
:083110004E3446340D34003446
:0E3118000D3441344C3454343A3420340034F5
:0C3126005534543443343A34203400341F
:103132004C346134733474342034663469347834F2
:043142000D34003414
:0E3146000D344C344F344E343A3420340034BF
:0E3154000D344C34413454343A3420340034B9
:1031620050344F3457344534523420344F344E3473
:043172000D340034E4
:103176002034543449344D3445344F345534543462
:02318600003413
:10318800203442345534463446344534523420349D
:1031980049344E34563441344C3449344434003480
:1031A8002034543449344D3445344F345534543430
:0231B8000034E1
:1031BA000D342034203420342B34433447344E34F5
:1031CA0053345034573452343D34313420344F342C
:0431DA004B3400343E
:1031DE00413454342B34433447344E345334503406
:0C31EE00573452343D3431340D34003479
:1031FA002034543449344D3445344F3455345434DE
:02320A0000348E
:10320C000D34733465346E3464345F3473346D341C
:04321C0073340034D3
:103220000D3465346E3464345F34633461346C342B
:043230006C340034C6
:10323400413454342B3443344D34473453343D34C3
:02324400003454
:103246002034203420342B3443344D344734463430
:0E3256003D34313420344F344B340D340034C9
:0A3264004134543448340D34003472
:10326E004E346F342034763461346C3469346434C3
:10327E0020346634693478342034793465347434C7
:04328E000D340034C7
:10329200413454342B3443344D34473446343D3472
:0632A20031340D3400344C
:1032A8000D342034203420344134543445343034FF
:0832B80020344F344B34003484
:1032C000303400340034003400340034003400342E
:1032D000003400340034003400340034003400344E
:0832E000003400340034003416
:020000040001F9
:08000E0004292E3A030003004F
:00000001FF
