:040000009031E42A2D
:1000080070082000A3007108A2007208A1008031C6
:10001800911EE6288030F0008030003A7002031DFF
:100028001828F93021002A020318E628EE2770085C
:100038002D00E800ED30F1002230F20021002A08FE
:10004800710786000030723D870070088100AF2874
:100058002D0068084F3A031D352801302100E900BA
:100068004F282D006808453A031D3E28023021001C
:10007800E9004F282D006808523A031D472806302A
:100088002100E9004F282D0068083E3A031D4F283B
:1000980001302100EB00D4282D0068084B3A031DDD
:1000A800582801302100A0002100E901D4282D00A2
:1000B8006808523A031D642803302100E9006628C5
:1000C8002100E901D4282D006808523A031D702840
:1000D80004302100E90072282100E901D4282D000C
:1000E80068084F3A031D7C2805302100E9007E2866
:1000F8002100E901D4282D006808523A031D8728F9
:1001080001302100EA002100E901D4282D00680807
:10011800493A031D932807302100E900952821005A
:10012800E901D4282D0068084E3A031D9F2808309D
:100138002100E900A1282100E901D4282D00680840
:10014800473A031DAA2801302100EF002100E901E8
:10015800D428E901D4286908003A03192C28690829
:10016800013A031950286908023A03195B286908FB
:10017800033A031967286908043A031973286908B8
:10018800053A03197F286908063A03198A28690875
:10019800073A031996286908083A0319A228AD28CE
:1001A80021002A0AF0007008AA00ED30F000223081
:1001B800F1002A08700786000030713D8700810130
:1001C8002000911220002308F0002208F1002108E5
:0401D800F200090028
:1001DC002000F801F9011030FC00710DF80DF90D3B
:1001EC007408F8027508031C750FF9020318052929
:1001FC007408F80775080318750FF9070310F00D4C
:08020C00F10DFC0BF3280800C2
:1002140023009E180F2900000A292D0067082300D7
:040224009A00080034
:100228002D00E703E7036708003C03182029E703CC
:100238000000000000001729000000000000000076
:0402480000000800AA
:10024C00FB09FA09F909F809F80A0319F90A03195B
:08025C00FA0A0319FB0A08006D
:100264007408F8027508031C750FF9027608031C5C
:10027400760FFA027708031C770FFB02F30D0730A1
:10028400FC00730DF80DF90DFA0DFB0D7408731CC9
:100294005929F8027508031C750FF9027608031C26
:1002A400760FFA027708031C770FFB026629F8071A
:1002B40075080318750FF90776080318760FFA07FF
:1002C40077080318770FFB07F30DFC0B4329720D16
:1002D400F80DF90DFA0DFB0D7408731C7F29F80253
:1002E4007508031C750FF9027608031C760FFA02D1
:1002F4007708031C770FFB028C29F807750803188D
:10030400750FF90776080318760FFA0777080318AC
:10031400770FFB07F20D0730FC00720DF80DF90D95
:10032400FA0DFB0D7408721CA529F8027508031C4C
:10033400750FF9027608031C760FFA027708031C7E
:10034400770FFB02B229F80775080318750FF90730
:1003540076080318760FFA0777080318770FFB0758
:10036400F20DFC0B8F29710DF80DF90DFA0DFB0D33
:100374007408721CCB29F8027508031C750FF90266
:100384007608031C760FFA027708031C770FFB022A
:10039400D829F80775080318750FF90776080318A4
:1003A400760FFA0777080318770FFB07F10D07306C
:1003B400FC00710DF80DF90DFA0DFB0D7408711C9C
:1003C400F129F8027508031C750FF9027608031C5D
:1003D400760FFA027708031C770FFB02FE29F80751
:1003E40075080318750FF90776080318760FFA07CE
:1003F40077080318770FFB07F10DFC0BDB29700D51
:10040400F80DF90DFA0DFB0D7408711C172AF8028A
:100414007508031C750FF9027608031C760FFA029F
:100424007708031C770FFB02242AF80775080318C2
:10043400750FF90776080318760FFA07770803187B
:10044400770FFB07F00D0730FC00700DF80DF90D68
:10045400FA0DFB0D7408701C3D2AF8027508031C84
:10046400750FF9027608031C760FFA027708031C4D
:10047400770FFB024A2AF80775080318750FF90766
:1004840076080318760FFA0777080318770FFB0727
:10049400F00DFC0B272A70185D2A7408F8077508FC
:1004A4000318750FF90776080318760FFA0777080B
:0804B4000318770FFB07080095
:1004BC0023001908F1009D1C652A1D121D167108D8
:0404CC00F000080034
:0C04D00000302000911A0130F0000800FC
:0C04DC00003023009E180130F0000800E2
:0C04E80000302000911A0130F0000800E4
:0C04F400003023009E180130F0000800CA
:1005000023001908F1009D1C872A1D121D16710871
:04051000F0000800EF
:1005140020002230FC00F801F901FA01FB01FC0380
:100524000319BF2A0310FB0CFA0CF90CF80CF30C9A
:10053400F20CF10CF00C031C912AFC030319B12AF0
:100544007408F80775080318750FF9077608031877
:10055400760FFA0777080318770FFB07952A7408B4
:10056400F80775080318750FF90776080318760F4E
:0C057400FA0777080318770FFB07080050
:100580002D00D90157088400580885000008F000A4
:100590007008031DE62A643059020318E62A57083A
:1005A0008400580885000008F0007008031DE52A43
:1005B000D90A0530FB000F30FC00F130FD00FD0BC7
:1005C000DF2AFC0BDF2AFB0BDF2AC22A5708840034
:1005D0005808850000080319EF2AF001F12A0130BC
:0405E000F00008001F
:1005E40001302D00D80024006F082D00D706240008
:1005F4006D0884006E0885006F08003A0319062B05
:1006040022006D088004092B22006C0880056F0805
:100614002D00E7001421D709580803192C2B58087A
:100624005705F000031D1A2B22006D0880041D2BB2
:1006340022006C0880052D00D835023022006F029C
:100644002D00E7001421000000000000000000005D
:1006540000000E2B24006F08003A0319352B2200EA
:100664006C088005382B22006D0880046F082D006B
:06067400E700142108005C
:10067A0023009E1690309D002000911E482B2300D7
:08068A001908F000412B0800E3
:100692007408003A031D622B7508003A031D622B91
:1006A2007608003A031D622B7708003A031D622B7D
:1006B200FF30F000FF30F100FF30F2007F30F30036
:1006C200FA2B2000FC01F71BFC0AFD01FB01FA01D9
:1006D200F901F80173087204710470040319F52B0F
:1006E20073087706A000A01BFD09F71F832BF409EE
:1006F200F509F609F709F40A0319F50A0319F60AC6
:100702000319F70AF31F902BF009F109F209F30913
:10071200F00A0319F10A0319F20A0319F30A73081A
:100722007704A000A01BB12B3221FC1BCE2BFD1F96
:10073200F52BF009F109F209F309F00A0319F10A9C
:100742000319F20A0319F30AF809F909FA09FB096C
:10075200F80A0319F90A0319FA0A0319FB0AF52B15
:10076200F71FC82BF31BC22B7308FB007208FA0099
:100772007108F9007008F800F301F201F101F001CB
:10078200982BF301F201F101F001F00A0034F309B0
:10079200F209F109F009FC17952BF80A0319F90A75
:1007A2000319FA0A0319FB0A74087802031D982B2D
:1007B20075087902031D982B76087A02031D982B7F
:1007C20077087B02031D982BFB01FA01F901F8015E
:1007D200F00A0319F10A0319F20A0319F30AF31FC3
:1007E200982BA0012016FF34A0017C1CF92B262196
:0407F200003E0800BD
:0E07F6000030F0007D30F100F201F301080048
:100804002D00DA0157088400580885000008D90033
:100814005908003A03191C2C5908E7000A212D0035
:10082400DA0A5A08570784000030583D850000084A
:06083400D9000A2C0800A7
:10083A002D00DB0105305B0203182D2C5B085907DC
:10084A00860000305A3D870020308100DB0A1F2CC9
:10085A005B085907860000305A3D87008101DB0397
:10086A005B085907DC0000305A3DDD000A30F4000D
:10087A00F5015708F0005808F100EE207808F0005A
:10088A007908F1003030F0072D005C0886005D0819
:10089A008700700881000A30F400F5015708F0005B
:1008AA005808F100EE2070082D00D7007108D80012
:1008BA0000307106031D632C00307006031D662C80
:0808CA00682CDB03352C08004B
:1008D2002D0057082C00C7002D0058082C00C80016
:1008E2002D0059082C00C9002D005A082C00CA00FE
:1008F2002D005B082800E9002D005C082800EA00B2
:100902002D005D082800EB002D005E082800EC0099
:100912002D005F082700E9002D0060082700EA008B
:100922002D0061082700EB002D0062082700EC0073
:100932002D0063082500EB002D0064082500EC0063
:100942002D0065082500ED002D0066082500EE004B
:0209520008009B
:100954002D00C201C3014008F3004108F40040081F
:10096400F5004108F6007308840074088500000847
:10097400203A031DC22C42084304031DC22CD32C6D
:100984000130C2000030C30073088400740885007D
:10099400750886007608870000088100F50A0319A7
:1009A400F60A7308F1007408F200F30A0319F40A52
:1009B40071088400720885000008003A031DB52CF4
:0A09C4004008F0004108F1000800AF
:1009CE002D0040082400ED002D0041082400EE000B
:1009DE002D004208F0000130F20070080319FA2CC5
:1009EE00F235FF3EF52C72082200EE007209260049
:1009FE00EF002D004308F1000130F00071080319DB
:100A0E000B2DF035FF3E062D70082200ED00F0098B
:100A1E007008EC0080302D00400784000030413D0E
:100A2E00850072088004700880052400EF012D00F7
:100A3E0048080319242D2400EF0924008030840275
:100A4E006F08003A03192F2D22006C088005322DF5
:100A5E0022006D088004FB23E830F4000330F5001B
:100A6E00F601F7018A2270082D00D3007108D40018
:100A7E007208D5007308D6005308C9005408CA007E
:100A8E005508CB005608CC004408F0004508F1008C
:100A9E004608F2004708F300F035F10DF20DF30DA4
:100AAE00F035F10DF20DF30D0A30F400F501F601FB
:100ABE00F7018A2270082D00CD007108CE00720851
:100ACE00CF007308D0007008F4007108F5007208AA
:100ADE00F6007308F7005308F0005408F1005508AB
:100AEE00F2005608F300492370082D00D10071085A
:100AFE00D2007108F400F5017408750403198A2DEB
:100B0E000230F000E12D51082200EF002D004D08BB
:100B1E00F4004E08F5004F08F6005008F70049089B
:100B2E00F0004A08F1004B08F2004C08F30049238C
:100B3E007808F0007908F1007A08F2007B08F300DB
:100B4E0070082D00C9007108CA007208CB00730826
:100B5E00CC004D08F5004E08F6004F08F70050087F
:100B6E00F800F837F70CF60CF50C80307806F40028
:100B7E00803073067402031DCE2D72087702031D9A
:100B8E00CE2D71087602031DCE2D70087502031846
:100B9E00D22D2200EF0A22006F08F100F136710803
:100BAE002500EF00073071020318E02D0130F00030
:060BBE00E12DF00108002A
:100BC4002D004008F4004108F500740884007508FD
:100BD400850000080319F22DF40A0319F50AE72D1C
:100BE4004408450403191A2E7408F2007508F3002A
:100BF400F40A0319F50A4208F0004308F100C20A96
:100C04000319C30A700884007108850072088600FD
:100C14007308870000088100720884007308850047
:100C2400000803191A2E0130C4020030C53BF22D0E
:100C340000304506031D202E00304406031D272ED8
:100C4400740886007508870081014008F000410897
:040C5400F1000800A3
:100C580080302D00D7000230D8000030D900003095
:100C6800DA00FF30DB00FF30DC00FF30DD00FF3052
:100C7800DE007430DF000230E0000030E1000030B8
:100C8800E2007A30E3000230E4000030E500003092
:080C9800E60069243D23080079
:100CA0002D0040088400410885000008003A03191F
:100CB000642E40088400410885000008D700F22215
:0A0CC000C00A0319C10A502E0800F3
:0E0CCA0055303C008F00AA308F000F14080038
:100CD8002D004008F4004108F500740884007508E8
:100CE8008500000803197C2EF40A0319F50A712EF1
:100CF8007408F2007508F300F40A0319F50A4208AB
:100D0800F0004308F100C20A0319C30A70088400FE
:100D18007108850072088600730887000008810042
:100D28007208840073088500000803199C2E7C2E25
:0A0D38004008F0004108F100080037
:0A0D420071088A00700882000800A2
:0E0D4C0055303C008F00AA308F000F100800B9
:100D5A002D004008F4004108F5007408F2007508F7
:100D6A00F300F40A0319F50A4208F0004308F100F7
:100D7A00C20A0319C30A7008840071088500720840
:100D8A0086007308870000088100720884007308CF
:100D9A00850000080319D22EB22E4008F00041083F
:040DAA00F10008004C
:100DAE002100AA012D004208860043088700810118
:100DBE004008D7004108D80002244208D700430853
:100DCE00D800C02270080319EF2E0130F000F02E6B
:040DDE00F001080018
:100DE2002000FB01FA01F9018030F800F10CF00C4F
:100DF200031C042F7408F90775080318750FFA0706
:100E02000318FB0A0310F01F0C2F7408FA07750869
:100E12000318750FFB07FB0CFA0CF90CF80C031CFA
:100E2200F72E7B08F3007A08F2007908F1007808BF
:040E3200F0000800C4
:100E36002D00C601C7014008C8004108C90080301E
:100E46004106F00080307002031D2B2F0030400257
:100E56000318392F0130C6000030C7004008003C97
:100E6600C8004108031C013EC901C9024808D70051
:100E76004908D8004208D9004308DA001D24063084
:100E8600C4000030C5004508003C031D4C2F440833
:100E9600003C0318672F4408420786004508433D77
:100EA600870001304402F0000030453BF100700835
:100EB600420784007108433D850000088100013027
:100EC600C4020030C53B462F42088600430887000F
:100ED600203081004608470403198D2FC401C5013F
:100EE6004408420784004508433D85000008203A2F
:100EF600031D812FC40A0319C50A732F0130C402CA
:100F06000030C53B4408420786004508433D87003C
:060F16002D3081000800EF
:100F1C005A302D00C0000030C100502621000C11A9
:100F2C0022000C1121000E1450302D00C000023094
:100F3C00C100A030C2000030C300D72670080319CE
:100F4C00AA2F0130F000DB2F4130C0000230C1006D
:100F5C0050266730C0000230C100A030C200003003
:100F6C00C300D72670080319BE2F0230F000DB2F08
:100F7C005B30C0000230C10050263330C00002305C
:100F8C00C100A030C2000030C300D726700803197E
:100F9C00D22F0330F000DB2FDE30C0000130C10057
:0C0FAC00502601302100B500F0010800C3
:100FB800AC302D00C0000230C100A030C2000030AB
:100FC800C300D72670080319EC2F0130F000ED2F6D
:040FD800F00108001C
:0E0FDC002C004708F0004808F100A12608008C
:100FEA0012001E00F003031DF52FF103031DF52F58
:020FFA000800ED
:10100000A0302D00C0000230C100A030C20000306E
:10101000C3008031D72688317008031912280130A7
:08102000F0001328F0010800A4
:10102800CA302D00C0000130C100A030C20000301D
:10103800C3008031D726883170080319262801306B
:0C104800F00029282100B501F00108008B
:101054002C00E901EA0166302D00C0000030C10017
:10106400A030C2000030C3008031D7268831700818
:1010740003193F280130F0006B292800ED01EE012F
:101084002C0069086A04031DD5280D3021002A02AA
:10109400F100F2010030F23B803028006E06F000CF
:1010A400803072067002031D592871086D020318FE
:1010B400D528ED30F0002230F1006D08700784006F
:1010C4006E08713D85000008F1007108433A031D64
:1010D400D02801306D07F20000306E3DF300ED3092
:1010E400F0002230F1007208700784007308713D2B
:1010F40085000008F10071084D3A031DD028023024
:101104006D07F20000306E3DF300ED30F000223048
:10111400F1007208700784007308713D85000008AF
:10112400F1007108543A031DD02803306D07F20012
:1011340000306E3DF300ED30F0002230F100720813
:10114400700784007308713D85000008F100710880
:10115400453A031DD02804306D07F20000306E3D7F
:10116400F300ED30F0002230F100720870078400C3
:101174007308713D85000008F10071083A3A031DB7
:10118400D02806306D072C00E700003028006E3DA3
:101194002C00E8000130E9000030EA002800ED0AE4
:1011A4000319EE0A42282C0069086A04031DDD288D
:1011B4000230F0006B2980306806F0008030700245
:1011C400031DE82821002A082C0067020318FE28C2
:1011D400ED30F0002230F1006708700784006808E1
:1011E400713D85000008F10071082C3A0319FE28AE
:1011F400E70A0319E80ADD28063021002A02F10073
:10120400F2010030F23B80307206F00080302C0096
:1012140068067002031D1029670871020318152956
:101224000230F0006B29E70A0319E80A2800ED01EF
:10123400EE0180306E06F00080307002031D242918
:1012440005306D02031862296D082C006707F2004F
:1012540028006E082C00683DF300ED30F0002230C9
:10126400F1007208700784007308713D850000085E
:10127400F10071080D3A03196229243028006D0722
:10128400860000306E3D87006D082C006707F20071
:1012940028006E082C00683DF300ED30F000223089
:1012A400F1007208700784007308713D850000081E
:1012B400F000700881002800ED0A0319EE0A1B29CA
:1012C400280024306D07860000306E3D87008101C0
:0412D400F00108001D
:1012D800A1302D00C0000030C100A030C200003095
:1012E800C3008031D7268831700803197E29013060
:1012F800F000862A2C00E701E8012800ED01EE0144
:1013080000302C006806031D8B2900306706031D7A
:101318000D2A803028006E06F00080307002031D10
:10132800992921002A0828006D0203180D2AED309A
:10133800F0002230F1006D08700784006E08713DDE
:1013480085000008F10071082B3A031D082A0130B6
:101358006D07F20000306E3DF300ED30F0002230F2
:10136800F1007208700784007308713D8500000859
:10137800F1007108433A031D082A02306D07F20094
:1013880000306E3DF300ED30F0002230F1007208BD
:10139800700784007308713D85000008F10071082A
:1013A8004C3A031D082A03306D07F20000306E3DE9
:1013B800F300ED30F0002230F1007208700784006D
:1013C8007308713D85000008F1007108433A031D58
:1013D800082A04306D07F20000306E3DF300ED304E
:1013E800F0002230F1007208700784007308713D24
:1013F80085000008F1007108433A031D082A0130EE
:101408002C00E7000030E8002800ED0A0319EE0A76
:10141800842928000130ED020030EE3B6D082100E0
:101428002A022700EF00ED302C00EB002230EC0000
:1014380028006D082C00EB0728006E082C00EC3DF6
:1014480007302800ED000030EE0001302C00E700E6
:101458000030E800803028006E06F000803070020E
:10146800031D3A2A27006F0828006D020318852AF1
:101478008030F00080302C0068067002031D462A78
:101488006708063C031C852A28006D082C006B079A
:10149800840028006E082C006C3D850000082C3A5A
:1014A800031D5C2AE70A0319E80AE901EA01802A10
:1014B80000306806031D622A06306706031D802A6D
:1014C8004B306907860006306A3D870028006D08A2
:1014D8002C006B07840028006E082C006C3D8500EA
:1014E80000088100E90A0319EA0A4B3069078600F7
:1014F80006306A3D870081012800ED0A0319EE0ACB
:061508002E2AF00108008C
:10150E002C00E901EA01BA302D00C0000130C10003
:10151E00A030C2000030C3008031D7268831700859
:10152E0003199C2A0130F000ED2B2800ED01EE018D
:10153E002C0069086A04031D1C2B0E3021002A02A0
:10154E00F100F2010030F23B803028006E06F00010
:10155E00803072067002031DB62A71086D020318E0
:10156E001C2BED30F0002230F1006D087007840066
:10157E006E08713D85000008F1007108433A031DA5
:10158E00172B01306D07F20000306E3DF300ED3089
:10159E00F0002230F1007208700784007308713D6C
:1015AE0085000008F1007108423A031D172B023026
:1015BE006D07F20000306E3DF300ED30F00022308A
:1015CE00F1007208700784007308713D85000008F1
:1015DE00F1007108433A031D172B03306D07F2001B
:1015EE0000306E3DF300ED30F0002230F100720855
:1015FE00700784007308713D85000008F1007108C2
:10160E003A3A031D172B05306D072C00E70000300A
:10161E0028006E3D2C00E8000130E9000030EA00A1
:10162E002800ED0A0319EE0A9F2A2C0069086A04A5
:10163E00031D242B0230F000ED2B80306806F000E5
:10164E0080307002031D2F2B21002A082C00670208
:10165E000318452BED30F0002230F10067087007BB
:10166E0084006808713D85000008F10071082C3A6D
:10167E000319452BE70A0319E80A242B073021002A
:10168E002A02F100F2010030F23B80307206F000C7
:10169E0080302C0068067002031D572B67087102FC
:1016AE0003185C2B0330F000ED2BE70A0319E80A50
:1016BE0080306806F00080307002031D6A2B210016
:1016CE002A082C0067020318802BED30F000223020
:1016DE00F1006708700784006808713D85000008F6
:1016EE00F10071082C3A0319802BE70A0319E80A56
:1016FE005F2B053021002A02F100F2010030F23B8F
:10170E0080307206F00080302C0068067002031DD7
:10171E00922B670871020318972B0430F000ED2B03
:10172E00E70A0319E80A2800ED01EE0180306E0683
:10173E00F00080307002031DA62B04306D020318DA
:10174E00E42B6D082C006707F20028006E082C00B1
:10175E00683DF300ED30F0002230F10072087007A2
:10176E0084007308713D85000008F10071080D3A80
:10177E000319E42B343028006D07860000306E3DCF
:10178E0087006D082C006707F20028006E082C00F9
:10179E00683DF300ED30F0002230F1007208700762
:1017AE0084007308713D85000008F0007008810008
:1017BE002800ED0A0319EE0A9D2B280034306D0720
:0E17CE00860000306E3D87008101F0010800AA
:1017DC00B1302D00C0000230C100A030C20000307A
:1017EC00C3008031D726883170080319002C0130D2
:0E17FC00F000042C01302100B500F0010800BF
:10180A001F30210097008B13FF308C00FF308E00B1
:10181A0022008C018E0123008C018E01220091137B
:10182A00931321008C1220008C1221000C1220002C
:10183A000C1221008E140E118031A6268831320036
:10184A00951211303C00A40014303D00A2008031F2
:10185A006526883123009F1540309B0003309C0089
:10186A001E1580312C2688310530FB000F30FC0014
:10187A00F130FD00FD0B3F2CFC0B3F2CFB0B3F2CEA
:10188A0021009116200091120E302D00C000003068
:10189A00C1000530C2000430C3008030C4002530C6
:1018AA00C500C601C701C8018031E7248831053067
:1018BA00FB000F30FC00F130FD00FD0B622CFC0B2D
:0C18CA00622CFB0B622C0B178B17080024
:1018D6002C00E901EA01C2302D00C0000130C10030
:1018E600A030C2000030C3008031D726883170088E
:1018F6000319802C0130F000B82D2800ED01EE010F
:101906002C0069086A04031D002D0B3021002A02F1
:10191600F100F2010030F23B803028006E06F00044
:10192600803072067002031D9A2C71086D0203182E
:10193600002DED30F0002230F1006D0870078400B4
:101946006E08713D85000008F1007108433A031DD9
:10195600FB2C01306D07F20000306E3DF300ED30D8
:10196600F0002230F1007208700784007308713DA0
:1019760085000008F1007108533A031DFB2C023064
:101986006D07F20000306E3DF300ED30F0002230BE
:10199600F1007208700784007308713D8500000825
:1019A600F1007108513A031DFB2C03306D07F2005C
:1019B60000306E3DF300ED30F0002230F100720889
:1019C600700784007308713D85000008F1007108F6
:1019D6003A3A031DFB2C05306D072C00E70000305A
:1019E60028006E3D2C00E8000130E9000030EA00D6
:1019F6002800ED0A0319EE0A832C2C0069086A04F4
:101A0600031D082D0230F000B82D2800ED01EE016F
:101A160080306E06F00080307002031D142D0330F6
:101A26006D020318522D6D082C006707F20028007E
:101A36006E082C00683DF300ED30F0002230F10016
:101A46007208700784007308713D85000008F10074
:101A560071082C3A0319522D3C3028006D07860078
:101A660000306E3D87006D082C006707F2002800E5
:101A76006E082C00683DF300ED30F0002230F100D6
:101A86007208700784007308713D85000008F00035
:101A9600700881002800ED0A0319EE0A0B2D2800B4
:101AA6003C306D07860000306E3D870081010130B5
:101AB6006D07F00000306E3DF10070082C00E7075E
:101AC6007108E83D2800ED01EE0180306E06F00059
:101AD60080307002031D712D03306D020318AF2D87
:101AE6006D082C006707F20028006E082C00683D80
:101AF600F300ED30F0002230F10072087007840028
:101B06007308713D85000008F10071080D3A03194C
:101B1600AF2D2C3028006D07860000306E3D870003
:101B26006D082C006707F20028006E082C00683D3F
:101B3600F300ED30F0002230F100720870078400E7
:101B46007308713D85000008F000700881002800C8
:101B5600ED0A0319EE0A682D28002C306D07860061
:0C1B660000306E3D87008101F001080096
:101B72002000FB01FA01F901F801A001730DF80D33
:101B82007408F8027508031C750FF9027608031C25
:101B9200760FFA027708031C770FFB020001031C81
:101BA2000130A002F30D0730FC00730DF80DF90DA2
:101BB200FA0DFB0DA00D7408731CF12DF8027508C7
:101BC200031C750FF9027608031C760FFA027708D8
:101BD200031C770FFB020001031C0130A002022E3E
:101BE200F80775080318750FF90776080318760FBA
:101BF200FA0777080318770FFB0700010318013073
:101C0200A007F30DFC0BD62D720DF80DF90DFA0D90
:101C1200FB0DA00D7408731C202EF8027508031C1E
:101C2200750FF9027608031C760FFA027708031C77
:101C3200770FFB020001031C0130A002312EF807CE
:101C420075080318750FF90776080318760FFA0757
:101C520077080318770FFB07000103180130A0076C
:101C6200F20D0730FC00720DF80DF90DFA0DFB0DA7
:101C7200A00D7408721C4F2EF8027508031C750F14
:101C8200F9027608031C760FFA027708031C770F15
:101C9200FB020001031C0130A002602EF807750848
:101CA2000318750FF90776080318760FFA077708F5
:101CB2000318770FFB07000103180130A007F20D8C
:101CC200FC0B342E710DF80DF90DFA0DFB0DA00D64
:101CD2007408721C7E2EF8027508031C750FF90237
:101CE2007608031C760FFA027708031C770FFB02B3
:101CF2000001031C0130A0028F2EF807750803189B
:101D0200750FF90776080318760FFA077708031894
:101D1200770FFB07000103180130A007F10D073010
:101D2200FC00710DF80DF90DFA0DFB0DA00D7408F4
:101D3200711CAD2EF8027508031C750FF9027608A6
:101D4200031C760FFA027708031C770FFB020001CF
:101D5200031C0130A002BE2EF80775080318750F88
:101D6200F90776080318760FFA0777080318770F32
:101D7200FB07000103180130A007F10DFC0B922EA6
:101D8200700DF80DF90DFA0DFB0DA00D7408711C04
:101D9200DC2EF8027508031C750FF9027608031C85
:101DA200760FFA027708031C770FFB020001031C6F
:101DB2000130A002ED2EF80775080318750FF90718
:101DC20076080318760FFA0777080318770FFB07D0
:101DD200000103180130A007F00D0730FC00700D60
:101DE200F80DF90DFA0DFB0DA00D7408701C0B2FE8
:101DF200F8027508031C750FF9027608031C760FAA
:101E0200FA027708031C770FFB020001031C013062
:101E1200A0021C2FF80775080318750FF90776083A
:101E22000318760FFA0777080318770FFB070001EC
:101E320003180130A007F00DFC0BF02E70182F2FA5
:101E42007408F80775080318750FF9077608031860
:0E1E5200760FFA0777080318770FFB070800D2
:101E6000210033082D00C000210034082D00C100DE
:101E70006730C2000630C30080311B2788316730CD
:101E8000C0000630C1008031AA248831A030C000D3
:101E90000630C100D530C2000130C3008031AD260C
:101EA0008831A030C0000630C1004B30C20006307F
:101EB000C3001430C4000030C5008031E2258831F1
:101EC000A030C0000630C100EC30C2000030C300BA
:101ED00080316C26883121002B08313A031DB12F47
:101EE00020302D00C0000230C100803150268831E2
:101EF000DF30C0000230C1008031502688313930D7
:101F0000C0000130C100803150268831D930C00076
:101F10000230C1008031502688312D30C0000130A0
:101F2000C1008031502688312030C0000330C1000C
:101F30008031502688314530C0000030C1008031EA
:101F400050268831E530C0000230C1008031502673
:101F500088316730C0000630C1008031502688319A
:101F6000B92F2D00BC30C0000230C1008031502696
:061F70008831F0010800B9
:102000002D00A0012C00EB01EC012800ED01EE01F8
:10201000073021002A02F100F2010030F23B80304B
:1020200028006E06F000803072067002031D1A2828
:1020300071086D020318C42800302C006C06031DC3
:10204000232800306B06031DC428ED30F000223039
:10205000F10028006D08700784006E08713D85004E
:102060000008F1007108433A031DBF2801306D07D5
:10207000F20000306E3DF300ED30F0002230F10050
:102080007208700784007308713D85000008F10034
:102090007108473A031DBF2802306D07F200003077
:1020A0006E3DF300ED30F0002230F1007208700751
:1020B00084007308713D85000008F10071084E3AF4
:1020C000031DBF2803306D07F20000306E3DF300A2
:1020D000ED30F0002230F1007208700784007308C0
:1020E000713D85000008F1007108533A031DBF28B7
:1020F00004306D07F20000306E3DF300ED30F0006B
:102100002230F1007208700784007308713D850069
:102110000008F1007108493A031DBF2805306D071A
:10212000F20000306E3DF300ED30F0002230F1009F
:102130007208700784007308713D85000008F10083
:1021400071084E3A031DBF2806306D07F2000030BB
:102150006E3DF300ED30F0002230F10072087007A0
:1021600084007308713D85000008F1007108463A4B
:10217000031DBF2801302C00EB000030EC002800CC
:10218000ED0A0319EE0A082800302C006C06031D26
:10219000CB2800306B06031DD0280130F000E32A65
:1021A000EB01EC0128006D082C00E70028006E0808
:1021B0002C00E80080306806F00080307002031DBB
:1021C000E52821002A082C0067020318072900309F
:1021D0006C06031DED2800306B06031D0729ED304A
:1021E000F0002230F1006708700784006808713D34
:1021F00085000008F10071080D3A031D0329013024
:10220000EB000030EC00E70A0319E80ADA28003096
:102210006C06031D0D2900306B06031D12290130C9
:10222000F000E32A01302800ED020030EE3B6D089B
:1022300021002A022700EF00ED302C00ED002230B3
:10224000EE0028006D082C00ED0728006E082C0019
:10225000EE3D08302800ED000030EE0001302C008B
:10226000E7000030E800803028006E06F000803083
:102270007002031D3F2927006F0828006D02031814
:1022800079298030F00080302C0068067002031D30
:102290004B296708093C031C792928006D082C008C
:1022A0006D07840028006E082C006E3D8500000834
:1022B0002C3A031D5F29E70A0319E80A7429003044
:1022C0006806031D652902306706031D742928006E
:1022D0006D082C006D07840028006E082C006E3DF0
:1022E000850000082D00A0002800ED0A0319EE0A61
:1022F00033292D002008313A031DE12A013028003E
:10230000EF002C00EF012100B301B40108302800D8
:10231000ED000030EE0001302C00E7000030E80056
:10232000803028006E06F00080307002031D9C296A
:1023300027006F0828006D020318DF2A8030F000A4
:1023400080302C0068067002031DA8296708093C2C
:10235000031CDF2A28006D082C006D07840028006C
:102360006E082C006E3D850000082C3A031DC12923
:10237000E70A0319E80AE901EA0101302800EF0041
:10238000DA2A00302C006806031DC82901306706D0
:10239000031DD82928006D082C006D078400280033
:1023A0006E082C006E3D850000082100EE00DA2A40
:1023B00000302C006806031DDF2902306706031D6C
:1023C000EF2928006D082C006D07840028006E0896
:1023D0002C006E3D850000082100AB00DA2A003099
:1023E0002C006806031DF62903306706031D3E2AEC
:1023F00028006D082C006D07840028006E082C0052
:102400006E3D850030300002031C2D2A28006D0827
:102410002C006D07840028006E082C006E3D85009E
:102420000008393C031C2D2A6F08003A031D2D2A91
:1024300039306907860001306A3D870028006D0841
:102440002C006D07840028006E082C006E3D85006E
:1024500000088100E90A0319EA0A28006D082C0027
:102460006D07840028006E082C006E3D8500000872
:102470002E3A031D3D2A0130EF00DA2A00306806AB
:10248000031D442A04306706031D5C2A2D306907AA
:10249000860001306A3D870028006D082C006D071A
:1024A000840028006E082C006E3D85000008810025
:1024B000E90A0319EA0ADA2A00306806031D622ACB
:1024C00005306706031D7A2A45306907860000300B
:1024D0006A3D870028006D082C006D0784002800E5
:1024E0006E082C006E3D850000088100E90A031982
:1024F000EA0ADA2A00306806031D802A06306706D9
:10250000031DDA2A28006D082C006D0784002800BE
:102510006E082C006E3D850030300002031CCA2A74
:1025200028006D082C006D07840028006E082C0020
:102530006E3D85000008393C031CCA2A28006F083C
:102540000319CA2A21003308F0003408F1000A30C8
:10255000F4000030F5008031F12690317008210040
:10256000B3007108B40028006D082C006D078400CA
:1025700028006E082C006E3D850030300002F2000D
:10258000F3010030F33B720870072100B3007308B9
:10259000713DB40028006D082C006D0784002800F0
:1025A0006E082C006E3D850000082E3A031DDA2AC5
:1025B0002800EF012800ED0A0319EE0A9029F00126
:0825C000E32A0130F0000800DD
:1025C80098315E2190312C00E301E401E501E60138
:1025D8002700EE01883105249031C3302D00C0005A
:1025E8000330C100803150269031A030C000033044
:1025F800C1008031502690312F30C0000330C10017
:1026080080315026903120008C16640080318E274E
:10261800903170082700EE006E080319222B26302F
:102628002D00C0000330C100803150269031803128
:102638008E27903170082700EE00102B20008C1296
:102648006400640021006F080319B82BBA302D000C
:10265800C0000330C100803150269031AF30C00037
:102668000330C10080315026903188316C2190317F
:1026780070082700EE006E080319582B60302D00F3
:10268800C0000430C1008031502690315430C00061
:102698000430C10080315026903188316C2190314E
:1026A80070082700EE003F2B64004B302D00C0005F
:1026B8000630C100803150269031A030C00004306F
:1026C800C1008031502690318031DC27903170086C
:1026D8002700EE006E080319872BB4302D00C000C8
:1026E8000430C100803150269031AA30C000043037
:1026F800C1008031502690318031DC27903170083C
:102708002700EE006E2B64004A302D00C000043014
:10271800C1008031502690318831302790317008BF
:102728002700EE006E080319AF2B2A302D00C000D9
:102738000430C1008031502690313330C00004305D
:10274800C10080315026903188313027903170088F
:102758002700EE00962B0D302D00D7008031F22295
:10276800903164002100EF011430F400F501F60106
:10277800F7012C006308F0006408F1006508F20016
:102788006608F3008831B92590317808F000790897
:10279800F1007A08F2007B08F3000030F4007306B9
:1027A800031DE02B74087206031DE02B74087106E4
:1027B800031DE02B7008003A031D102C3D302D003E
:1027C800C0000430C100803150269031883100208B
:1027D800903170082700EE007008031D082CCD30DA
:1027E8002D00C0000330C1008031502690310020F8
:1027F80070080319072CD8302D00C0000330C10021
:10280800803150269031102C2D002030C00004302B
:10281800C1008031502690311430F400F501F601E2
:10282800F7012C006308F0006408F1006508F20065
:102838006608F3008831B92590317808F0007908E6
:10284800F1007A08F2007B08F3000030F400730608
:10285800031D382C74087206031D382C7408710681
:10286800031D382C7008003A031D592CC7302D0061
:10287800C0000030C10080315026903188316B246F
:10288800903170082700EE0070080319532CC030EF
:102898002D00C0000030C1008031502690312D003D
:1028A8000D30D7008031F22290311430F400F50158
:1028B800F601F7012C006308F0006408F1006508D0
:1028C800F2006608F3008831B92590317808F000E5
:1028D8007908F1007A08F2007B08F3000030F40070
:1028E8007306031D812C74087206031D812C74085D
:1028F8007106031D812C7008003A031DA22CD830E4
:102908002D00C0000030C100803150269031883140
:102918002A20903170082700EE00700803199C2CBB
:10292800D1302D00C0000030C100803150269031D8
:102938002D000D30D7008031F22290311430F40090
:10294800F501F601F7012C006308F0006408F100B6
:102958006508F2006608F3008831B92590317808D7
:10296800F0007908F1007A08F2007B08F3000030E3
:10297800F4007306031DCA2C74087206031DCA2CC2
:1029880074087106031DCA2C7008003A031DEB2C4D
:10299800B6302D00C0000030C10080315026903183
:1029A80088318722903170082700EE0070080319DB
:1029B800E52CAC302D00C0000030C100803150261D
:1029C80090312D000D30D7008031F2229031210056
:1029D8002B08313A031D692D350803192C2D803039
:1029E800133AF000803034067002031DFD2C3308C2
:1029F800883C03182C2D5F302D00C0000130C10029
:102A08008031502690318831142090317008270089
:102A1800EE006E080319262D56302D00C000013037
:102A2800C100803150269031AC30C0000130C10067
:102A38008031502690318831142090317008270059
:102A4800EE000D2D0D302D00D7008031F22290318F
:102A580021003508031D692D80303406F0008030D0
:102A6800113A7002031D3A2D943033020318692D70
:102A7800A0302D00C0000130C100803150269031B7
:102A88008831EE23903170082700EE006E08031994
:102A9800632D4D302D00C0000130C100803150261B
:102AA80090312030C0000130C10080315026903173
:102AB8008831EE23903170082700EE004A2D0D3042
:102AC8002D00D7008031F22290311430F400F50146
:102AD800F601F7012C006308F0006408F1006508AE
:102AE800F2006608F3008831B92590317808F000C3
:102AF8007908F1007A08F2007B08F3000030F4004E
:102B08007306031D912D74087206031D912D740818
:102B18007106031D912D7008003A031D962D2000A3
:102B28008C16982D20008C1201302C00E307003001
:102B3800E43DE53DE63D0530FB000F30FC00F1309B
:102B4800FD00FD0BA52DFC0BA52DFB0BA52D1430B1
:102B5800F400F501F601F7016308F0006408F100DC
:102B68006508F2006608F3008831B92590317808C5
:102B7800F0007908F1007A08F2007B08F3000030D1
:102B8800F4007306031DD22D74087206031DD22D9E
:102B980074087106031DD22D7008003A031DBE2E5D
:102BA800E2302D00C0000030C10080315026903145
:102BB80021002B08313A031D6A2E33082D00C0006E
:102BC800210034082D00C1005B30C2000630C3006C
:102BD80080311B2790315B30C0000630C100803146
:102BE800AA2490312700ED01393084000130850096
:102BF8006D0884070318850A0008003A0319442E53
:102C08006D08043A0319112E6D08063A0319112E9E
:102C18006D08083A0319112E172E2E302D00D700F3
:102C28008031F222903127006D08083A031D222EC8
:102C380020302D00D7008031F222903127006D0816
:102C48000A3A03192C2E6D080C3A03192C2E322E31
:102C58003A302D00D7008031F2229031393084008B
:102C68000130850027006D0884070318850A0008CD
:102C78002D00D7008031F22290312700ED0AF82D7F
:102C88002C302D00D7008031F22290312D30C00039
:102C98000130C1008031502690312C30D70080316E
:102CA800F22290314530C0000030C10080315026FA
:102CB80090312C30D7008031F22290315B30C00047
:102CC8000630C100803150269031722E2D004130DF
:102CD800C0000030C10080315026903121003508F5
:102CE80003197F2E56302D00C0000030C1008031FE
:102CF80050269031872E2D005130C0000030C10081
:102D08008031502690312C30D7008031F22290311A
:102D18003C30C0000030C1008031502690312C304A
:102D2800D7008031F22290312C30C0000030C10031
:102D38008031502690312C30D7008031F2229031EA
:102D48002430C0000030C1008031502690312C3032
:102D5800D7008031F22290313430C0000030C100F9
:102D68008031502690313130C0000030C1008031B0
:082D780050269031252BBF2EDF
:1032BC0010308400973085004C30F0000130F10064
:1032CC0024308600003087008031F5279831A830F3
:1032DC008400973085004930F0000130F100A030B7
:1032EC008600003087008031F52798315C308400EF
:1032FC00973085004C30F0000130F1002030860012
:10330C00013087008031F52798314930840098309E
:10331C0085003530F0000130F100A030860001301E
:10332C0087008031F5279831F53084008F30850087
:10333C000330F0000130F100E930860000308700E6
:10334C008031F52798312F308400993085001B305F
:10335C00F0000130F100D53086000130870080315B
:10336C00F52798314A308400993085001330F000ED
:10337C000130F10020308600023087008031F527C3
:10338C009831FE308400873085000230F000013027
:10339C00F100EC308600003087008031F527983141
:1033AC00BB3084008F3085003A30F0000130F100E2
:1033BC0033308600023087008031F5279831133086
:1033CC008400993085001C30F0000130F100A030F1
:1033DC008600023087008031F5279831F830840060
:1033EC008F3085000130F0000130F100EE308600A6
:1033FC00003087008031F52798317E30840098307A
:10340C0085002F30F0000130F100BC308600023016
:10341C0087008031F5279831C130840096308500C3
:10342C004F30F0000130F10020308600033087006F
:10343C008031F5279831D3308400983085002330C3
:10344C00F0000130F100A03086000330870080319D
:10345C00F527983103308400803085000130F0006E
:10346C000130F100EF308600003087008031F52705
:10347C009831AD308400983085002630F000013052
:10348C00F100C3308600033087008031F527983176
:10349C0000308400983085004930F0000130F10094
:1034AC0020308600043087008031F5279831F630C3
:1034BC008400983085001D30F0000130F100A03000
:0E34CC008600043087008031F5279831080013
:020006000034C4
:040FFC000D3400347C
:101F7600413454342B34433447344E345334503480
:0C1F8600573452343D3431340D340034F3
:101F92000D342034203420342B3443344634553429
:0E1FA2004E343D34313420344F344B3400344F
:101FB000413454342B344334463455344E343D3458
:061FC00031340D34003441
:101FC6000D342034203420344134543445343034F4
:081FD60020344F344B34003479
:0C1FDE0041345434453430340D340034A8
:021FEA000034C1
:021FEC000034BF
:021FEE000034BD
:021FF00030348B
:0C2D820020344C344F344E3420340034E4
:102D8E00543449344D3445344F34553454340D3461
:022D9E000034FF
:102DA00044344134543441343A34543469346D3405
:102DB00065342C344C34613474342C344C346F34DA
:102DC0006E342C3441346C34743428346D342934EA
:102DD0002C34473453344D345F3473347434613499
:102DE000743465342C3452345334533449342C34D1
:102DF0004234453452342C34543465346D34703498
:102E00002834433429342C3456345F34423461340A
:102E1000743428346D34563429340D340D34003470
:102E20002D343134003400340034003400340034A4
:0A2E30002D34313400340034003436
:062E3A000D340D340034DC
:102E40002D34313400340034003400340034003484
:0A2E50002D34313400340034003416
:082E5A002C342C342C3400341C
:102E62003034003400340034003400340034003490
:082E7200003400340034003488
:0A2E7A002C344F3446344634003443
:082E84002C344F344E340034AD
:102E8C0066346F346E3461345F3469346E34693453
:082E9C00743428342934003499
:102EA400413454342B3443344D34543445343F3456
:042EB4000D340034A5
:102EB8000D34673473346D345F3470346F34773461
:0A2EC800653472346F346E34003448
:102ED2003034003400340034003400340034003420
:082EE200003400340034003418
:102EEA003034003400340034003400340034003408
:102EFA000034003400340034003400340034003428
:082F0A000034003400340034EF
:102F12002034543449344D3445344F3455345434C8
:022F2200003479
:102F24002034543449344D3445344F3455345434B6
:022F3400003467
:102F3600673473346D345F3470346F34773465348A
:0A2F460072346F34663466340034D0
:022F500000344B
:102F5200413454342B3443344C34433443340D34ED
:022F6200003439
:022F6400003437
:022F6600303405
:0E2F680020344534523452344F345234003445
:042F760000340034EF
:022F7A00003421
:102F7C0072346534613464345F3476346234613471
:042F8C007434003465
:0E2F900020344534523452344F34523400341D
:102F9E0072346534613464345F3472347334733430
:042FAE00693400344E
:0E2FB20020344534523452344F3452340034FB
:102FC00072346534613464345F34743465346D3420
:042FD0007034003425
:0E2FD4000D3444344134543441343A34003422
:103000002034543449344D3445344F3455345434D9
:043010000D34003447
:103014002034543449344D3445344F3455345434C5
:02302400003476
:103026000D34733465346E3464345F3473346D3404
:0430360073340034BB
:10303A006734653474345F346734703473345F349E
:0A304A0064346134743461340034DE
:103054000D34733465346E3464345F3473346D34D6
:04306400733400348D
:103068000D346734653474345F346E3475346D34BC
:08307800623465347234003447
:103080002034543449344D3445344F345534543459
:0230900000340A
:10309200673473346D345F3470346F34773465342D
:0830A20072346F346E34003407
:1030AA000D34673473346D345F3470346F3477346D
:0C30BA00653472346F34663466340034C0
:1030C600413454342B344334423443340D340034C5
:1030D600413454342B344334533451340D34003496
:1030E600413454342B344334463455344E343D3411
:0630F60030340D340034FB
:1030FC00203420342034203453344D345334203491
:10310C0022344E346F342034763461346C34693468
:10311C006434203466346934783422342034733483
:0A312C0065346E3474340D34003441
:0C31360020344C34413454342034003434
:0C3142002034553454344334203400341D
:0C314E00203441344C345434203400341C
:10315A0050344F3457344534523420344F344E347B
:04316A000D340034EC
:10316E000D346734703473345F34703461347234B8
:06317E00733465340034D7
:1031840020344234553446344634453452342034A1
:1031940049344E34563441344C34493444340D3477
:0231A4000034F5
:1031A6000D344434613474346134203466346F34FD
:0E31B60072346D34613474343A340D340034A4
:1031C4006734653474345F346E3475346D3462340A
:0631D40065347234003482
:1031DA00523449344E34473449344E3447340D342A
:0231EA000034AF
:1031EC000D3465346E3464345F34633461346C3460
:0431FC006C340034FB
:103200000D3465346E3464345F34633461346C344B
:043210006C340034E6
:103214002034543449344D3445344F3455345434C3
:02322400003474
:10322600413454342B34433447344E3453344934C4
:083236004E3446340D3400341F
:0A323E004134543448340D34003498
:10324800413454342B344334463455344E343D34AD
:0632580031340D34003496
:10325E00413454342B3443344D34473453343D3499
:02326E0000342A
:103270000D342034203420342B34433447344E343E
:1032800053345034573452343D34313420344F3475
:043290004B34003487
:10329400203420342034203453344D3453342034F7
:1032A40064346134743461342034733465346E347A
:0632B400743420340034E4
:020000040001F9
:08000E0004292E3A030003004F
:00000001FF
